{
  "_format": "hh-sol-artifact-1",
  "contractName": "TicTacToe",
  "sourceName": "contracts/TicTacToe.sol",
  "abi": [
    {
      "inputs": [],
      "name": "DRAW_MARK",
      "outputs": [
        {
          "internalType": "uint256",
          "name": "",
          "type": "uint256"
        }
      ],
      "stateMutability": "view",
      "type": "function"
    },
    {
      "inputs": [],
      "name": "MAX_TIME",
      "outputs": [
        {
          "internalType": "uint256",
          "name": "",
          "type": "uint256"
        }
      ],
      "stateMutability": "view",
      "type": "function"
    },
    {
      "inputs": [],
      "name": "O",
      "outputs": [
        {
          "internalType": "uint256",
          "name": "",
          "type": "uint256"
        }
      ],
      "stateMutability": "view",
      "type": "function"
    },
    {
      "inputs": [],
      "name": "SIZE",
      "outputs": [
        {
          "internalType": "uint256",
          "name": "",
          "type": "uint256"
        }
      ],
      "stateMutability": "view",
      "type": "function"
    },
    {
      "inputs": [],
      "name": "X",
      "outputs": [
        {
          "internalType": "uint256",
          "name": "",
          "type": "uint256"
        }
      ],
      "stateMutability": "view",
      "type": "function"
    },
    {
      "inputs": [],
      "name": "allGames",
      "outputs": [
        {
          "components": [
            {
              "internalType": "address",
              "name": "playerX",
              "type": "address"
            },
            {
              "internalType": "address",
              "name": "playerO",
              "type": "address"
            },
            {
              "internalType": "uint256",
              "name": "X",
              "type": "uint256"
            },
            {
              "internalType": "uint256",
              "name": "O",
              "type": "uint256"
            },
            {
              "internalType": "uint256",
              "name": "betAmount",
              "type": "uint256"
            },
            {
              "internalType": "uint256",
              "name": "winner",
              "type": "uint256"
            },
            {
              "internalType": "uint256",
              "name": "move",
              "type": "uint256"
            }
          ],
          "internalType": "struct TicTacToe.Game[]",
          "name": "",
          "type": "tuple[]"
        }
      ],
      "stateMutability": "view",
      "type": "function"
    },
    {
      "inputs": [
        {
          "internalType": "uint256",
          "name": "gameId",
          "type": "uint256"
        }
      ],
      "name": "cancelGame",
      "outputs": [],
      "stateMutability": "nonpayable",
      "type": "function"
    },
    {
      "inputs": [
        {
          "internalType": "uint256",
          "name": "board",
          "type": "uint256"
        },
        {
          "internalType": "uint256",
          "name": "winLine",
          "type": "uint256"
        },
        {
          "internalType": "uint256",
          "name": "start",
          "type": "uint256"
        }
      ],
      "name": "checkWin",
      "outputs": [
        {
          "internalType": "bool",
          "name": "",
          "type": "bool"
        }
      ],
      "stateMutability": "pure",
      "type": "function"
    },
    {
      "inputs": [
        {
          "internalType": "uint256",
          "name": "gameId",
          "type": "uint256"
        }
      ],
      "name": "claimDraw",
      "outputs": [],
      "stateMutability": "nonpayable",
      "type": "function"
    },
    {
      "inputs": [
        {
          "internalType": "uint256",
          "name": "gameId",
          "type": "uint256"
        }
      ],
      "name": "claimWinner",
      "outputs": [],
      "stateMutability": "nonpayable",
      "type": "function"
    },
    {
      "inputs": [
        {
          "internalType": "address",
          "name": "",
          "type": "address"
        },
        {
          "internalType": "uint256",
          "name": "",
          "type": "uint256"
        }
      ],
      "name": "claimed",
      "outputs": [
        {
          "internalType": "bool",
          "name": "",
          "type": "bool"
        }
      ],
      "stateMutability": "view",
      "type": "function"
    },
    {
      "inputs": [],
      "name": "createGame",
      "outputs": [],
      "stateMutability": "payable",
      "type": "function"
    },
    {
      "inputs": [
        {
          "internalType": "uint256",
          "name": "",
          "type": "uint256"
        }
      ],
      "name": "games",
      "outputs": [
        {
          "internalType": "address",
          "name": "playerX",
          "type": "address"
        },
        {
          "internalType": "address",
          "name": "playerO",
          "type": "address"
        },
        {
          "internalType": "uint256",
          "name": "X",
          "type": "uint256"
        },
        {
          "internalType": "uint256",
          "name": "O",
          "type": "uint256"
        },
        {
          "internalType": "uint256",
          "name": "betAmount",
          "type": "uint256"
        },
        {
          "internalType": "uint256",
          "name": "winner",
          "type": "uint256"
        },
        {
          "internalType": "uint256",
          "name": "move",
          "type": "uint256"
        }
      ],
      "stateMutability": "view",
      "type": "function"
    },
    {
      "inputs": [
        {
          "internalType": "uint256",
          "name": "gameId",
          "type": "uint256"
        }
      ],
      "name": "joinGame",
      "outputs": [],
      "stateMutability": "payable",
      "type": "function"
    },
    {
      "inputs": [
        {
          "internalType": "uint256",
          "name": "gameId",
          "type": "uint256"
        },
        {
          "internalType": "uint256",
          "name": "pos",
          "type": "uint256"
        },
        {
          "internalType": "uint256",
          "name": "winLine",
          "type": "uint256"
        },
        {
          "internalType": "uint256",
          "name": "winPos",
          "type": "uint256"
        }
      ],
      "name": "makeMove",
      "outputs": [],
      "stateMutability": "nonpayable",
      "type": "function"
    },
    {
      "inputs": [
        {
          "internalType": "address",
          "name": "add",
          "type": "address"
        }
      ],
      "name": "myGame",
      "outputs": [
        {
          "internalType": "uint256",
          "name": "index",
          "type": "uint256"
        },
        {
          "components": [
            {
              "internalType": "address",
              "name": "playerX",
              "type": "address"
            },
            {
              "internalType": "address",
              "name": "playerO",
              "type": "address"
            },
            {
              "internalType": "uint256",
              "name": "X",
              "type": "uint256"
            },
            {
              "internalType": "uint256",
              "name": "O",
              "type": "uint256"
            },
            {
              "internalType": "uint256",
              "name": "betAmount",
              "type": "uint256"
            },
            {
              "internalType": "uint256",
              "name": "winner",
              "type": "uint256"
            },
            {
              "internalType": "uint256",
              "name": "move",
              "type": "uint256"
            }
          ],
          "internalType": "struct TicTacToe.Game",
          "name": "game",
          "type": "tuple"
        }
      ],
      "stateMutability": "view",
      "type": "function"
    },
    {
      "inputs": [
        {
          "internalType": "address",
          "name": "",
          "type": "address"
        },
        {
          "internalType": "uint256",
          "name": "",
          "type": "uint256"
        }
      ],
      "name": "playerRequestDraw",
      "outputs": [
        {
          "internalType": "bool",
          "name": "",
          "type": "bool"
        }
      ],
      "stateMutability": "view",
      "type": "function"
    },
    {
      "inputs": [
        {
          "internalType": "uint256",
          "name": "gameId",
          "type": "uint256"
        }
      ],
      "name": "quitGame",
      "outputs": [],
      "stateMutability": "nonpayable",
      "type": "function"
    },
    {
      "inputs": [
        {
          "internalType": "uint256",
          "name": "gameId",
          "type": "uint256"
        }
      ],
      "name": "requestDraw",
      "outputs": [],
      "stateMutability": "nonpayable",
      "type": "function"
    }
  ],
  "bytecode": "0x60808060405234601557611585908161001b8239f35b600080fdfe6080604052600436101561001257600080fd5b60003560e01c8063110a8b9914610e70578063117a5b9014610deb57806316f9921114610d435780632694998414610d27578063465542f014610c365780634dd6c8de14610be957806369958ab914610ac85780637255d729146109d357806378c7cee0146109b6578063a0ea32de1461099a578063a2d893c51461094d578063bdffd28214610931578063c1599bd914610915578063c3887ad714610684578063c9b144a8146103ba578063d49e2f5114610332578063d6afb262146102f6578063e6299a5a1461028e5763efaa55a0146100ed57600080fd5b60203660031901126102895760043561010581610e9e565b50546001600160a01b03161561024e5761011e81610e9e565b50600101546001600160a01b031661021a5761013981610e9e565b50546001600160a01b031633146101d557600461015582610e9e565b50015434036101905780600161016d61018493610e9e565b500180546001600160a01b03191633179055610e9e565b50600642910155600080f35b60405162461bcd60e51b815260206004820152601960248201527f42657420616d6f756e74206973206e6f7420636f7272656374000000000000006044820152606490fd5b60405162461bcd60e51b815260206004820152601c60248201527f596f752063616e2774206a6f696e20796f7572206f776e2067616d65000000006044820152606490fd5b60405162461bcd60e51b815260206004820152600c60248201526b11d85b59481a5cc8199d5b1b60a21b6044820152606490fd5b60405162461bcd60e51b815260206004820152601360248201527211d85b5948191bd95cc81b9bdd08195e1a5cdd606a1b6044820152606490fd5b600080fd5b34610289576020366003190112610289576102d06004356102ae81610e9e565b50546001600160a01b0316331480156102d2575b6102cb90611116565b611399565b005b506102cb6102df82610e9e565b50600101546001600160a01b0316331490506102c2565b346102895760203660031901126102895761010061033061031d610318610f3f565b6112a4565b6040929192519283526020830190610eee565bf35b346102895760203660031901126102895760043561034f81610e9e565b50546001600160a01b031633148015610396575b61036c90611116565b3360005260026020526040600020906000526020526040600020600160ff19825416179055600080f35b5061036c6103a382610e9e565b50600101546001600160a01b031633149050610363565b34610289576080366003190112610289576024356044356064356104056004356103e381610e9e565b50546001600160a01b031633148015610660575b61040090611116565b610e9e565b5091600683018054906402540be400820695610100811015610626576002860195865496600382019788548116956001851b8097166105eb57600584019a61044e8c5415611162565b80159081156105d6575b50156105a45768056bc75e2d6310000090046001036105155750506001015461048b906001600160a01b0316331461126b565b6402540be4008102908082046402540be40014901517156104ff57680ad78ebc5ac62000000180680ad78ebc5ac6200000116104ff576104cc904290610f63565b905583541780935580151592836104ed575b5050506104e757005b60029055005b6104f79350610f70565b8280806104de565b634e487b7160e01b600052601160045260246000fd5b915490975090929190610532906001600160a01b0316331461126b565b6402540be4008102908082046402540be40014901517156104ff5768056bc75e2d63100000018068056bc75e2d63100000116104ff57610573904290610f63565b9055178093558015159283610592575b50505061058c57005b60019055005b61059c9350610f70565b828080610583565b60405162461bcd60e51b815260206004820152600a602482015269054696d652069732075760b41b6044820152606490fd5b9050603c81018091116104ff5742108c610458565b60405162461bcd60e51b815260206004820152601360248201527224b73b30b634b2b2103837b9b4ba34b7b7101960691b6044820152606490fd5b60405162461bcd60e51b8152602060048201526012602482015271496e76616c696420706f736974696f6e203160701b6044820152606490fd5b5061040061066d82610e9e565b50600101546001600160a01b0316331490506103f7565b346102895760203660031901126102895761071b6107156004356106a781610e9e565b50546001600160a01b0316331480156108f1575b6106c490611116565b3360005260016020526040600020816000526020526106eb60ff6040600020541615611214565b3360005260016020526040600020816000526020526040600020600160ff19825416179055610e9e565b506111bd565b60c0810151604082015160608301516402540be40083069268056bc75e2d6310000090049117600019146108bd5760a0830191825115806108b3575b806108a0575b15610860575050600281525b80511561082b57516001811480610818575b156107c55750608001518060011b90808204600214901517156104ff576000808080938181156107bc575b3390f1156107b057005b6040513d6000823e3d90fd5b506108fc6107a6565b60021480610802575b6107d457005b608001518060011b90808204600214901517156104ff576000808080938181156107bc573390f1156107b057005b5060208101516001600160a01b031633146107ce565b5081516001600160a01b0316331461077b565b60405162461bcd60e51b815260206004820152600d60248201526c139bc81dda5b9b995c881e595d609a1b6044820152606490fd5b8251159182610895575b5081610880575b50156107695760018152610769565b9050603c81018091116104ff57421183610871565b60021491508461086a565b50603c81018082116104ff57421161075d565b5060018214610757565b60405162461bcd60e51b815260206004820152600c60248201526b47616d65206973206472617760a01b6044820152606490fd5b506106c46108fe82610e9e565b50600101546001600160a01b0316331490506106bb565b3461028957600036600319011261028957602060405160018152f35b3461028957600036600319011261028957602060405160108152f35b34610289576040366003190112610289576001600160a01b0361096e610f3f565b1660005260026020526040600020602435600052602052602060ff604060002054166040519015158152f35b3461028957600036600319011261028957602060405160028152f35b346102895760003660031901126102895760206040516000198152f35b6000366003190112610289576109e761119d565b338152602081019060008252604081016000815260608201600081526080830134815260a08401916000835260c08501936000855260005468010000000000000000811015610ab257806001610a409201600055610e9e565b979097610a9c57955187546001600160a01b03199081166001600160a01b039283161789559651600189018054909816911617909555935160028601559251600385015591516004840155905160058301555160069190910155005b634e487b7160e01b600052600060045260246000fd5b634e487b7160e01b600052604160045260246000fd5b3461028957602036600319011261028957600435610ae581610e9e565b50546001600160a01b031633148015610bc5575b610b0290611116565b610b0e61071582610e9e565b80519091906001600160a01b0316158015610bb0575b15610b7b57610b3290610e9e565b919091610a9c57600080806080819482600688828155826001820155826002820155826003820155826004820155826005820155015501518181156107bc573390f1156107b057005b60405162461bcd60e51b815260206004820152600d60248201526c10d85b9b9bdd0818d85b98d95b609a1b6044820152606490fd5b5060208201516001600160a01b031615610b24565b50610b02610bd282610e9e565b50600101546001600160a01b031633149050610af9565b34610289576040366003190112610289576001600160a01b03610c0a610f3f565b1660005260016020526040600020602435600052602052602060ff604060002054166040519015158152f35b346102895760003660031901126102895760005467ffffffffffffffff8111610ab25760405190601f19603f8260051b0116820182811067ffffffffffffffff821117610ab257604052808252602082019081600080527f290decd9548b62a8d60345a988386fc84ba6bc95484008f6362f93160ef3e5636000915b838310610d095784866040519182916020830190602084525180915260408301919060005b818110610ce5575050500390f35b91935091602060e082610cfb6001948851610eee565b019401910191849392610cd7565b60076020600192610d19856111bd565b815201920192019190610cb2565b34610289576000366003190112610289576020604051603c8152f35b3461028957602036600319011261028957610d636004356103e381610e9e565b506005810190610d74825415611162565b80546001600160a01b0316908115159081610dd4575b5015610d9c57330361058c5760029055005b60405162461bcd60e51b815260206004820152601060248201526f11d85b59481a5cc81b9bdd08199d5b1b60821b6044820152606490fd5b600101546001600160a01b03161515905083610d8a565b346102895760203660031901126102895760043560005481101561028957610e1460e091610e9e565b50805460018201546002830154600384015460048501546005860154600690960154604080516001600160a01b039788168152959096166020860152948401929092526060830152608082015260a081019290925260c0820152f35b34610289576060366003190112610289576020610e94604435602435600435610f70565b6040519015158152f35b600054811015610ed85760008080526007919091027f290decd9548b62a8d60345a988386fc84ba6bc95484008f6362f93160ef3e5630191565b634e487b7160e01b600052603260045260246000fd5b60c0809160018060a01b03815116845260018060a01b03602082015116602085015260408101516040850152606081015160608501526080810151608085015260a081015160a08501520151910152565b600435906001600160a01b038216820361028957565b90604082018092116104ff57565b919082018092116104ff57565b909161010081101561110e57600092600181146110c2575b60028114611080575b60038114611014575b600414610fa9575b5081161490565b92906004600f8516108015611006575b610ffd5783925b610fc985610f55565b60031981019081116104ff578411610ff2576001841b1792600f81018091116104ff5792610fc0565b925090925038610fa2565b50915050600090565b50600c8460041c1015610fb9565b939190600c600f821610801590611072575b6110685780935b61103682610f55565b600481018091116104ff57851161105e576001851b1793601181018091116104ff579361102d565b9350909193610f9a565b5050915050600090565b50600c8160041c1015611026565b939190600c8160041c10156110685780935b61109b82610f55565b85116110b8576001851b1793601081018091116104ff5793611092565b9350909193610f91565b939190600c600f821610156111075780935b600482018083116104ff5785116110fd576001851b179360001981146104ff57600101936110d4565b9350909193610f88565b5050915090565b505050600090565b1561111d57565b60405162461bcd60e51b815260206004820152601860248201527f596f7520617265206e6f7420696e20746869732067616d6500000000000000006044820152606490fd5b1561116957565b60405162461bcd60e51b815260206004820152600c60248201526b23b0b6b29034b99037bb32b960a11b6044820152606490fd5b6040519060e0820182811067ffffffffffffffff821117610ab257604052565b9060066111c861119d565b83546001600160a01b0390811682526001850154166020820152600284015460408201526003840154606082015260048401546080820152600584015460a082015292015460c0830152565b1561121b57565b60405162461bcd60e51b815260206004820152602260248201527f596f75206861766520616c726561647920636c61696d656420746869732067616044820152616d6560f01b6064820152608490fd5b1561127257565b60405162461bcd60e51b815260206004820152600a6024820152692bb937b733903a3ab93760b11b6044820152606490fd5b906112ad61119d565b6000815260006020820152600060408201526000606082015260006080820152600060a0820152600060c08201525060005460001981019081116104ff575b6112f581610e9e565b50546001600160a01b0384811691168114908115611379575b506113685780156113285780156104ff57600019016112ec565b50905061133361119d565b906000825260006020830152600060408301526000606083015260006080830152600060a0830152600060c083015260009190565b915061137661071583610e9e565b90565b905061138482610e9e565b50600101546001600160a01b0316143861130e565b3360005260016020526040600020816000526020526113c060ff6040600020541615611214565b3360005260016020526040600020816000526020526040600020600160ff198254161790556113f161071582610e9e565b9060c0820168056bc75e2d631000006402540be4008251069151041590811561153a575b506114ef5760a082015161150b576040820151606083015117600019146114ef5760018060a01b03825116600052600260205260406000208160005260205260ff6040600020541690816114bd575b506114985760405162461bcd60e51b81526020600482015260076024820152664e6f204472617760c81b6044820152606490fd5b600080806080819401518181156114b4575b3390f1156107b057565b506108fc6114aa565b905060018060a01b03602083015116600052600260205260406000209060005260205260ff6040600020541638611464565b50600080806080819401518181156114b4573390f1156107b057565b60405162461bcd60e51b81526020600482015260076024820152664e6f204472617760c81b6044820152606490fd5b9050603c81018091116104ff5742103861141556fea2646970667358221220c3a37457e93e603274c92cb41432edbfd1ed0134ebf621903a7005ab8400f59964736f6c634300081c0033",
  "linkReferences": {},
  "deployedLinkReferences": {}
}