{
  "contracts/TicTacToe.sol": {
    "TicTacToe": {
      "abi": [
        {
          "inputs": [],
          "name": "DRAW_MARK",
          "outputs": [
            {
              "internalType": "uint256",
              "name": "",
              "type": "uint256"
            }
          ],
          "stateMutability": "view",
          "type": "function"
        },
        {
          "inputs": [],
          "name": "MAX_TIME",
          "outputs": [
            {
              "internalType": "uint256",
              "name": "",
              "type": "uint256"
            }
          ],
          "stateMutability": "view",
          "type": "function"
        },
        {
          "inputs": [],
          "name": "O",
          "outputs": [
            {
              "internalType": "uint256",
              "name": "",
              "type": "uint256"
            }
          ],
          "stateMutability": "view",
          "type": "function"
        },
        {
          "inputs": [],
          "name": "SIZE",
          "outputs": [
            {
              "internalType": "uint256",
              "name": "",
              "type": "uint256"
            }
          ],
          "stateMutability": "view",
          "type": "function"
        },
        {
          "inputs": [],
          "name": "X",
          "outputs": [
            {
              "internalType": "uint256",
              "name": "",
              "type": "uint256"
            }
          ],
          "stateMutability": "view",
          "type": "function"
        },
        {
          "inputs": [
            {
              "internalType": "uint256",
              "name": "gameId",
              "type": "uint256"
            }
          ],
          "name": "cancelGame",
          "outputs": [],
          "stateMutability": "nonpayable",
          "type": "function"
        },
        {
          "inputs": [
            {
              "internalType": "uint256",
              "name": "board",
              "type": "uint256"
            },
            {
              "internalType": "uint256",
              "name": "winLine",
              "type": "uint256"
            },
            {
              "internalType": "uint256",
              "name": "start",
              "type": "uint256"
            }
          ],
          "name": "checkWin",
          "outputs": [
            {
              "internalType": "bool",
              "name": "",
              "type": "bool"
            }
          ],
          "stateMutability": "pure",
          "type": "function"
        },
        {
          "inputs": [
            {
              "internalType": "uint256",
              "name": "gameId",
              "type": "uint256"
            }
          ],
          "name": "claimDraw",
          "outputs": [],
          "stateMutability": "nonpayable",
          "type": "function"
        },
        {
          "inputs": [
            {
              "internalType": "uint256",
              "name": "gameId",
              "type": "uint256"
            }
          ],
          "name": "claimWinner",
          "outputs": [],
          "stateMutability": "nonpayable",
          "type": "function"
        },
        {
          "inputs": [
            {
              "internalType": "address",
              "name": "",
              "type": "address"
            },
            {
              "internalType": "uint256",
              "name": "",
              "type": "uint256"
            }
          ],
          "name": "claimed",
          "outputs": [
            {
              "internalType": "bool",
              "name": "",
              "type": "bool"
            }
          ],
          "stateMutability": "view",
          "type": "function"
        },
        {
          "inputs": [],
          "name": "createGame",
          "outputs": [],
          "stateMutability": "payable",
          "type": "function"
        },
        {
          "inputs": [
            {
              "internalType": "uint256",
              "name": "",
              "type": "uint256"
            }
          ],
          "name": "games",
          "outputs": [
            {
              "internalType": "address",
              "name": "playerX",
              "type": "address"
            },
            {
              "internalType": "address",
              "name": "playerO",
              "type": "address"
            },
            {
              "internalType": "uint256",
              "name": "X",
              "type": "uint256"
            },
            {
              "internalType": "uint256",
              "name": "O",
              "type": "uint256"
            },
            {
              "internalType": "uint256",
              "name": "betAmount",
              "type": "uint256"
            },
            {
              "internalType": "uint256",
              "name": "winner",
              "type": "uint256"
            },
            {
              "internalType": "uint256",
              "name": "move",
              "type": "uint256"
            }
          ],
          "stateMutability": "view",
          "type": "function"
        },
        {
          "inputs": [
            {
              "internalType": "uint256",
              "name": "gameId",
              "type": "uint256"
            }
          ],
          "name": "joinGame",
          "outputs": [],
          "stateMutability": "payable",
          "type": "function"
        },
        {
          "inputs": [
            {
              "internalType": "uint256",
              "name": "gameId",
              "type": "uint256"
            },
            {
              "internalType": "uint256",
              "name": "pos",
              "type": "uint256"
            },
            {
              "internalType": "uint256",
              "name": "winLine",
              "type": "uint256"
            },
            {
              "internalType": "uint256",
              "name": "winPos",
              "type": "uint256"
            }
          ],
          "name": "makeMove",
          "outputs": [],
          "stateMutability": "nonpayable",
          "type": "function"
        },
        {
          "inputs": [],
          "name": "myGame",
          "outputs": [
            {
              "components": [
                {
                  "internalType": "address",
                  "name": "playerX",
                  "type": "address"
                },
                {
                  "internalType": "address",
                  "name": "playerO",
                  "type": "address"
                },
                {
                  "internalType": "uint256",
                  "name": "X",
                  "type": "uint256"
                },
                {
                  "internalType": "uint256",
                  "name": "O",
                  "type": "uint256"
                },
                {
                  "internalType": "uint256",
                  "name": "betAmount",
                  "type": "uint256"
                },
                {
                  "internalType": "uint256",
                  "name": "winner",
                  "type": "uint256"
                },
                {
                  "internalType": "uint256",
                  "name": "move",
                  "type": "uint256"
                }
              ],
              "internalType": "struct TicTacToe.Game",
              "name": "",
              "type": "tuple"
            }
          ],
          "stateMutability": "view",
          "type": "function"
        },
        {
          "inputs": [
            {
              "internalType": "address",
              "name": "",
              "type": "address"
            },
            {
              "internalType": "uint256",
              "name": "",
              "type": "uint256"
            }
          ],
          "name": "playerRequestDraw",
          "outputs": [
            {
              "internalType": "bool",
              "name": "",
              "type": "bool"
            }
          ],
          "stateMutability": "view",
          "type": "function"
        },
        {
          "inputs": [
            {
              "internalType": "uint256",
              "name": "gameId",
              "type": "uint256"
            }
          ],
          "name": "quitGame",
          "outputs": [],
          "stateMutability": "nonpayable",
          "type": "function"
        },
        {
          "inputs": [
            {
              "internalType": "uint256",
              "name": "gameId",
              "type": "uint256"
            }
          ],
          "name": "requestDraw",
          "outputs": [],
          "stateMutability": "nonpayable",
          "type": "function"
        },
        {
          "inputs": [],
          "name": "waitingList",
          "outputs": [
            {
              "components": [
                {
                  "internalType": "address",
                  "name": "playerX",
                  "type": "address"
                },
                {
                  "internalType": "address",
                  "name": "playerO",
                  "type": "address"
                },
                {
                  "internalType": "uint256",
                  "name": "X",
                  "type": "uint256"
                },
                {
                  "internalType": "uint256",
                  "name": "O",
                  "type": "uint256"
                },
                {
                  "internalType": "uint256",
                  "name": "betAmount",
                  "type": "uint256"
                },
                {
                  "internalType": "uint256",
                  "name": "winner",
                  "type": "uint256"
                },
                {
                  "internalType": "uint256",
                  "name": "move",
                  "type": "uint256"
                }
              ],
              "internalType": "struct TicTacToe.Game[]",
              "name": "",
              "type": "tuple[]"
            }
          ],
          "stateMutability": "view",
          "type": "function"
        }
      ],
      "evm": {
        "bytecode": {
          "linkReferences": {},
          "object": "608080604052346015576115aa908161001b8239f35b600080fdfe6080604052600436101561001257600080fd5b60003560e01c8063110a8b9914610e77578063117a5b9014610df257806316f9921114610d4a5780632694998414610d2e5780634dd6c8de14610cee57806369958ab914610bcd5780637255d72914610aee57806378c7cee014610ad15780639805cc2d14610aa7578063a0ea32de14610a8b578063a2d893c514610a4b578063bdffd28214610a2f578063c1599bd914610a13578063c2ee6907146108d9578063c3887ad714610648578063c9b144a81461037e578063d49e2f51146102f6578063e6299a5a1461028e5763efaa55a0146100ed57600080fd5b60203660031901126102895760043561010581610ea5565b50546001600160a01b03161561024e5761011e81610ea5565b50600101546001600160a01b031661021a5761013981610ea5565b50546001600160a01b031633146101d557600461015582610ea5565b50015434036101905780600161016d61018493610ea5565b500180546001600160a01b03191633179055610ea5565b50600642910155600080f35b60405162461bcd60e51b815260206004820152601960248201527f42657420616d6f756e74206973206e6f7420636f7272656374000000000000006044820152606490fd5b60405162461bcd60e51b815260206004820152601c60248201527f596f752063616e2774206a6f696e20796f7572206f776e2067616d65000000006044820152606490fd5b60405162461bcd60e51b815260206004820152600c60248201526b11d85b59481a5cc8199d5b1b60a21b6044820152606490fd5b60405162461bcd60e51b815260206004820152601360248201527211d85b5948191bd95cc81b9bdd08195e1a5cdd606a1b6044820152606490fd5b600080fd5b34610289576020366003190112610289576102d06004356102ae81610ea5565b50546001600160a01b0316331480156102d2575b6102cb90611139565b6113be565b005b506102cb6102df82610ea5565b50600101546001600160a01b0316331490506102c2565b346102895760203660031901126102895760043561031381610ea5565b50546001600160a01b03163314801561035a575b61033090611139565b3360005260026020526040600020906000526020526040600020600160ff19825416179055600080f35b5061033061036782610ea5565b50600101546001600160a01b031633149050610327565b34610289576080366003190112610289576024356044356064356103c96004356103a781610ea5565b50546001600160a01b031633148015610624575b6103c490611139565b610ea5565b5091600683018054906402540be4008206956101008110156105ea576002860195865496600382019788548116956001851b8097166105af57600584019a6104128c5415611185565b801590811561059a575b50156105685768056bc75e2d6310000090046001036104d95750506001015461044f906001600160a01b03163314611385565b6402540be4008102908082046402540be40014901517156104c357680ad78ebc5ac62000000180680ad78ebc5ac6200000116104c357610490904290610f89565b905583541780935580151592836104b1575b5050506104ab57005b60029055005b6104bb9350610f96565b8280806104a2565b634e487b7160e01b600052601160045260246000fd5b9154909750909291906104f6906001600160a01b03163314611385565b6402540be4008102908082046402540be40014901517156104c35768056bc75e2d63100000018068056bc75e2d63100000116104c357610537904290610f89565b9055178093558015159283610556575b50505061055057005b60019055005b6105609350610f96565b828080610547565b60405162461bcd60e51b815260206004820152600a602482015269054696d652069732075760b41b6044820152606490fd5b9050603c81018091116104c35742108c61041c565b60405162461bcd60e51b815260206004820152601360248201527224b73b30b634b2b2103837b9b4ba34b7b7101960691b6044820152606490fd5b60405162461bcd60e51b8152602060048201526012602482015271496e76616c696420706f736974696f6e203160701b6044820152606490fd5b506103c461063182610ea5565b50600101546001600160a01b0316331490506103bb565b34610289576020366003190112610289576106df6106d960043561066b81610ea5565b50546001600160a01b0316331480156108b5575b61068890611139565b3360005260016020526040600020816000526020526106af60ff604060002054161561132e565b3360005260016020526040600020816000526020526040600020600160ff19825416179055610ea5565b506111e0565b60c0810151604082015160608301516402540be40083069268056bc75e2d6310000090049117600019146108815760a083019182511580610877575b80610864575b15610824575050600281525b8051156107ef575160018114806107dc575b156107895750608001518060011b90808204600214901517156104c357600080808093818115610780575b3390f11561077457005b6040513d6000823e3d90fd5b506108fc61076a565b600214806107c6575b61079857005b608001518060011b90808204600214901517156104c357600080808093818115610780573390f11561077457005b5060208101516001600160a01b03163314610792565b5081516001600160a01b0316331461073f565b60405162461bcd60e51b815260206004820152600d60248201526c139bc81dda5b9b995c881e595d609a1b6044820152606490fd5b8251159182610859575b5081610844575b501561072d576001815261072d565b9050603c81018091116104c357421183610835565b60021491508461082e565b50603c81018082116104c3574211610721565b506001821461071b565b60405162461bcd60e51b815260206004820152600c60248201526b47616d65206973206472617760a01b6044820152606490fd5b506106886108c282610ea5565b50600101546001600160a01b03163314905061067f565b346102895760003660031901126102895760405161016081810167ffffffffffffffff8111838210176109fd57604052600a8252601f190160005b8181106109e657826000808054915b82811061097e575b50505060405180916020820160208352815180915260206040840192019060005b81811061095a575050500390f35b91935091602060e0826109706001948851610f1b565b01940191019184939261094c565b600a82146109e15761098f81610ea5565b50600101546001600160a01b0316156109ab575b600101610923565b906109d96001916109be6106d985610ea5565b6109c8828861131a565b526109d3818761131a565b50610f6c565b9190506109a3565b61092b565b6020906109f1611237565b82828601015201610914565b634e487b7160e01b600052604160045260246000fd5b3461028957600036600319011261028957602060405160018152f35b3461028957600036600319011261028957602060405160108152f35b3461028957610a5936610ef5565b9060018060a01b03166000526002602052604060002090600052602052602060ff604060002054166040519015158152f35b3461028957600036600319011261028957602060405160028152f35b346102895760003660031901126102895760e0610ac2611270565b610acf6040518092610f1b565bf35b346102895760003660031901126102895760206040516000198152f35b600036600319011261028957610b026111c0565b338152602081019060008252604081016000815260608201600081526080830134815260a08401916000835260c085019360008552600054680100000000000000008110156109fd57806001610b5b9201600055610ea5565b979097610bb757955187546001600160a01b03199081166001600160a01b039283161789559651600189018054909816911617909555935160028601559251600385015591516004840155905160058301555160069190910155005b634e487b7160e01b600052600060045260246000fd5b3461028957602036600319011261028957600435610bea81610ea5565b50546001600160a01b031633148015610cca575b610c0790611139565b610c136106d982610ea5565b80519091906001600160a01b0316158015610cb5575b15610c8057610c3790610ea5565b919091610bb75760008080608081948260068882815582600182015582600282015582600382015582600482015582600582015501550151818115610780573390f11561077457005b60405162461bcd60e51b815260206004820152600d60248201526c10d85b9b9bdd0818d85b98d95b609a1b6044820152606490fd5b5060208201516001600160a01b031615610c29565b50610c07610cd782610ea5565b50600101546001600160a01b031633149050610bfe565b3461028957610cfc36610ef5565b9060018060a01b03166000526001602052604060002090600052602052602060ff604060002054166040519015158152f35b34610289576000366003190112610289576020604051603c8152f35b3461028957602036600319011261028957610d6a6004356103a781610ea5565b506005810190610d7b825415611185565b80546001600160a01b0316908115159081610ddb575b5015610da35733036105505760029055005b60405162461bcd60e51b815260206004820152601060248201526f11d85b59481a5cc81b9bdd08199d5b1b60821b6044820152606490fd5b600101546001600160a01b03161515905083610d91565b346102895760203660031901126102895760043560005481101561028957610e1b60e091610ea5565b50805460018201546002830154600384015460048501546005860154600690960154604080516001600160a01b039788168152959096166020860152948401929092526060830152608082015260a081019290925260c0820152f35b34610289576060366003190112610289576020610e9b604435602435600435610f96565b6040519015158152f35b600054811015610edf5760008080526007919091027f290decd9548b62a8d60345a988386fc84ba6bc95484008f6362f93160ef3e5630191565b634e487b7160e01b600052603260045260246000fd5b6040906003190112610289576004356001600160a01b0381168103610289579060243590565b60c0809160018060a01b03815116845260018060a01b03602082015116602085015260408101516040850152606081015160608501526080810151608085015260a081015160a08501520151910152565b60001981146104c35760010190565b90604082018092116104c357565b919082018092116104c357565b909161010081101561113157600092600181146110e8575b600281146110a6575b6003811461103a575b600414610fcf575b5081161490565b92906004600f851610801561102c575b6110235783925b610fef85610f7b565b60031981019081116104c3578411611018576001841b1792600f81018091116104c35792610fe6565b925090925038610fc8565b50915050600090565b50600c8460041c1015610fdf565b939190600c600f821610801590611098575b61108e5780935b61105c82610f7b565b600481018091116104c3578511611084576001851b1793601181018091116104c35793611053565b9350909193610fc0565b5050915050600090565b50600c8160041c101561104c565b939190600c8160041c101561108e5780935b6110c182610f7b565b85116110de576001851b1793601081018091116104c357936110b8565b9350909193610fb7565b929190600c600f8216101561112a5780925b600482018083116104c35784116111205761111a906001851b1793610f6c565b926110fa565b9390919250610fae565b5050905090565b505050600090565b1561114057565b60405162461bcd60e51b815260206004820152601860248201527f596f7520617265206e6f7420696e20746869732067616d6500000000000000006044820152606490fd5b1561118c57565b60405162461bcd60e51b815260206004820152600c60248201526b23b0b6b29034b99037bb32b960a11b6044820152606490fd5b6040519060e0820182811067ffffffffffffffff8211176109fd57604052565b9060066111eb6111c0565b83546001600160a01b0390811682526001850154166020820152600284015460408201526003840154606082015260048401546080820152600584015460a082015292015460c0830152565b61123f6111c0565b906000825260006020830152600060408301526000606083015260006080830152600060a0830152600060c0830152565b611278611237565b5060008054905b8181106112c15750506112906111c0565b6000815260006020820152600060408201526000606082015260006080820152600060a0820152600060c082015290565b6112ca81610ea5565b50546001600160a01b0316331480156112fb575b6112ea5760010161127f565b6112f891506106d990610ea5565b90565b5061130581610ea5565b50600101546001600160a01b031633146112de565b8051821015610edf5760209160051b010190565b1561133557565b60405162461bcd60e51b815260206004820152602260248201527f596f75206861766520616c726561647920636c61696d656420746869732067616044820152616d6560f01b6064820152608490fd5b1561138c57565b60405162461bcd60e51b815260206004820152600a6024820152692bb937b733903a3ab93760b11b6044820152606490fd5b3360005260016020526040600020816000526020526113e560ff604060002054161561132e565b3360005260016020526040600020816000526020526040600020600160ff198254161790556114166106d982610ea5565b9060c0820168056bc75e2d631000006402540be4008251069151041590811561155f575b506115145760a0820151611530576040820151606083015117600019146115145760018060a01b03825116600052600260205260406000208160005260205260ff6040600020541690816114e2575b506114bd5760405162461bcd60e51b81526020600482015260076024820152664e6f204472617760c81b6044820152606490fd5b600080806080819401518181156114d9575b3390f11561077457565b506108fc6114cf565b905060018060a01b03602083015116600052600260205260406000209060005260205260ff6040600020541638611489565b50600080806080819401518181156114d9573390f11561077457565b60405162461bcd60e51b81526020600482015260076024820152664e6f204472617760c81b6044820152606490fd5b9050603c81018091116104c35742103861143a56fea264697066735822122053910d78cd6624c1e30a5416f92f605f7121b45f8d7ab18c920a42da07e0587e64736f6c634300081c0033",
          "opcodes": "PUSH1 0x80 DUP1 PUSH1 0x40 MSTORE CALLVALUE PUSH1 0x15 JUMPI PUSH2 0x15AA SWAP1 DUP2 PUSH2 0x1B DUP3 CODECOPY RETURN JUMPDEST PUSH1 0x0 DUP1 REVERT INVALID PUSH1 0x80 PUSH1 0x40 MSTORE PUSH1 0x4 CALLDATASIZE LT ISZERO PUSH2 0x12 JUMPI PUSH1 0x0 DUP1 REVERT JUMPDEST PUSH1 0x0 CALLDATALOAD PUSH1 0xE0 SHR DUP1 PUSH4 0x110A8B99 EQ PUSH2 0xE77 JUMPI DUP1 PUSH4 0x117A5B90 EQ PUSH2 0xDF2 JUMPI DUP1 PUSH4 0x16F99211 EQ PUSH2 0xD4A JUMPI DUP1 PUSH4 0x26949984 EQ PUSH2 0xD2E JUMPI DUP1 PUSH4 0x4DD6C8DE EQ PUSH2 0xCEE JUMPI DUP1 PUSH4 0x69958AB9 EQ PUSH2 0xBCD JUMPI DUP1 PUSH4 0x7255D729 EQ PUSH2 0xAEE JUMPI DUP1 PUSH4 0x78C7CEE0 EQ PUSH2 0xAD1 JUMPI DUP1 PUSH4 0x9805CC2D EQ PUSH2 0xAA7 JUMPI DUP1 PUSH4 0xA0EA32DE EQ PUSH2 0xA8B JUMPI DUP1 PUSH4 0xA2D893C5 EQ PUSH2 0xA4B JUMPI DUP1 PUSH4 0xBDFFD282 EQ PUSH2 0xA2F JUMPI DUP1 PUSH4 0xC1599BD9 EQ PUSH2 0xA13 JUMPI DUP1 PUSH4 0xC2EE6907 EQ PUSH2 0x8D9 JUMPI DUP1 PUSH4 0xC3887AD7 EQ PUSH2 0x648 JUMPI DUP1 PUSH4 0xC9B144A8 EQ PUSH2 0x37E JUMPI DUP1 PUSH4 0xD49E2F51 EQ PUSH2 0x2F6 JUMPI DUP1 PUSH4 0xE6299A5A EQ PUSH2 0x28E JUMPI PUSH4 0xEFAA55A0 EQ PUSH2 0xED JUMPI PUSH1 0x0 DUP1 REVERT JUMPDEST PUSH1 0x20 CALLDATASIZE PUSH1 0x3 NOT ADD SLT PUSH2 0x289 JUMPI PUSH1 0x4 CALLDATALOAD PUSH2 0x105 DUP2 PUSH2 0xEA5 JUMP JUMPDEST POP SLOAD PUSH1 0x1 PUSH1 0x1 PUSH1 0xA0 SHL SUB AND ISZERO PUSH2 0x24E JUMPI PUSH2 0x11E DUP2 PUSH2 0xEA5 JUMP JUMPDEST POP PUSH1 0x1 ADD SLOAD PUSH1 0x1 PUSH1 0x1 PUSH1 0xA0 SHL SUB AND PUSH2 0x21A JUMPI PUSH2 0x139 DUP2 PUSH2 0xEA5 JUMP JUMPDEST POP SLOAD PUSH1 0x1 PUSH1 0x1 PUSH1 0xA0 SHL SUB AND CALLER EQ PUSH2 0x1D5 JUMPI PUSH1 0x4 PUSH2 0x155 DUP3 PUSH2 0xEA5 JUMP JUMPDEST POP ADD SLOAD CALLVALUE SUB PUSH2 0x190 JUMPI DUP1 PUSH1 0x1 PUSH2 0x16D PUSH2 0x184 SWAP4 PUSH2 0xEA5 JUMP JUMPDEST POP ADD DUP1 SLOAD PUSH1 0x1 PUSH1 0x1 PUSH1 0xA0 SHL SUB NOT AND CALLER OR SWAP1 SSTORE PUSH2 0xEA5 JUMP JUMPDEST POP PUSH1 0x6 TIMESTAMP SWAP2 ADD SSTORE PUSH1 0x0 DUP1 RETURN JUMPDEST PUSH1 0x40 MLOAD PUSH3 0x461BCD PUSH1 0xE5 SHL DUP2 MSTORE PUSH1 0x20 PUSH1 0x4 DUP3 ADD MSTORE PUSH1 0x19 PUSH1 0x24 DUP3 ADD MSTORE PUSH32 0x42657420616D6F756E74206973206E6F7420636F727265637400000000000000 PUSH1 0x44 DUP3 ADD MSTORE PUSH1 0x64 SWAP1 REVERT JUMPDEST PUSH1 0x40 MLOAD PUSH3 0x461BCD PUSH1 0xE5 SHL DUP2 MSTORE PUSH1 0x20 PUSH1 0x4 DUP3 ADD MSTORE PUSH1 0x1C PUSH1 0x24 DUP3 ADD MSTORE PUSH32 0x596F752063616E2774206A6F696E20796F7572206F776E2067616D6500000000 PUSH1 0x44 DUP3 ADD MSTORE PUSH1 0x64 SWAP1 REVERT JUMPDEST PUSH1 0x40 MLOAD PUSH3 0x461BCD PUSH1 0xE5 SHL DUP2 MSTORE PUSH1 0x20 PUSH1 0x4 DUP3 ADD MSTORE PUSH1 0xC PUSH1 0x24 DUP3 ADD MSTORE PUSH12 0x11D85B59481A5CC8199D5B1B PUSH1 0xA2 SHL PUSH1 0x44 DUP3 ADD MSTORE PUSH1 0x64 SWAP1 REVERT JUMPDEST PUSH1 0x40 MLOAD PUSH3 0x461BCD PUSH1 0xE5 SHL DUP2 MSTORE PUSH1 0x20 PUSH1 0x4 DUP3 ADD MSTORE PUSH1 0x13 PUSH1 0x24 DUP3 ADD MSTORE PUSH19 0x11D85B5948191BD95CC81B9BDD08195E1A5CDD PUSH1 0x6A SHL PUSH1 0x44 DUP3 ADD MSTORE PUSH1 0x64 SWAP1 REVERT JUMPDEST PUSH1 0x0 DUP1 REVERT JUMPDEST CALLVALUE PUSH2 0x289 JUMPI PUSH1 0x20 CALLDATASIZE PUSH1 0x3 NOT ADD SLT PUSH2 0x289 JUMPI PUSH2 0x2D0 PUSH1 0x4 CALLDATALOAD PUSH2 0x2AE DUP2 PUSH2 0xEA5 JUMP JUMPDEST POP SLOAD PUSH1 0x1 PUSH1 0x1 PUSH1 0xA0 SHL SUB AND CALLER EQ DUP1 ISZERO PUSH2 0x2D2 JUMPI JUMPDEST PUSH2 0x2CB SWAP1 PUSH2 0x1139 JUMP JUMPDEST PUSH2 0x13BE JUMP JUMPDEST STOP JUMPDEST POP PUSH2 0x2CB PUSH2 0x2DF DUP3 PUSH2 0xEA5 JUMP JUMPDEST POP PUSH1 0x1 ADD SLOAD PUSH1 0x1 PUSH1 0x1 PUSH1 0xA0 SHL SUB AND CALLER EQ SWAP1 POP PUSH2 0x2C2 JUMP JUMPDEST CALLVALUE PUSH2 0x289 JUMPI PUSH1 0x20 CALLDATASIZE PUSH1 0x3 NOT ADD SLT PUSH2 0x289 JUMPI PUSH1 0x4 CALLDATALOAD PUSH2 0x313 DUP2 PUSH2 0xEA5 JUMP JUMPDEST POP SLOAD PUSH1 0x1 PUSH1 0x1 PUSH1 0xA0 SHL SUB AND CALLER EQ DUP1 ISZERO PUSH2 0x35A JUMPI JUMPDEST PUSH2 0x330 SWAP1 PUSH2 0x1139 JUMP JUMPDEST CALLER PUSH1 0x0 MSTORE PUSH1 0x2 PUSH1 0x20 MSTORE PUSH1 0x40 PUSH1 0x0 KECCAK256 SWAP1 PUSH1 0x0 MSTORE PUSH1 0x20 MSTORE PUSH1 0x40 PUSH1 0x0 KECCAK256 PUSH1 0x1 PUSH1 0xFF NOT DUP3 SLOAD AND OR SWAP1 SSTORE PUSH1 0x0 DUP1 RETURN JUMPDEST POP PUSH2 0x330 PUSH2 0x367 DUP3 PUSH2 0xEA5 JUMP JUMPDEST POP PUSH1 0x1 ADD SLOAD PUSH1 0x1 PUSH1 0x1 PUSH1 0xA0 SHL SUB AND CALLER EQ SWAP1 POP PUSH2 0x327 JUMP JUMPDEST CALLVALUE PUSH2 0x289 JUMPI PUSH1 0x80 CALLDATASIZE PUSH1 0x3 NOT ADD SLT PUSH2 0x289 JUMPI PUSH1 0x24 CALLDATALOAD PUSH1 0x44 CALLDATALOAD PUSH1 0x64 CALLDATALOAD PUSH2 0x3C9 PUSH1 0x4 CALLDATALOAD PUSH2 0x3A7 DUP2 PUSH2 0xEA5 JUMP JUMPDEST POP SLOAD PUSH1 0x1 PUSH1 0x1 PUSH1 0xA0 SHL SUB AND CALLER EQ DUP1 ISZERO PUSH2 0x624 JUMPI JUMPDEST PUSH2 0x3C4 SWAP1 PUSH2 0x1139 JUMP JUMPDEST PUSH2 0xEA5 JUMP JUMPDEST POP SWAP2 PUSH1 0x6 DUP4 ADD DUP1 SLOAD SWAP1 PUSH5 0x2540BE400 DUP3 MOD SWAP6 PUSH2 0x100 DUP2 LT ISZERO PUSH2 0x5EA JUMPI PUSH1 0x2 DUP7 ADD SWAP6 DUP7 SLOAD SWAP7 PUSH1 0x3 DUP3 ADD SWAP8 DUP9 SLOAD DUP2 AND SWAP6 PUSH1 0x1 DUP6 SHL DUP1 SWAP8 AND PUSH2 0x5AF JUMPI PUSH1 0x5 DUP5 ADD SWAP11 PUSH2 0x412 DUP13 SLOAD ISZERO PUSH2 0x1185 JUMP JUMPDEST DUP1 ISZERO SWAP1 DUP2 ISZERO PUSH2 0x59A JUMPI JUMPDEST POP ISZERO PUSH2 0x568 JUMPI PUSH9 0x56BC75E2D63100000 SWAP1 DIV PUSH1 0x1 SUB PUSH2 0x4D9 JUMPI POP POP PUSH1 0x1 ADD SLOAD PUSH2 0x44F SWAP1 PUSH1 0x1 PUSH1 0x1 PUSH1 0xA0 SHL SUB AND CALLER EQ PUSH2 0x1385 JUMP JUMPDEST PUSH5 0x2540BE400 DUP2 MUL SWAP1 DUP1 DUP3 DIV PUSH5 0x2540BE400 EQ SWAP1 ISZERO OR ISZERO PUSH2 0x4C3 JUMPI PUSH9 0xAD78EBC5AC6200000 ADD DUP1 PUSH9 0xAD78EBC5AC6200000 GT PUSH2 0x4C3 JUMPI PUSH2 0x490 SWAP1 TIMESTAMP SWAP1 PUSH2 0xF89 JUMP JUMPDEST SWAP1 SSTORE DUP4 SLOAD OR DUP1 SWAP4 SSTORE DUP1 ISZERO ISZERO SWAP3 DUP4 PUSH2 0x4B1 JUMPI JUMPDEST POP POP POP PUSH2 0x4AB JUMPI STOP JUMPDEST PUSH1 0x2 SWAP1 SSTORE STOP JUMPDEST PUSH2 0x4BB SWAP4 POP PUSH2 0xF96 JUMP JUMPDEST DUP3 DUP1 DUP1 PUSH2 0x4A2 JUMP JUMPDEST PUSH4 0x4E487B71 PUSH1 0xE0 SHL PUSH1 0x0 MSTORE PUSH1 0x11 PUSH1 0x4 MSTORE PUSH1 0x24 PUSH1 0x0 REVERT JUMPDEST SWAP2 SLOAD SWAP1 SWAP8 POP SWAP1 SWAP3 SWAP2 SWAP1 PUSH2 0x4F6 SWAP1 PUSH1 0x1 PUSH1 0x1 PUSH1 0xA0 SHL SUB AND CALLER EQ PUSH2 0x1385 JUMP JUMPDEST PUSH5 0x2540BE400 DUP2 MUL SWAP1 DUP1 DUP3 DIV PUSH5 0x2540BE400 EQ SWAP1 ISZERO OR ISZERO PUSH2 0x4C3 JUMPI PUSH9 0x56BC75E2D63100000 ADD DUP1 PUSH9 0x56BC75E2D63100000 GT PUSH2 0x4C3 JUMPI PUSH2 0x537 SWAP1 TIMESTAMP SWAP1 PUSH2 0xF89 JUMP JUMPDEST SWAP1 SSTORE OR DUP1 SWAP4 SSTORE DUP1 ISZERO ISZERO SWAP3 DUP4 PUSH2 0x556 JUMPI JUMPDEST POP POP POP PUSH2 0x550 JUMPI STOP JUMPDEST PUSH1 0x1 SWAP1 SSTORE STOP JUMPDEST PUSH2 0x560 SWAP4 POP PUSH2 0xF96 JUMP JUMPDEST DUP3 DUP1 DUP1 PUSH2 0x547 JUMP JUMPDEST PUSH1 0x40 MLOAD PUSH3 0x461BCD PUSH1 0xE5 SHL DUP2 MSTORE PUSH1 0x20 PUSH1 0x4 DUP3 ADD MSTORE PUSH1 0xA PUSH1 0x24 DUP3 ADD MSTORE PUSH10 0x54696D6520697320757 PUSH1 0xB4 SHL PUSH1 0x44 DUP3 ADD MSTORE PUSH1 0x64 SWAP1 REVERT JUMPDEST SWAP1 POP PUSH1 0x3C DUP2 ADD DUP1 SWAP2 GT PUSH2 0x4C3 JUMPI TIMESTAMP LT DUP13 PUSH2 0x41C JUMP JUMPDEST PUSH1 0x40 MLOAD PUSH3 0x461BCD PUSH1 0xE5 SHL DUP2 MSTORE PUSH1 0x20 PUSH1 0x4 DUP3 ADD MSTORE PUSH1 0x13 PUSH1 0x24 DUP3 ADD MSTORE PUSH19 0x24B73B30B634B2B2103837B9B4BA34B7B71019 PUSH1 0x69 SHL PUSH1 0x44 DUP3 ADD MSTORE PUSH1 0x64 SWAP1 REVERT JUMPDEST PUSH1 0x40 MLOAD PUSH3 0x461BCD PUSH1 0xE5 SHL DUP2 MSTORE PUSH1 0x20 PUSH1 0x4 DUP3 ADD MSTORE PUSH1 0x12 PUSH1 0x24 DUP3 ADD MSTORE PUSH18 0x496E76616C696420706F736974696F6E2031 PUSH1 0x70 SHL PUSH1 0x44 DUP3 ADD MSTORE PUSH1 0x64 SWAP1 REVERT JUMPDEST POP PUSH2 0x3C4 PUSH2 0x631 DUP3 PUSH2 0xEA5 JUMP JUMPDEST POP PUSH1 0x1 ADD SLOAD PUSH1 0x1 PUSH1 0x1 PUSH1 0xA0 SHL SUB AND CALLER EQ SWAP1 POP PUSH2 0x3BB JUMP JUMPDEST CALLVALUE PUSH2 0x289 JUMPI PUSH1 0x20 CALLDATASIZE PUSH1 0x3 NOT ADD SLT PUSH2 0x289 JUMPI PUSH2 0x6DF PUSH2 0x6D9 PUSH1 0x4 CALLDATALOAD PUSH2 0x66B DUP2 PUSH2 0xEA5 JUMP JUMPDEST POP SLOAD PUSH1 0x1 PUSH1 0x1 PUSH1 0xA0 SHL SUB AND CALLER EQ DUP1 ISZERO PUSH2 0x8B5 JUMPI JUMPDEST PUSH2 0x688 SWAP1 PUSH2 0x1139 JUMP JUMPDEST CALLER PUSH1 0x0 MSTORE PUSH1 0x1 PUSH1 0x20 MSTORE PUSH1 0x40 PUSH1 0x0 KECCAK256 DUP2 PUSH1 0x0 MSTORE PUSH1 0x20 MSTORE PUSH2 0x6AF PUSH1 0xFF PUSH1 0x40 PUSH1 0x0 KECCAK256 SLOAD AND ISZERO PUSH2 0x132E JUMP JUMPDEST CALLER PUSH1 0x0 MSTORE PUSH1 0x1 PUSH1 0x20 MSTORE PUSH1 0x40 PUSH1 0x0 KECCAK256 DUP2 PUSH1 0x0 MSTORE PUSH1 0x20 MSTORE PUSH1 0x40 PUSH1 0x0 KECCAK256 PUSH1 0x1 PUSH1 0xFF NOT DUP3 SLOAD AND OR SWAP1 SSTORE PUSH2 0xEA5 JUMP JUMPDEST POP PUSH2 0x11E0 JUMP JUMPDEST PUSH1 0xC0 DUP2 ADD MLOAD PUSH1 0x40 DUP3 ADD MLOAD PUSH1 0x60 DUP4 ADD MLOAD PUSH5 0x2540BE400 DUP4 MOD SWAP3 PUSH9 0x56BC75E2D63100000 SWAP1 DIV SWAP2 OR PUSH1 0x0 NOT EQ PUSH2 0x881 JUMPI PUSH1 0xA0 DUP4 ADD SWAP2 DUP3 MLOAD ISZERO DUP1 PUSH2 0x877 JUMPI JUMPDEST DUP1 PUSH2 0x864 JUMPI JUMPDEST ISZERO PUSH2 0x824 JUMPI POP POP PUSH1 0x2 DUP2 MSTORE JUMPDEST DUP1 MLOAD ISZERO PUSH2 0x7EF JUMPI MLOAD PUSH1 0x1 DUP2 EQ DUP1 PUSH2 0x7DC JUMPI JUMPDEST ISZERO PUSH2 0x789 JUMPI POP PUSH1 0x80 ADD MLOAD DUP1 PUSH1 0x1 SHL SWAP1 DUP1 DUP3 DIV PUSH1 0x2 EQ SWAP1 ISZERO OR ISZERO PUSH2 0x4C3 JUMPI PUSH1 0x0 DUP1 DUP1 DUP1 SWAP4 DUP2 DUP2 ISZERO PUSH2 0x780 JUMPI JUMPDEST CALLER SWAP1 CALL ISZERO PUSH2 0x774 JUMPI STOP JUMPDEST PUSH1 0x40 MLOAD RETURNDATASIZE PUSH1 0x0 DUP3 RETURNDATACOPY RETURNDATASIZE SWAP1 REVERT JUMPDEST POP PUSH2 0x8FC PUSH2 0x76A JUMP JUMPDEST PUSH1 0x2 EQ DUP1 PUSH2 0x7C6 JUMPI JUMPDEST PUSH2 0x798 JUMPI STOP JUMPDEST PUSH1 0x80 ADD MLOAD DUP1 PUSH1 0x1 SHL SWAP1 DUP1 DUP3 DIV PUSH1 0x2 EQ SWAP1 ISZERO OR ISZERO PUSH2 0x4C3 JUMPI PUSH1 0x0 DUP1 DUP1 DUP1 SWAP4 DUP2 DUP2 ISZERO PUSH2 0x780 JUMPI CALLER SWAP1 CALL ISZERO PUSH2 0x774 JUMPI STOP JUMPDEST POP PUSH1 0x20 DUP2 ADD MLOAD PUSH1 0x1 PUSH1 0x1 PUSH1 0xA0 SHL SUB AND CALLER EQ PUSH2 0x792 JUMP JUMPDEST POP DUP2 MLOAD PUSH1 0x1 PUSH1 0x1 PUSH1 0xA0 SHL SUB AND CALLER EQ PUSH2 0x73F JUMP JUMPDEST PUSH1 0x40 MLOAD PUSH3 0x461BCD PUSH1 0xE5 SHL DUP2 MSTORE PUSH1 0x20 PUSH1 0x4 DUP3 ADD MSTORE PUSH1 0xD PUSH1 0x24 DUP3 ADD MSTORE PUSH13 0x139BC81DDA5B9B995C881E595D PUSH1 0x9A SHL PUSH1 0x44 DUP3 ADD MSTORE PUSH1 0x64 SWAP1 REVERT JUMPDEST DUP3 MLOAD ISZERO SWAP2 DUP3 PUSH2 0x859 JUMPI JUMPDEST POP DUP2 PUSH2 0x844 JUMPI JUMPDEST POP ISZERO PUSH2 0x72D JUMPI PUSH1 0x1 DUP2 MSTORE PUSH2 0x72D JUMP JUMPDEST SWAP1 POP PUSH1 0x3C DUP2 ADD DUP1 SWAP2 GT PUSH2 0x4C3 JUMPI TIMESTAMP GT DUP4 PUSH2 0x835 JUMP JUMPDEST PUSH1 0x2 EQ SWAP2 POP DUP5 PUSH2 0x82E JUMP JUMPDEST POP PUSH1 0x3C DUP2 ADD DUP1 DUP3 GT PUSH2 0x4C3 JUMPI TIMESTAMP GT PUSH2 0x721 JUMP JUMPDEST POP PUSH1 0x1 DUP3 EQ PUSH2 0x71B JUMP JUMPDEST PUSH1 0x40 MLOAD PUSH3 0x461BCD PUSH1 0xE5 SHL DUP2 MSTORE PUSH1 0x20 PUSH1 0x4 DUP3 ADD MSTORE PUSH1 0xC PUSH1 0x24 DUP3 ADD MSTORE PUSH12 0x47616D652069732064726177 PUSH1 0xA0 SHL PUSH1 0x44 DUP3 ADD MSTORE PUSH1 0x64 SWAP1 REVERT JUMPDEST POP PUSH2 0x688 PUSH2 0x8C2 DUP3 PUSH2 0xEA5 JUMP JUMPDEST POP PUSH1 0x1 ADD SLOAD PUSH1 0x1 PUSH1 0x1 PUSH1 0xA0 SHL SUB AND CALLER EQ SWAP1 POP PUSH2 0x67F JUMP JUMPDEST CALLVALUE PUSH2 0x289 JUMPI PUSH1 0x0 CALLDATASIZE PUSH1 0x3 NOT ADD SLT PUSH2 0x289 JUMPI PUSH1 0x40 MLOAD PUSH2 0x160 DUP2 DUP2 ADD PUSH8 0xFFFFFFFFFFFFFFFF DUP2 GT DUP4 DUP3 LT OR PUSH2 0x9FD JUMPI PUSH1 0x40 MSTORE PUSH1 0xA DUP3 MSTORE PUSH1 0x1F NOT ADD PUSH1 0x0 JUMPDEST DUP2 DUP2 LT PUSH2 0x9E6 JUMPI DUP3 PUSH1 0x0 DUP1 DUP1 SLOAD SWAP2 JUMPDEST DUP3 DUP2 LT PUSH2 0x97E JUMPI JUMPDEST POP POP POP PUSH1 0x40 MLOAD DUP1 SWAP2 PUSH1 0x20 DUP3 ADD PUSH1 0x20 DUP4 MSTORE DUP2 MLOAD DUP1 SWAP2 MSTORE PUSH1 0x20 PUSH1 0x40 DUP5 ADD SWAP3 ADD SWAP1 PUSH1 0x0 JUMPDEST DUP2 DUP2 LT PUSH2 0x95A JUMPI POP POP POP SUB SWAP1 RETURN JUMPDEST SWAP2 SWAP4 POP SWAP2 PUSH1 0x20 PUSH1 0xE0 DUP3 PUSH2 0x970 PUSH1 0x1 SWAP5 DUP9 MLOAD PUSH2 0xF1B JUMP JUMPDEST ADD SWAP5 ADD SWAP2 ADD SWAP2 DUP5 SWAP4 SWAP3 PUSH2 0x94C JUMP JUMPDEST PUSH1 0xA DUP3 EQ PUSH2 0x9E1 JUMPI PUSH2 0x98F DUP2 PUSH2 0xEA5 JUMP JUMPDEST POP PUSH1 0x1 ADD SLOAD PUSH1 0x1 PUSH1 0x1 PUSH1 0xA0 SHL SUB AND ISZERO PUSH2 0x9AB JUMPI JUMPDEST PUSH1 0x1 ADD PUSH2 0x923 JUMP JUMPDEST SWAP1 PUSH2 0x9D9 PUSH1 0x1 SWAP2 PUSH2 0x9BE PUSH2 0x6D9 DUP6 PUSH2 0xEA5 JUMP JUMPDEST PUSH2 0x9C8 DUP3 DUP9 PUSH2 0x131A JUMP JUMPDEST MSTORE PUSH2 0x9D3 DUP2 DUP8 PUSH2 0x131A JUMP JUMPDEST POP PUSH2 0xF6C JUMP JUMPDEST SWAP2 SWAP1 POP PUSH2 0x9A3 JUMP JUMPDEST PUSH2 0x92B JUMP JUMPDEST PUSH1 0x20 SWAP1 PUSH2 0x9F1 PUSH2 0x1237 JUMP JUMPDEST DUP3 DUP3 DUP7 ADD ADD MSTORE ADD PUSH2 0x914 JUMP JUMPDEST PUSH4 0x4E487B71 PUSH1 0xE0 SHL PUSH1 0x0 MSTORE PUSH1 0x41 PUSH1 0x4 MSTORE PUSH1 0x24 PUSH1 0x0 REVERT JUMPDEST CALLVALUE PUSH2 0x289 JUMPI PUSH1 0x0 CALLDATASIZE PUSH1 0x3 NOT ADD SLT PUSH2 0x289 JUMPI PUSH1 0x20 PUSH1 0x40 MLOAD PUSH1 0x1 DUP2 MSTORE RETURN JUMPDEST CALLVALUE PUSH2 0x289 JUMPI PUSH1 0x0 CALLDATASIZE PUSH1 0x3 NOT ADD SLT PUSH2 0x289 JUMPI PUSH1 0x20 PUSH1 0x40 MLOAD PUSH1 0x10 DUP2 MSTORE RETURN JUMPDEST CALLVALUE PUSH2 0x289 JUMPI PUSH2 0xA59 CALLDATASIZE PUSH2 0xEF5 JUMP JUMPDEST SWAP1 PUSH1 0x1 DUP1 PUSH1 0xA0 SHL SUB AND PUSH1 0x0 MSTORE PUSH1 0x2 PUSH1 0x20 MSTORE PUSH1 0x40 PUSH1 0x0 KECCAK256 SWAP1 PUSH1 0x0 MSTORE PUSH1 0x20 MSTORE PUSH1 0x20 PUSH1 0xFF PUSH1 0x40 PUSH1 0x0 KECCAK256 SLOAD AND PUSH1 0x40 MLOAD SWAP1 ISZERO ISZERO DUP2 MSTORE RETURN JUMPDEST CALLVALUE PUSH2 0x289 JUMPI PUSH1 0x0 CALLDATASIZE PUSH1 0x3 NOT ADD SLT PUSH2 0x289 JUMPI PUSH1 0x20 PUSH1 0x40 MLOAD PUSH1 0x2 DUP2 MSTORE RETURN JUMPDEST CALLVALUE PUSH2 0x289 JUMPI PUSH1 0x0 CALLDATASIZE PUSH1 0x3 NOT ADD SLT PUSH2 0x289 JUMPI PUSH1 0xE0 PUSH2 0xAC2 PUSH2 0x1270 JUMP JUMPDEST PUSH2 0xACF PUSH1 0x40 MLOAD DUP1 SWAP3 PUSH2 0xF1B JUMP JUMPDEST RETURN JUMPDEST CALLVALUE PUSH2 0x289 JUMPI PUSH1 0x0 CALLDATASIZE PUSH1 0x3 NOT ADD SLT PUSH2 0x289 JUMPI PUSH1 0x20 PUSH1 0x40 MLOAD PUSH1 0x0 NOT DUP2 MSTORE RETURN JUMPDEST PUSH1 0x0 CALLDATASIZE PUSH1 0x3 NOT ADD SLT PUSH2 0x289 JUMPI PUSH2 0xB02 PUSH2 0x11C0 JUMP JUMPDEST CALLER DUP2 MSTORE PUSH1 0x20 DUP2 ADD SWAP1 PUSH1 0x0 DUP3 MSTORE PUSH1 0x40 DUP2 ADD PUSH1 0x0 DUP2 MSTORE PUSH1 0x60 DUP3 ADD PUSH1 0x0 DUP2 MSTORE PUSH1 0x80 DUP4 ADD CALLVALUE DUP2 MSTORE PUSH1 0xA0 DUP5 ADD SWAP2 PUSH1 0x0 DUP4 MSTORE PUSH1 0xC0 DUP6 ADD SWAP4 PUSH1 0x0 DUP6 MSTORE PUSH1 0x0 SLOAD PUSH9 0x10000000000000000 DUP2 LT ISZERO PUSH2 0x9FD JUMPI DUP1 PUSH1 0x1 PUSH2 0xB5B SWAP3 ADD PUSH1 0x0 SSTORE PUSH2 0xEA5 JUMP JUMPDEST SWAP8 SWAP1 SWAP8 PUSH2 0xBB7 JUMPI SWAP6 MLOAD DUP8 SLOAD PUSH1 0x1 PUSH1 0x1 PUSH1 0xA0 SHL SUB NOT SWAP1 DUP2 AND PUSH1 0x1 PUSH1 0x1 PUSH1 0xA0 SHL SUB SWAP3 DUP4 AND OR DUP10 SSTORE SWAP7 MLOAD PUSH1 0x1 DUP10 ADD DUP1 SLOAD SWAP1 SWAP9 AND SWAP2 AND OR SWAP1 SWAP6 SSTORE SWAP4 MLOAD PUSH1 0x2 DUP7 ADD SSTORE SWAP3 MLOAD PUSH1 0x3 DUP6 ADD SSTORE SWAP2 MLOAD PUSH1 0x4 DUP5 ADD SSTORE SWAP1 MLOAD PUSH1 0x5 DUP4 ADD SSTORE MLOAD PUSH1 0x6 SWAP2 SWAP1 SWAP2 ADD SSTORE STOP JUMPDEST PUSH4 0x4E487B71 PUSH1 0xE0 SHL PUSH1 0x0 MSTORE PUSH1 0x0 PUSH1 0x4 MSTORE PUSH1 0x24 PUSH1 0x0 REVERT JUMPDEST CALLVALUE PUSH2 0x289 JUMPI PUSH1 0x20 CALLDATASIZE PUSH1 0x3 NOT ADD SLT PUSH2 0x289 JUMPI PUSH1 0x4 CALLDATALOAD PUSH2 0xBEA DUP2 PUSH2 0xEA5 JUMP JUMPDEST POP SLOAD PUSH1 0x1 PUSH1 0x1 PUSH1 0xA0 SHL SUB AND CALLER EQ DUP1 ISZERO PUSH2 0xCCA JUMPI JUMPDEST PUSH2 0xC07 SWAP1 PUSH2 0x1139 JUMP JUMPDEST PUSH2 0xC13 PUSH2 0x6D9 DUP3 PUSH2 0xEA5 JUMP JUMPDEST DUP1 MLOAD SWAP1 SWAP2 SWAP1 PUSH1 0x1 PUSH1 0x1 PUSH1 0xA0 SHL SUB AND ISZERO DUP1 ISZERO PUSH2 0xCB5 JUMPI JUMPDEST ISZERO PUSH2 0xC80 JUMPI PUSH2 0xC37 SWAP1 PUSH2 0xEA5 JUMP JUMPDEST SWAP2 SWAP1 SWAP2 PUSH2 0xBB7 JUMPI PUSH1 0x0 DUP1 DUP1 PUSH1 0x80 DUP2 SWAP5 DUP3 PUSH1 0x6 DUP9 DUP3 DUP2 SSTORE DUP3 PUSH1 0x1 DUP3 ADD SSTORE DUP3 PUSH1 0x2 DUP3 ADD SSTORE DUP3 PUSH1 0x3 DUP3 ADD SSTORE DUP3 PUSH1 0x4 DUP3 ADD SSTORE DUP3 PUSH1 0x5 DUP3 ADD SSTORE ADD SSTORE ADD MLOAD DUP2 DUP2 ISZERO PUSH2 0x780 JUMPI CALLER SWAP1 CALL ISZERO PUSH2 0x774 JUMPI STOP JUMPDEST PUSH1 0x40 MLOAD PUSH3 0x461BCD PUSH1 0xE5 SHL DUP2 MSTORE PUSH1 0x20 PUSH1 0x4 DUP3 ADD MSTORE PUSH1 0xD PUSH1 0x24 DUP3 ADD MSTORE PUSH13 0x10D85B9B9BDD0818D85B98D95B PUSH1 0x9A SHL PUSH1 0x44 DUP3 ADD MSTORE PUSH1 0x64 SWAP1 REVERT JUMPDEST POP PUSH1 0x20 DUP3 ADD MLOAD PUSH1 0x1 PUSH1 0x1 PUSH1 0xA0 SHL SUB AND ISZERO PUSH2 0xC29 JUMP JUMPDEST POP PUSH2 0xC07 PUSH2 0xCD7 DUP3 PUSH2 0xEA5 JUMP JUMPDEST POP PUSH1 0x1 ADD SLOAD PUSH1 0x1 PUSH1 0x1 PUSH1 0xA0 SHL SUB AND CALLER EQ SWAP1 POP PUSH2 0xBFE JUMP JUMPDEST CALLVALUE PUSH2 0x289 JUMPI PUSH2 0xCFC CALLDATASIZE PUSH2 0xEF5 JUMP JUMPDEST SWAP1 PUSH1 0x1 DUP1 PUSH1 0xA0 SHL SUB AND PUSH1 0x0 MSTORE PUSH1 0x1 PUSH1 0x20 MSTORE PUSH1 0x40 PUSH1 0x0 KECCAK256 SWAP1 PUSH1 0x0 MSTORE PUSH1 0x20 MSTORE PUSH1 0x20 PUSH1 0xFF PUSH1 0x40 PUSH1 0x0 KECCAK256 SLOAD AND PUSH1 0x40 MLOAD SWAP1 ISZERO ISZERO DUP2 MSTORE RETURN JUMPDEST CALLVALUE PUSH2 0x289 JUMPI PUSH1 0x0 CALLDATASIZE PUSH1 0x3 NOT ADD SLT PUSH2 0x289 JUMPI PUSH1 0x20 PUSH1 0x40 MLOAD PUSH1 0x3C DUP2 MSTORE RETURN JUMPDEST CALLVALUE PUSH2 0x289 JUMPI PUSH1 0x20 CALLDATASIZE PUSH1 0x3 NOT ADD SLT PUSH2 0x289 JUMPI PUSH2 0xD6A PUSH1 0x4 CALLDATALOAD PUSH2 0x3A7 DUP2 PUSH2 0xEA5 JUMP JUMPDEST POP PUSH1 0x5 DUP2 ADD SWAP1 PUSH2 0xD7B DUP3 SLOAD ISZERO PUSH2 0x1185 JUMP JUMPDEST DUP1 SLOAD PUSH1 0x1 PUSH1 0x1 PUSH1 0xA0 SHL SUB AND SWAP1 DUP2 ISZERO ISZERO SWAP1 DUP2 PUSH2 0xDDB JUMPI JUMPDEST POP ISZERO PUSH2 0xDA3 JUMPI CALLER SUB PUSH2 0x550 JUMPI PUSH1 0x2 SWAP1 SSTORE STOP JUMPDEST PUSH1 0x40 MLOAD PUSH3 0x461BCD PUSH1 0xE5 SHL DUP2 MSTORE PUSH1 0x20 PUSH1 0x4 DUP3 ADD MSTORE PUSH1 0x10 PUSH1 0x24 DUP3 ADD MSTORE PUSH16 0x11D85B59481A5CC81B9BDD08199D5B1B PUSH1 0x82 SHL PUSH1 0x44 DUP3 ADD MSTORE PUSH1 0x64 SWAP1 REVERT JUMPDEST PUSH1 0x1 ADD SLOAD PUSH1 0x1 PUSH1 0x1 PUSH1 0xA0 SHL SUB AND ISZERO ISZERO SWAP1 POP DUP4 PUSH2 0xD91 JUMP JUMPDEST CALLVALUE PUSH2 0x289 JUMPI PUSH1 0x20 CALLDATASIZE PUSH1 0x3 NOT ADD SLT PUSH2 0x289 JUMPI PUSH1 0x4 CALLDATALOAD PUSH1 0x0 SLOAD DUP2 LT ISZERO PUSH2 0x289 JUMPI PUSH2 0xE1B PUSH1 0xE0 SWAP2 PUSH2 0xEA5 JUMP JUMPDEST POP DUP1 SLOAD PUSH1 0x1 DUP3 ADD SLOAD PUSH1 0x2 DUP4 ADD SLOAD PUSH1 0x3 DUP5 ADD SLOAD PUSH1 0x4 DUP6 ADD SLOAD PUSH1 0x5 DUP7 ADD SLOAD PUSH1 0x6 SWAP1 SWAP7 ADD SLOAD PUSH1 0x40 DUP1 MLOAD PUSH1 0x1 PUSH1 0x1 PUSH1 0xA0 SHL SUB SWAP8 DUP9 AND DUP2 MSTORE SWAP6 SWAP1 SWAP7 AND PUSH1 0x20 DUP7 ADD MSTORE SWAP5 DUP5 ADD SWAP3 SWAP1 SWAP3 MSTORE PUSH1 0x60 DUP4 ADD MSTORE PUSH1 0x80 DUP3 ADD MSTORE PUSH1 0xA0 DUP2 ADD SWAP3 SWAP1 SWAP3 MSTORE PUSH1 0xC0 DUP3 ADD MSTORE RETURN JUMPDEST CALLVALUE PUSH2 0x289 JUMPI PUSH1 0x60 CALLDATASIZE PUSH1 0x3 NOT ADD SLT PUSH2 0x289 JUMPI PUSH1 0x20 PUSH2 0xE9B PUSH1 0x44 CALLDATALOAD PUSH1 0x24 CALLDATALOAD PUSH1 0x4 CALLDATALOAD PUSH2 0xF96 JUMP JUMPDEST PUSH1 0x40 MLOAD SWAP1 ISZERO ISZERO DUP2 MSTORE RETURN JUMPDEST PUSH1 0x0 SLOAD DUP2 LT ISZERO PUSH2 0xEDF JUMPI PUSH1 0x0 DUP1 DUP1 MSTORE PUSH1 0x7 SWAP2 SWAP1 SWAP2 MUL PUSH32 0x290DECD9548B62A8D60345A988386FC84BA6BC95484008F6362F93160EF3E563 ADD SWAP2 JUMP JUMPDEST PUSH4 0x4E487B71 PUSH1 0xE0 SHL PUSH1 0x0 MSTORE PUSH1 0x32 PUSH1 0x4 MSTORE PUSH1 0x24 PUSH1 0x0 REVERT JUMPDEST PUSH1 0x40 SWAP1 PUSH1 0x3 NOT ADD SLT PUSH2 0x289 JUMPI PUSH1 0x4 CALLDATALOAD PUSH1 0x1 PUSH1 0x1 PUSH1 0xA0 SHL SUB DUP2 AND DUP2 SUB PUSH2 0x289 JUMPI SWAP1 PUSH1 0x24 CALLDATALOAD SWAP1 JUMP JUMPDEST PUSH1 0xC0 DUP1 SWAP2 PUSH1 0x1 DUP1 PUSH1 0xA0 SHL SUB DUP2 MLOAD AND DUP5 MSTORE PUSH1 0x1 DUP1 PUSH1 0xA0 SHL SUB PUSH1 0x20 DUP3 ADD MLOAD AND PUSH1 0x20 DUP6 ADD MSTORE PUSH1 0x40 DUP2 ADD MLOAD PUSH1 0x40 DUP6 ADD MSTORE PUSH1 0x60 DUP2 ADD MLOAD PUSH1 0x60 DUP6 ADD MSTORE PUSH1 0x80 DUP2 ADD MLOAD PUSH1 0x80 DUP6 ADD MSTORE PUSH1 0xA0 DUP2 ADD MLOAD PUSH1 0xA0 DUP6 ADD MSTORE ADD MLOAD SWAP2 ADD MSTORE JUMP JUMPDEST PUSH1 0x0 NOT DUP2 EQ PUSH2 0x4C3 JUMPI PUSH1 0x1 ADD SWAP1 JUMP JUMPDEST SWAP1 PUSH1 0x40 DUP3 ADD DUP1 SWAP3 GT PUSH2 0x4C3 JUMPI JUMP JUMPDEST SWAP2 SWAP1 DUP3 ADD DUP1 SWAP3 GT PUSH2 0x4C3 JUMPI JUMP JUMPDEST SWAP1 SWAP2 PUSH2 0x100 DUP2 LT ISZERO PUSH2 0x1131 JUMPI PUSH1 0x0 SWAP3 PUSH1 0x1 DUP2 EQ PUSH2 0x10E8 JUMPI JUMPDEST PUSH1 0x2 DUP2 EQ PUSH2 0x10A6 JUMPI JUMPDEST PUSH1 0x3 DUP2 EQ PUSH2 0x103A JUMPI JUMPDEST PUSH1 0x4 EQ PUSH2 0xFCF JUMPI JUMPDEST POP DUP2 AND EQ SWAP1 JUMP JUMPDEST SWAP3 SWAP1 PUSH1 0x4 PUSH1 0xF DUP6 AND LT DUP1 ISZERO PUSH2 0x102C JUMPI JUMPDEST PUSH2 0x1023 JUMPI DUP4 SWAP3 JUMPDEST PUSH2 0xFEF DUP6 PUSH2 0xF7B JUMP JUMPDEST PUSH1 0x3 NOT DUP2 ADD SWAP1 DUP2 GT PUSH2 0x4C3 JUMPI DUP5 GT PUSH2 0x1018 JUMPI PUSH1 0x1 DUP5 SHL OR SWAP3 PUSH1 0xF DUP2 ADD DUP1 SWAP2 GT PUSH2 0x4C3 JUMPI SWAP3 PUSH2 0xFE6 JUMP JUMPDEST SWAP3 POP SWAP1 SWAP3 POP CODESIZE PUSH2 0xFC8 JUMP JUMPDEST POP SWAP2 POP POP PUSH1 0x0 SWAP1 JUMP JUMPDEST POP PUSH1 0xC DUP5 PUSH1 0x4 SHR LT ISZERO PUSH2 0xFDF JUMP JUMPDEST SWAP4 SWAP2 SWAP1 PUSH1 0xC PUSH1 0xF DUP3 AND LT DUP1 ISZERO SWAP1 PUSH2 0x1098 JUMPI JUMPDEST PUSH2 0x108E JUMPI DUP1 SWAP4 JUMPDEST PUSH2 0x105C DUP3 PUSH2 0xF7B JUMP JUMPDEST PUSH1 0x4 DUP2 ADD DUP1 SWAP2 GT PUSH2 0x4C3 JUMPI DUP6 GT PUSH2 0x1084 JUMPI PUSH1 0x1 DUP6 SHL OR SWAP4 PUSH1 0x11 DUP2 ADD DUP1 SWAP2 GT PUSH2 0x4C3 JUMPI SWAP4 PUSH2 0x1053 JUMP JUMPDEST SWAP4 POP SWAP1 SWAP2 SWAP4 PUSH2 0xFC0 JUMP JUMPDEST POP POP SWAP2 POP POP PUSH1 0x0 SWAP1 JUMP JUMPDEST POP PUSH1 0xC DUP2 PUSH1 0x4 SHR LT ISZERO PUSH2 0x104C JUMP JUMPDEST SWAP4 SWAP2 SWAP1 PUSH1 0xC DUP2 PUSH1 0x4 SHR LT ISZERO PUSH2 0x108E JUMPI DUP1 SWAP4 JUMPDEST PUSH2 0x10C1 DUP3 PUSH2 0xF7B JUMP JUMPDEST DUP6 GT PUSH2 0x10DE JUMPI PUSH1 0x1 DUP6 SHL OR SWAP4 PUSH1 0x10 DUP2 ADD DUP1 SWAP2 GT PUSH2 0x4C3 JUMPI SWAP4 PUSH2 0x10B8 JUMP JUMPDEST SWAP4 POP SWAP1 SWAP2 SWAP4 PUSH2 0xFB7 JUMP JUMPDEST SWAP3 SWAP2 SWAP1 PUSH1 0xC PUSH1 0xF DUP3 AND LT ISZERO PUSH2 0x112A JUMPI DUP1 SWAP3 JUMPDEST PUSH1 0x4 DUP3 ADD DUP1 DUP4 GT PUSH2 0x4C3 JUMPI DUP5 GT PUSH2 0x1120 JUMPI PUSH2 0x111A SWAP1 PUSH1 0x1 DUP6 SHL OR SWAP4 PUSH2 0xF6C JUMP JUMPDEST SWAP3 PUSH2 0x10FA JUMP JUMPDEST SWAP4 SWAP1 SWAP2 SWAP3 POP PUSH2 0xFAE JUMP JUMPDEST POP POP SWAP1 POP SWAP1 JUMP JUMPDEST POP POP POP PUSH1 0x0 SWAP1 JUMP JUMPDEST ISZERO PUSH2 0x1140 JUMPI JUMP JUMPDEST PUSH1 0x40 MLOAD PUSH3 0x461BCD PUSH1 0xE5 SHL DUP2 MSTORE PUSH1 0x20 PUSH1 0x4 DUP3 ADD MSTORE PUSH1 0x18 PUSH1 0x24 DUP3 ADD MSTORE PUSH32 0x596F7520617265206E6F7420696E20746869732067616D650000000000000000 PUSH1 0x44 DUP3 ADD MSTORE PUSH1 0x64 SWAP1 REVERT JUMPDEST ISZERO PUSH2 0x118C JUMPI JUMP JUMPDEST PUSH1 0x40 MLOAD PUSH3 0x461BCD PUSH1 0xE5 SHL DUP2 MSTORE PUSH1 0x20 PUSH1 0x4 DUP3 ADD MSTORE PUSH1 0xC PUSH1 0x24 DUP3 ADD MSTORE PUSH12 0x23B0B6B29034B99037BB32B9 PUSH1 0xA1 SHL PUSH1 0x44 DUP3 ADD MSTORE PUSH1 0x64 SWAP1 REVERT JUMPDEST PUSH1 0x40 MLOAD SWAP1 PUSH1 0xE0 DUP3 ADD DUP3 DUP2 LT PUSH8 0xFFFFFFFFFFFFFFFF DUP3 GT OR PUSH2 0x9FD JUMPI PUSH1 0x40 MSTORE JUMP JUMPDEST SWAP1 PUSH1 0x6 PUSH2 0x11EB PUSH2 0x11C0 JUMP JUMPDEST DUP4 SLOAD PUSH1 0x1 PUSH1 0x1 PUSH1 0xA0 SHL SUB SWAP1 DUP2 AND DUP3 MSTORE PUSH1 0x1 DUP6 ADD SLOAD AND PUSH1 0x20 DUP3 ADD MSTORE PUSH1 0x2 DUP5 ADD SLOAD PUSH1 0x40 DUP3 ADD MSTORE PUSH1 0x3 DUP5 ADD SLOAD PUSH1 0x60 DUP3 ADD MSTORE PUSH1 0x4 DUP5 ADD SLOAD PUSH1 0x80 DUP3 ADD MSTORE PUSH1 0x5 DUP5 ADD SLOAD PUSH1 0xA0 DUP3 ADD MSTORE SWAP3 ADD SLOAD PUSH1 0xC0 DUP4 ADD MSTORE JUMP JUMPDEST PUSH2 0x123F PUSH2 0x11C0 JUMP JUMPDEST SWAP1 PUSH1 0x0 DUP3 MSTORE PUSH1 0x0 PUSH1 0x20 DUP4 ADD MSTORE PUSH1 0x0 PUSH1 0x40 DUP4 ADD MSTORE PUSH1 0x0 PUSH1 0x60 DUP4 ADD MSTORE PUSH1 0x0 PUSH1 0x80 DUP4 ADD MSTORE PUSH1 0x0 PUSH1 0xA0 DUP4 ADD MSTORE PUSH1 0x0 PUSH1 0xC0 DUP4 ADD MSTORE JUMP JUMPDEST PUSH2 0x1278 PUSH2 0x1237 JUMP JUMPDEST POP PUSH1 0x0 DUP1 SLOAD SWAP1 JUMPDEST DUP2 DUP2 LT PUSH2 0x12C1 JUMPI POP POP PUSH2 0x1290 PUSH2 0x11C0 JUMP JUMPDEST PUSH1 0x0 DUP2 MSTORE PUSH1 0x0 PUSH1 0x20 DUP3 ADD MSTORE PUSH1 0x0 PUSH1 0x40 DUP3 ADD MSTORE PUSH1 0x0 PUSH1 0x60 DUP3 ADD MSTORE PUSH1 0x0 PUSH1 0x80 DUP3 ADD MSTORE PUSH1 0x0 PUSH1 0xA0 DUP3 ADD MSTORE PUSH1 0x0 PUSH1 0xC0 DUP3 ADD MSTORE SWAP1 JUMP JUMPDEST PUSH2 0x12CA DUP2 PUSH2 0xEA5 JUMP JUMPDEST POP SLOAD PUSH1 0x1 PUSH1 0x1 PUSH1 0xA0 SHL SUB AND CALLER EQ DUP1 ISZERO PUSH2 0x12FB JUMPI JUMPDEST PUSH2 0x12EA JUMPI PUSH1 0x1 ADD PUSH2 0x127F JUMP JUMPDEST PUSH2 0x12F8 SWAP2 POP PUSH2 0x6D9 SWAP1 PUSH2 0xEA5 JUMP JUMPDEST SWAP1 JUMP JUMPDEST POP PUSH2 0x1305 DUP2 PUSH2 0xEA5 JUMP JUMPDEST POP PUSH1 0x1 ADD SLOAD PUSH1 0x1 PUSH1 0x1 PUSH1 0xA0 SHL SUB AND CALLER EQ PUSH2 0x12DE JUMP JUMPDEST DUP1 MLOAD DUP3 LT ISZERO PUSH2 0xEDF JUMPI PUSH1 0x20 SWAP2 PUSH1 0x5 SHL ADD ADD SWAP1 JUMP JUMPDEST ISZERO PUSH2 0x1335 JUMPI JUMP JUMPDEST PUSH1 0x40 MLOAD PUSH3 0x461BCD PUSH1 0xE5 SHL DUP2 MSTORE PUSH1 0x20 PUSH1 0x4 DUP3 ADD MSTORE PUSH1 0x22 PUSH1 0x24 DUP3 ADD MSTORE PUSH32 0x596F75206861766520616C726561647920636C61696D65642074686973206761 PUSH1 0x44 DUP3 ADD MSTORE PUSH2 0x6D65 PUSH1 0xF0 SHL PUSH1 0x64 DUP3 ADD MSTORE PUSH1 0x84 SWAP1 REVERT JUMPDEST ISZERO PUSH2 0x138C JUMPI JUMP JUMPDEST PUSH1 0x40 MLOAD PUSH3 0x461BCD PUSH1 0xE5 SHL DUP2 MSTORE PUSH1 0x20 PUSH1 0x4 DUP3 ADD MSTORE PUSH1 0xA PUSH1 0x24 DUP3 ADD MSTORE PUSH10 0x2BB937B733903A3AB937 PUSH1 0xB1 SHL PUSH1 0x44 DUP3 ADD MSTORE PUSH1 0x64 SWAP1 REVERT JUMPDEST CALLER PUSH1 0x0 MSTORE PUSH1 0x1 PUSH1 0x20 MSTORE PUSH1 0x40 PUSH1 0x0 KECCAK256 DUP2 PUSH1 0x0 MSTORE PUSH1 0x20 MSTORE PUSH2 0x13E5 PUSH1 0xFF PUSH1 0x40 PUSH1 0x0 KECCAK256 SLOAD AND ISZERO PUSH2 0x132E JUMP JUMPDEST CALLER PUSH1 0x0 MSTORE PUSH1 0x1 PUSH1 0x20 MSTORE PUSH1 0x40 PUSH1 0x0 KECCAK256 DUP2 PUSH1 0x0 MSTORE PUSH1 0x20 MSTORE PUSH1 0x40 PUSH1 0x0 KECCAK256 PUSH1 0x1 PUSH1 0xFF NOT DUP3 SLOAD AND OR SWAP1 SSTORE PUSH2 0x1416 PUSH2 0x6D9 DUP3 PUSH2 0xEA5 JUMP JUMPDEST SWAP1 PUSH1 0xC0 DUP3 ADD PUSH9 0x56BC75E2D63100000 PUSH5 0x2540BE400 DUP3 MLOAD MOD SWAP2 MLOAD DIV ISZERO SWAP1 DUP2 ISZERO PUSH2 0x155F JUMPI JUMPDEST POP PUSH2 0x1514 JUMPI PUSH1 0xA0 DUP3 ADD MLOAD PUSH2 0x1530 JUMPI PUSH1 0x40 DUP3 ADD MLOAD PUSH1 0x60 DUP4 ADD MLOAD OR PUSH1 0x0 NOT EQ PUSH2 0x1514 JUMPI PUSH1 0x1 DUP1 PUSH1 0xA0 SHL SUB DUP3 MLOAD AND PUSH1 0x0 MSTORE PUSH1 0x2 PUSH1 0x20 MSTORE PUSH1 0x40 PUSH1 0x0 KECCAK256 DUP2 PUSH1 0x0 MSTORE PUSH1 0x20 MSTORE PUSH1 0xFF PUSH1 0x40 PUSH1 0x0 KECCAK256 SLOAD AND SWAP1 DUP2 PUSH2 0x14E2 JUMPI JUMPDEST POP PUSH2 0x14BD JUMPI PUSH1 0x40 MLOAD PUSH3 0x461BCD PUSH1 0xE5 SHL DUP2 MSTORE PUSH1 0x20 PUSH1 0x4 DUP3 ADD MSTORE PUSH1 0x7 PUSH1 0x24 DUP3 ADD MSTORE PUSH7 0x4E6F2044726177 PUSH1 0xC8 SHL PUSH1 0x44 DUP3 ADD MSTORE PUSH1 0x64 SWAP1 REVERT JUMPDEST PUSH1 0x0 DUP1 DUP1 PUSH1 0x80 DUP2 SWAP5 ADD MLOAD DUP2 DUP2 ISZERO PUSH2 0x14D9 JUMPI JUMPDEST CALLER SWAP1 CALL ISZERO PUSH2 0x774 JUMPI JUMP JUMPDEST POP PUSH2 0x8FC PUSH2 0x14CF JUMP JUMPDEST SWAP1 POP PUSH1 0x1 DUP1 PUSH1 0xA0 SHL SUB PUSH1 0x20 DUP4 ADD MLOAD AND PUSH1 0x0 MSTORE PUSH1 0x2 PUSH1 0x20 MSTORE PUSH1 0x40 PUSH1 0x0 KECCAK256 SWAP1 PUSH1 0x0 MSTORE PUSH1 0x20 MSTORE PUSH1 0xFF PUSH1 0x40 PUSH1 0x0 KECCAK256 SLOAD AND CODESIZE PUSH2 0x1489 JUMP JUMPDEST POP PUSH1 0x0 DUP1 DUP1 PUSH1 0x80 DUP2 SWAP5 ADD MLOAD DUP2 DUP2 ISZERO PUSH2 0x14D9 JUMPI CALLER SWAP1 CALL ISZERO PUSH2 0x774 JUMPI JUMP JUMPDEST PUSH1 0x40 MLOAD PUSH3 0x461BCD PUSH1 0xE5 SHL DUP2 MSTORE PUSH1 0x20 PUSH1 0x4 DUP3 ADD MSTORE PUSH1 0x7 PUSH1 0x24 DUP3 ADD MSTORE PUSH7 0x4E6F2044726177 PUSH1 0xC8 SHL PUSH1 0x44 DUP3 ADD MSTORE PUSH1 0x64 SWAP1 REVERT JUMPDEST SWAP1 POP PUSH1 0x3C DUP2 ADD DUP1 SWAP2 GT PUSH2 0x4C3 JUMPI TIMESTAMP LT CODESIZE PUSH2 0x143A JUMP INVALID LOG2 PUSH5 0x6970667358 0x22 SLT KECCAK256 MSTORE8 SWAP2 0xD PUSH25 0xCD6624C1E30A5416F92F605F7121B45F8D7AB18C920A42DA07 0xE0 PC PUSH31 0x64736F6C634300081C00330000000000000000000000000000000000000000 "
        },
        "methodIdentifiers": {
          "DRAW_MARK()": "78c7cee0",
          "MAX_TIME()": "26949984",
          "O()": "a0ea32de",
          "SIZE()": "bdffd282",
          "X()": "c1599bd9",
          "cancelGame(uint256)": "69958ab9",
          "checkWin(uint256,uint256,uint256)": "110a8b99",
          "claimDraw(uint256)": "e6299a5a",
          "claimWinner(uint256)": "c3887ad7",
          "claimed(address,uint256)": "4dd6c8de",
          "createGame()": "7255d729",
          "games(uint256)": "117a5b90",
          "joinGame(uint256)": "efaa55a0",
          "makeMove(uint256,uint256,uint256,uint256)": "c9b144a8",
          "myGame()": "9805cc2d",
          "playerRequestDraw(address,uint256)": "a2d893c5",
          "quitGame(uint256)": "16f99211",
          "requestDraw(uint256)": "d49e2f51",
          "waitingList()": "c2ee6907"
        }
      }
    }
  }
}