{
  "contracts/TicTacToe.sol": {
    "TicTacToe": {
      "abi": [
        {
          "inputs": [],
          "name": "DRAW_MARK",
          "outputs": [
            {
              "internalType": "uint256",
              "name": "",
              "type": "uint256"
            }
          ],
          "stateMutability": "view",
          "type": "function"
        },
        {
          "inputs": [],
          "name": "MAX_TIME",
          "outputs": [
            {
              "internalType": "uint256",
              "name": "",
              "type": "uint256"
            }
          ],
          "stateMutability": "view",
          "type": "function"
        },
        {
          "inputs": [],
          "name": "O",
          "outputs": [
            {
              "internalType": "uint8",
              "name": "",
              "type": "uint8"
            }
          ],
          "stateMutability": "view",
          "type": "function"
        },
        {
          "inputs": [],
          "name": "SIZE",
          "outputs": [
            {
              "internalType": "uint256",
              "name": "",
              "type": "uint256"
            }
          ],
          "stateMutability": "view",
          "type": "function"
        },
        {
          "inputs": [],
          "name": "X",
          "outputs": [
            {
              "internalType": "uint8",
              "name": "",
              "type": "uint8"
            }
          ],
          "stateMutability": "view",
          "type": "function"
        },
        {
          "inputs": [],
          "name": "allGames",
          "outputs": [
            {
              "components": [
                {
                  "internalType": "address",
                  "name": "playerX",
                  "type": "address"
                },
                {
                  "internalType": "address",
                  "name": "playerO",
                  "type": "address"
                },
                {
                  "internalType": "uint256",
                  "name": "X",
                  "type": "uint256"
                },
                {
                  "internalType": "uint256",
                  "name": "O",
                  "type": "uint256"
                },
                {
                  "internalType": "uint256",
                  "name": "betAmount",
                  "type": "uint256"
                },
                {
                  "internalType": "uint8",
                  "name": "winner",
                  "type": "uint8"
                },
                {
                  "internalType": "uint8",
                  "name": "moveOf",
                  "type": "uint8"
                },
                {
                  "internalType": "uint8",
                  "name": "movePos",
                  "type": "uint8"
                },
                {
                  "internalType": "uint64",
                  "name": "movedAt",
                  "type": "uint64"
                }
              ],
              "internalType": "struct TicTacToe.Game[]",
              "name": "",
              "type": "tuple[]"
            }
          ],
          "stateMutability": "view",
          "type": "function"
        },
        {
          "inputs": [
            {
              "internalType": "uint256",
              "name": "board",
              "type": "uint256"
            },
            {
              "internalType": "uint256",
              "name": "winLine",
              "type": "uint256"
            },
            {
              "internalType": "uint256",
              "name": "start",
              "type": "uint256"
            }
          ],
          "name": "checkWin",
          "outputs": [
            {
              "internalType": "bool",
              "name": "",
              "type": "bool"
            }
          ],
          "stateMutability": "pure",
          "type": "function"
        },
        {
          "inputs": [
            {
              "internalType": "uint256",
              "name": "gameId",
              "type": "uint256"
            }
          ],
          "name": "claimReward",
          "outputs": [],
          "stateMutability": "nonpayable",
          "type": "function"
        },
        {
          "inputs": [
            {
              "internalType": "address",
              "name": "",
              "type": "address"
            },
            {
              "internalType": "uint256",
              "name": "",
              "type": "uint256"
            }
          ],
          "name": "claimed",
          "outputs": [
            {
              "internalType": "bool",
              "name": "",
              "type": "bool"
            }
          ],
          "stateMutability": "view",
          "type": "function"
        },
        {
          "inputs": [],
          "name": "createGame",
          "outputs": [],
          "stateMutability": "payable",
          "type": "function"
        },
        {
          "inputs": [
            {
              "internalType": "uint256",
              "name": "",
              "type": "uint256"
            }
          ],
          "name": "games",
          "outputs": [
            {
              "internalType": "address",
              "name": "playerX",
              "type": "address"
            },
            {
              "internalType": "address",
              "name": "playerO",
              "type": "address"
            },
            {
              "internalType": "uint256",
              "name": "X",
              "type": "uint256"
            },
            {
              "internalType": "uint256",
              "name": "O",
              "type": "uint256"
            },
            {
              "internalType": "uint256",
              "name": "betAmount",
              "type": "uint256"
            },
            {
              "internalType": "uint8",
              "name": "winner",
              "type": "uint8"
            },
            {
              "internalType": "uint8",
              "name": "moveOf",
              "type": "uint8"
            },
            {
              "internalType": "uint8",
              "name": "movePos",
              "type": "uint8"
            },
            {
              "internalType": "uint64",
              "name": "movedAt",
              "type": "uint64"
            }
          ],
          "stateMutability": "view",
          "type": "function"
        },
        {
          "inputs": [
            {
              "internalType": "uint256",
              "name": "gameId",
              "type": "uint256"
            }
          ],
          "name": "joinGame",
          "outputs": [],
          "stateMutability": "payable",
          "type": "function"
        },
        {
          "inputs": [
            {
              "internalType": "uint256",
              "name": "gameId",
              "type": "uint256"
            },
            {
              "internalType": "uint8",
              "name": "pos",
              "type": "uint8"
            },
            {
              "internalType": "uint8",
              "name": "winLine",
              "type": "uint8"
            },
            {
              "internalType": "uint8",
              "name": "winPos",
              "type": "uint8"
            }
          ],
          "name": "makeMove",
          "outputs": [],
          "stateMutability": "nonpayable",
          "type": "function"
        },
        {
          "inputs": [
            {
              "internalType": "address",
              "name": "add",
              "type": "address"
            }
          ],
          "name": "myGame",
          "outputs": [
            {
              "internalType": "uint256",
              "name": "index",
              "type": "uint256"
            },
            {
              "components": [
                {
                  "internalType": "address",
                  "name": "playerX",
                  "type": "address"
                },
                {
                  "internalType": "address",
                  "name": "playerO",
                  "type": "address"
                },
                {
                  "internalType": "uint256",
                  "name": "X",
                  "type": "uint256"
                },
                {
                  "internalType": "uint256",
                  "name": "O",
                  "type": "uint256"
                },
                {
                  "internalType": "uint256",
                  "name": "betAmount",
                  "type": "uint256"
                },
                {
                  "internalType": "uint8",
                  "name": "winner",
                  "type": "uint8"
                },
                {
                  "internalType": "uint8",
                  "name": "moveOf",
                  "type": "uint8"
                },
                {
                  "internalType": "uint8",
                  "name": "movePos",
                  "type": "uint8"
                },
                {
                  "internalType": "uint64",
                  "name": "movedAt",
                  "type": "uint64"
                }
              ],
              "internalType": "struct TicTacToe.Game",
              "name": "game",
              "type": "tuple"
            }
          ],
          "stateMutability": "view",
          "type": "function"
        }
      ],
      "evm": {
        "bytecode": {
          "linkReferences": {},
          "object": "6080806040523460155761125f908161001b8239f35b600080fdfe6080604052600436101561001257600080fd5b60003560e01c8063110a8b9914610a65578063117a5b90146109bb578063269499841461099f578063465542f0146108ad5780634a14a6cc146105425780634dd6c8de146104f55780637255d7291461038d57806378c7cee014610370578063a0ea32de14610354578063ae169a50146102ee578063bdffd282146102d2578063c1599bd9146102b6578063d6afb2621461027a5763efaa55a0146100b657600080fd5b6020366003190112610275576004356100ce81610a93565b50546001600160a01b03161561023a576100e781610a93565b50600101546001600160a01b03166102065761010281610a93565b50546001600160a01b031633146101c157600461011e82610a93565b500154340361017c5761015081600161013961017a94610a93565b500180546001600160a01b03191633179055610a93565b5060050180546affffffffffffffff00000019164260181b6affffffffffffffff00000016179055565b005b60405162461bcd60e51b815260206004820152601960248201527f42657420616d6f756e74206973206e6f7420636f7272656374000000000000006044820152606490fd5b60405162461bcd60e51b815260206004820152601c60248201527f596f752063616e2774206a6f696e20796f7572206f776e2067616d65000000006044820152606490fd5b60405162461bcd60e51b815260206004820152600c60248201526b11d85b59481a5cc8199d5b1b60a21b6044820152606490fd5b60405162461bcd60e51b815260206004820152601360248201527211d85b5948191bd95cc81b9bdd08195e1a5cdd606a1b6044820152606490fd5b600080fd5b34610275576020366003190112610275576101406102b46102a161029c610b5c565b611116565b6040929192519283526020830190610ae3565bf35b3461027557600036600319011261027557602060405160018152f35b3461027557600036600319011261027557602060405160108152f35b346102755760203660031901126102755761017a60043561030e81610a93565b50546001600160a01b031633148015610330575b61032b90610dc3565b610e48565b5061032b61033d82610a93565b50600101546001600160a01b031633149050610322565b3461027557600036600319011261027557602060405160028152f35b346102755760003660031901126102755760206040516000198152f35b6000366003190112610275576103a1610d26565b3381526020810160008152604082019060008252606083019060008252608084019134835260a08501936000855260c086016000815260e08701906000825261010088019460008652600054680100000000000000008110156104df5780600161040e9201600055610a93565b9990996104c9575189546001600160a01b03199081166001600160a01b03928316178b55915160018b01805490931691161790559151600288015591516003870155925160048601559251600590940180549251935162ffffff1990931660ff959095169490941760089390931b61ff00169290921760109190911b62ff00001617825561017a919067ffffffffffffffff905182546affffffffffffffff0000001916911660181b6affffffffffffffff00000016179055565b634e487b7160e01b600052600060045260246000fd5b634e487b7160e01b600052604160045260246000fd5b34610275576040366003190112610275576001600160a01b03610516610b5c565b1660005260016020526040600020602435600052602052602060ff604060002054166040519015158152f35b346102755760803660031901126102755760043560243560ff81168082036102755760443560ff8116809103610275576064359160ff83168093036102755761058a85610a93565b50546001600160a01b031633148015610889575b6105a790610dc3565b6105b085610a93565b50946105bb81610a93565b50546001600160a01b031615159081610869575b5015610830576005850194855460ff81166107fc5760181c67ffffffffffffffff1680159081156107d1575b501561079f57610100821015610765576002810180549560016003840197885416941b80941661072a57875462ff0000191660109190911b62ff00001617875586546affffffffffffffff00000019164260181b6affffffffffffffff00000016178755865460081c60ff166001036106cc575060010154610687906001600160a01b03163314610e0f565b61020061ff001986541617855583541780935580151592836106ba575b5050506106ad57005b805460ff19166002179055005b6106c49350610b80565b8280806106a4565b90549094506106e5906001600160a01b03163314610e0f565b61010061ff00198654161785558354178093558015159283610718575b50505061070b57005b805460ff19166001179055005b6107229350610b80565b828080610702565b60405162461bcd60e51b815260206004820152601360248201527224b73b30b634b2b2103837b9b4ba34b7b7101960691b6044820152606490fd5b60405162461bcd60e51b8152602060048201526012602482015271496e76616c696420706f736974696f6e203160701b6044820152606490fd5b60405162461bcd60e51b815260206004820152600a602482015269054696d652069732075760b41b6044820152606490fd5b9050603c81018091116107e6574210876105fb565b634e487b7160e01b600052601160045260246000fd5b60405162461bcd60e51b815260206004820152600c60248201526b23b0b6b29034b99037bb32b960a11b6044820152606490fd5b60405162461bcd60e51b815260206004820152601160248201527047616d65206973206e6f7420726561647960781b6044820152606490fd5b6108739150610a93565b50600101546001600160a01b03161515866105cf565b506105a761089686610a93565b50600101546001600160a01b03163314905061059e565b346102755760003660031901126102755760005467ffffffffffffffff81116104df5760405190601f19603f8260051b0116820182811067ffffffffffffffff8211176104df57604052808252602082019081600080527f290decd9548b62a8d60345a988386fc84ba6bc95484008f6362f93160ef3e5636000915b8383106109815784866040519182916020830190602084525180915260408301919060005b81811061095c575050500390f35b919350916020610120826109736001948851610ae3565b01940191019184939261094e565b6006602060019261099185610d47565b815201920192019190610929565b34610275576000366003190112610275576020604051603c8152f35b3461027557602036600319011261027557600435600054811015610275576109e561012091610a93565b5067ffffffffffffffff60018060a01b038254169160018060a01b036001820154169060028101546003820154906005600484015493015493604051968752602087015260408601526060850152608084015260ff811660a084015260ff8160081c1660c084015260ff8160101c1660e084015260181c16610100820152f35b34610275576060366003190112610275576020610a89604435602435600435610b80565b6040519015158152f35b600054811015610acd5760008080526006919091027f290decd9548b62a8d60345a988386fc84ba6bc95484008f6362f93160ef3e5630191565b634e487b7160e01b600052603260045260246000fd5b67ffffffffffffffff610100809260018060a01b03815116855260018060a01b03602082015116602086015260408101516040860152606081015160608601526080810151608086015260ff60a08201511660a086015260ff60c08201511660c086015260ff60e08201511660e0860152015116910152565b600435906001600160a01b038216820361027557565b90604082018092116107e657565b9091610100811015610d1e5760009260018114610cd2575b60028114610c90575b60038114610c24575b600414610bb9575b5081161490565b92906004600f8516108015610c16575b610c0d5783925b610bd985610b72565b60031981019081116107e6578411610c02576001841b1792600f81018091116107e65792610bd0565b925090925038610bb2565b50915050600090565b50600c8460041c1015610bc9565b939190600c600f821610801590610c82575b610c785780935b610c4682610b72565b600481018091116107e6578511610c6e576001851b1793601181018091116107e65793610c3d565b9350909193610baa565b5050915050600090565b50600c8160041c1015610c36565b939190600c8160041c1015610c785780935b610cab82610b72565b8511610cc8576001851b1793601081018091116107e65793610ca2565b9350909193610ba1565b939190600c600f82161015610d175780935b600482018083116107e6578511610d0d576001851b179360001981146107e65760010193610ce4565b9350909193610b98565b5050915090565b505050600090565b60405190610120820182811067ffffffffffffffff8211176104df57604052565b9067ffffffffffffffff6005610d5b610d26565b84546001600160a01b039081168252600186015416602082015260028501546040820152600385015460608201526004850154608082015293015460ff80821660a0860152600882901c811660c0860152601082901c1660e085015260181c16610100830152565b15610dca57565b60405162461bcd60e51b815260206004820152601860248201527f596f7520617265206e6f7420696e20746869732067616d6500000000000000006044820152606490fd5b15610e1657565b60405162461bcd60e51b815260206004820152600a6024820152692bb937b733903a3ab93760b11b6044820152606490fd5b33600052600160205260406000208160005260205260ff604060002054166110c657610e9b610ea1913360005260016020526040600020816000526020526040600020600160ff19825416179055610a93565b50610d47565b6040810151606082015117600019146110925760a0810160ff8151161580611081575b8061105e575b1561100a57600281525b60ff81511615610fd5575160ff166001811480610fc2575b15610f365750608001518060011b90808204600214901517156107e657600080808093818115610f2d575b3390f115610f2157565b6040513d6000823e3d90fd5b506108fc610f17565b60021480610fac575b610f7e5760405162461bcd60e51b815260206004820152601360248201527210d85b9b9bdd0818db185a5b481c995dd85c99606a1b6044820152606490fd5b608001518060011b90808204600214901517156107e657600080808093818115610f2d573390f115610f2157565b5060208101516001600160a01b03163314610f3f565b5081516001600160a01b03163314610eec565b60405162461bcd60e51b815260206004820152600d60248201526c139bc81dda5b9b995c881e595d609a1b6044820152606490fd5b60ff815116158061104d575b8061102a575b15610ed45760018152610ed4565b5067ffffffffffffffff61010083015116603c81018091116107e657421161101c565b50600260ff60c08401511614611016565b5067ffffffffffffffff61010083015116603c81018091116107e6574211610eca565b50600160ff60c08401511614610ec4565b60405162461bcd60e51b815260206004820152600c60248201526b47616d65206973206472617760a01b6044820152606490fd5b60405162461bcd60e51b815260206004820152602260248201527f596f75206861766520616c726561647920636c61696d656420746869732067616044820152616d6560f01b6064820152608490fd5b9061111f610d26565b6000815260006020820152600060408201526000606082015260006080820152600060a0820152600060c0820152600060e082015260006101008201525060005460001981019081116107e6575b61117681610a93565b50546001600160a01b0384811691168114908115611209575b506111f85780156111a95780156107e6576000190161116d565b5090506111b4610d26565b906000825260006020830152600060408301526000606083015260006080830152600060a0830152600060c0830152600060e0830152600061010083015260009190565b9150611206610e9b83610a93565b90565b905061121482610a93565b50600101546001600160a01b0316143861118f56fea2646970667358221220f2d01e90dca978f1f9081839ae42e39c6e33e16e10da7abc8d167101f269d5d664736f6c634300081c0033",
          "opcodes": "PUSH1 0x80 DUP1 PUSH1 0x40 MSTORE CALLVALUE PUSH1 0x15 JUMPI PUSH2 0x125F SWAP1 DUP2 PUSH2 0x1B DUP3 CODECOPY RETURN JUMPDEST PUSH1 0x0 DUP1 REVERT INVALID PUSH1 0x80 PUSH1 0x40 MSTORE PUSH1 0x4 CALLDATASIZE LT ISZERO PUSH2 0x12 JUMPI PUSH1 0x0 DUP1 REVERT JUMPDEST PUSH1 0x0 CALLDATALOAD PUSH1 0xE0 SHR DUP1 PUSH4 0x110A8B99 EQ PUSH2 0xA65 JUMPI DUP1 PUSH4 0x117A5B90 EQ PUSH2 0x9BB JUMPI DUP1 PUSH4 0x26949984 EQ PUSH2 0x99F JUMPI DUP1 PUSH4 0x465542F0 EQ PUSH2 0x8AD JUMPI DUP1 PUSH4 0x4A14A6CC EQ PUSH2 0x542 JUMPI DUP1 PUSH4 0x4DD6C8DE EQ PUSH2 0x4F5 JUMPI DUP1 PUSH4 0x7255D729 EQ PUSH2 0x38D JUMPI DUP1 PUSH4 0x78C7CEE0 EQ PUSH2 0x370 JUMPI DUP1 PUSH4 0xA0EA32DE EQ PUSH2 0x354 JUMPI DUP1 PUSH4 0xAE169A50 EQ PUSH2 0x2EE JUMPI DUP1 PUSH4 0xBDFFD282 EQ PUSH2 0x2D2 JUMPI DUP1 PUSH4 0xC1599BD9 EQ PUSH2 0x2B6 JUMPI DUP1 PUSH4 0xD6AFB262 EQ PUSH2 0x27A JUMPI PUSH4 0xEFAA55A0 EQ PUSH2 0xB6 JUMPI PUSH1 0x0 DUP1 REVERT JUMPDEST PUSH1 0x20 CALLDATASIZE PUSH1 0x3 NOT ADD SLT PUSH2 0x275 JUMPI PUSH1 0x4 CALLDATALOAD PUSH2 0xCE DUP2 PUSH2 0xA93 JUMP JUMPDEST POP SLOAD PUSH1 0x1 PUSH1 0x1 PUSH1 0xA0 SHL SUB AND ISZERO PUSH2 0x23A JUMPI PUSH2 0xE7 DUP2 PUSH2 0xA93 JUMP JUMPDEST POP PUSH1 0x1 ADD SLOAD PUSH1 0x1 PUSH1 0x1 PUSH1 0xA0 SHL SUB AND PUSH2 0x206 JUMPI PUSH2 0x102 DUP2 PUSH2 0xA93 JUMP JUMPDEST POP SLOAD PUSH1 0x1 PUSH1 0x1 PUSH1 0xA0 SHL SUB AND CALLER EQ PUSH2 0x1C1 JUMPI PUSH1 0x4 PUSH2 0x11E DUP3 PUSH2 0xA93 JUMP JUMPDEST POP ADD SLOAD CALLVALUE SUB PUSH2 0x17C JUMPI PUSH2 0x150 DUP2 PUSH1 0x1 PUSH2 0x139 PUSH2 0x17A SWAP5 PUSH2 0xA93 JUMP JUMPDEST POP ADD DUP1 SLOAD PUSH1 0x1 PUSH1 0x1 PUSH1 0xA0 SHL SUB NOT AND CALLER OR SWAP1 SSTORE PUSH2 0xA93 JUMP JUMPDEST POP PUSH1 0x5 ADD DUP1 SLOAD PUSH11 0xFFFFFFFFFFFFFFFF000000 NOT AND TIMESTAMP PUSH1 0x18 SHL PUSH11 0xFFFFFFFFFFFFFFFF000000 AND OR SWAP1 SSTORE JUMP JUMPDEST STOP JUMPDEST PUSH1 0x40 MLOAD PUSH3 0x461BCD PUSH1 0xE5 SHL DUP2 MSTORE PUSH1 0x20 PUSH1 0x4 DUP3 ADD MSTORE PUSH1 0x19 PUSH1 0x24 DUP3 ADD MSTORE PUSH32 0x42657420616D6F756E74206973206E6F7420636F727265637400000000000000 PUSH1 0x44 DUP3 ADD MSTORE PUSH1 0x64 SWAP1 REVERT JUMPDEST PUSH1 0x40 MLOAD PUSH3 0x461BCD PUSH1 0xE5 SHL DUP2 MSTORE PUSH1 0x20 PUSH1 0x4 DUP3 ADD MSTORE PUSH1 0x1C PUSH1 0x24 DUP3 ADD MSTORE PUSH32 0x596F752063616E2774206A6F696E20796F7572206F776E2067616D6500000000 PUSH1 0x44 DUP3 ADD MSTORE PUSH1 0x64 SWAP1 REVERT JUMPDEST PUSH1 0x40 MLOAD PUSH3 0x461BCD PUSH1 0xE5 SHL DUP2 MSTORE PUSH1 0x20 PUSH1 0x4 DUP3 ADD MSTORE PUSH1 0xC PUSH1 0x24 DUP3 ADD MSTORE PUSH12 0x11D85B59481A5CC8199D5B1B PUSH1 0xA2 SHL PUSH1 0x44 DUP3 ADD MSTORE PUSH1 0x64 SWAP1 REVERT JUMPDEST PUSH1 0x40 MLOAD PUSH3 0x461BCD PUSH1 0xE5 SHL DUP2 MSTORE PUSH1 0x20 PUSH1 0x4 DUP3 ADD MSTORE PUSH1 0x13 PUSH1 0x24 DUP3 ADD MSTORE PUSH19 0x11D85B5948191BD95CC81B9BDD08195E1A5CDD PUSH1 0x6A SHL PUSH1 0x44 DUP3 ADD MSTORE PUSH1 0x64 SWAP1 REVERT JUMPDEST PUSH1 0x0 DUP1 REVERT JUMPDEST CALLVALUE PUSH2 0x275 JUMPI PUSH1 0x20 CALLDATASIZE PUSH1 0x3 NOT ADD SLT PUSH2 0x275 JUMPI PUSH2 0x140 PUSH2 0x2B4 PUSH2 0x2A1 PUSH2 0x29C PUSH2 0xB5C JUMP JUMPDEST PUSH2 0x1116 JUMP JUMPDEST PUSH1 0x40 SWAP3 SWAP2 SWAP3 MLOAD SWAP3 DUP4 MSTORE PUSH1 0x20 DUP4 ADD SWAP1 PUSH2 0xAE3 JUMP JUMPDEST RETURN JUMPDEST CALLVALUE PUSH2 0x275 JUMPI PUSH1 0x0 CALLDATASIZE PUSH1 0x3 NOT ADD SLT PUSH2 0x275 JUMPI PUSH1 0x20 PUSH1 0x40 MLOAD PUSH1 0x1 DUP2 MSTORE RETURN JUMPDEST CALLVALUE PUSH2 0x275 JUMPI PUSH1 0x0 CALLDATASIZE PUSH1 0x3 NOT ADD SLT PUSH2 0x275 JUMPI PUSH1 0x20 PUSH1 0x40 MLOAD PUSH1 0x10 DUP2 MSTORE RETURN JUMPDEST CALLVALUE PUSH2 0x275 JUMPI PUSH1 0x20 CALLDATASIZE PUSH1 0x3 NOT ADD SLT PUSH2 0x275 JUMPI PUSH2 0x17A PUSH1 0x4 CALLDATALOAD PUSH2 0x30E DUP2 PUSH2 0xA93 JUMP JUMPDEST POP SLOAD PUSH1 0x1 PUSH1 0x1 PUSH1 0xA0 SHL SUB AND CALLER EQ DUP1 ISZERO PUSH2 0x330 JUMPI JUMPDEST PUSH2 0x32B SWAP1 PUSH2 0xDC3 JUMP JUMPDEST PUSH2 0xE48 JUMP JUMPDEST POP PUSH2 0x32B PUSH2 0x33D DUP3 PUSH2 0xA93 JUMP JUMPDEST POP PUSH1 0x1 ADD SLOAD PUSH1 0x1 PUSH1 0x1 PUSH1 0xA0 SHL SUB AND CALLER EQ SWAP1 POP PUSH2 0x322 JUMP JUMPDEST CALLVALUE PUSH2 0x275 JUMPI PUSH1 0x0 CALLDATASIZE PUSH1 0x3 NOT ADD SLT PUSH2 0x275 JUMPI PUSH1 0x20 PUSH1 0x40 MLOAD PUSH1 0x2 DUP2 MSTORE RETURN JUMPDEST CALLVALUE PUSH2 0x275 JUMPI PUSH1 0x0 CALLDATASIZE PUSH1 0x3 NOT ADD SLT PUSH2 0x275 JUMPI PUSH1 0x20 PUSH1 0x40 MLOAD PUSH1 0x0 NOT DUP2 MSTORE RETURN JUMPDEST PUSH1 0x0 CALLDATASIZE PUSH1 0x3 NOT ADD SLT PUSH2 0x275 JUMPI PUSH2 0x3A1 PUSH2 0xD26 JUMP JUMPDEST CALLER DUP2 MSTORE PUSH1 0x20 DUP2 ADD PUSH1 0x0 DUP2 MSTORE PUSH1 0x40 DUP3 ADD SWAP1 PUSH1 0x0 DUP3 MSTORE PUSH1 0x60 DUP4 ADD SWAP1 PUSH1 0x0 DUP3 MSTORE PUSH1 0x80 DUP5 ADD SWAP2 CALLVALUE DUP4 MSTORE PUSH1 0xA0 DUP6 ADD SWAP4 PUSH1 0x0 DUP6 MSTORE PUSH1 0xC0 DUP7 ADD PUSH1 0x0 DUP2 MSTORE PUSH1 0xE0 DUP8 ADD SWAP1 PUSH1 0x0 DUP3 MSTORE PUSH2 0x100 DUP9 ADD SWAP5 PUSH1 0x0 DUP7 MSTORE PUSH1 0x0 SLOAD PUSH9 0x10000000000000000 DUP2 LT ISZERO PUSH2 0x4DF JUMPI DUP1 PUSH1 0x1 PUSH2 0x40E SWAP3 ADD PUSH1 0x0 SSTORE PUSH2 0xA93 JUMP JUMPDEST SWAP10 SWAP1 SWAP10 PUSH2 0x4C9 JUMPI MLOAD DUP10 SLOAD PUSH1 0x1 PUSH1 0x1 PUSH1 0xA0 SHL SUB NOT SWAP1 DUP2 AND PUSH1 0x1 PUSH1 0x1 PUSH1 0xA0 SHL SUB SWAP3 DUP4 AND OR DUP12 SSTORE SWAP2 MLOAD PUSH1 0x1 DUP12 ADD DUP1 SLOAD SWAP1 SWAP4 AND SWAP2 AND OR SWAP1 SSTORE SWAP2 MLOAD PUSH1 0x2 DUP9 ADD SSTORE SWAP2 MLOAD PUSH1 0x3 DUP8 ADD SSTORE SWAP3 MLOAD PUSH1 0x4 DUP7 ADD SSTORE SWAP3 MLOAD PUSH1 0x5 SWAP1 SWAP5 ADD DUP1 SLOAD SWAP3 MLOAD SWAP4 MLOAD PUSH3 0xFFFFFF NOT SWAP1 SWAP4 AND PUSH1 0xFF SWAP6 SWAP1 SWAP6 AND SWAP5 SWAP1 SWAP5 OR PUSH1 0x8 SWAP4 SWAP1 SWAP4 SHL PUSH2 0xFF00 AND SWAP3 SWAP1 SWAP3 OR PUSH1 0x10 SWAP2 SWAP1 SWAP2 SHL PUSH3 0xFF0000 AND OR DUP3 SSTORE PUSH2 0x17A SWAP2 SWAP1 PUSH8 0xFFFFFFFFFFFFFFFF SWAP1 MLOAD DUP3 SLOAD PUSH11 0xFFFFFFFFFFFFFFFF000000 NOT AND SWAP2 AND PUSH1 0x18 SHL PUSH11 0xFFFFFFFFFFFFFFFF000000 AND OR SWAP1 SSTORE JUMP JUMPDEST PUSH4 0x4E487B71 PUSH1 0xE0 SHL PUSH1 0x0 MSTORE PUSH1 0x0 PUSH1 0x4 MSTORE PUSH1 0x24 PUSH1 0x0 REVERT JUMPDEST PUSH4 0x4E487B71 PUSH1 0xE0 SHL PUSH1 0x0 MSTORE PUSH1 0x41 PUSH1 0x4 MSTORE PUSH1 0x24 PUSH1 0x0 REVERT JUMPDEST CALLVALUE PUSH2 0x275 JUMPI PUSH1 0x40 CALLDATASIZE PUSH1 0x3 NOT ADD SLT PUSH2 0x275 JUMPI PUSH1 0x1 PUSH1 0x1 PUSH1 0xA0 SHL SUB PUSH2 0x516 PUSH2 0xB5C JUMP JUMPDEST AND PUSH1 0x0 MSTORE PUSH1 0x1 PUSH1 0x20 MSTORE PUSH1 0x40 PUSH1 0x0 KECCAK256 PUSH1 0x24 CALLDATALOAD PUSH1 0x0 MSTORE PUSH1 0x20 MSTORE PUSH1 0x20 PUSH1 0xFF PUSH1 0x40 PUSH1 0x0 KECCAK256 SLOAD AND PUSH1 0x40 MLOAD SWAP1 ISZERO ISZERO DUP2 MSTORE RETURN JUMPDEST CALLVALUE PUSH2 0x275 JUMPI PUSH1 0x80 CALLDATASIZE PUSH1 0x3 NOT ADD SLT PUSH2 0x275 JUMPI PUSH1 0x4 CALLDATALOAD PUSH1 0x24 CALLDATALOAD PUSH1 0xFF DUP2 AND DUP1 DUP3 SUB PUSH2 0x275 JUMPI PUSH1 0x44 CALLDATALOAD PUSH1 0xFF DUP2 AND DUP1 SWAP2 SUB PUSH2 0x275 JUMPI PUSH1 0x64 CALLDATALOAD SWAP2 PUSH1 0xFF DUP4 AND DUP1 SWAP4 SUB PUSH2 0x275 JUMPI PUSH2 0x58A DUP6 PUSH2 0xA93 JUMP JUMPDEST POP SLOAD PUSH1 0x1 PUSH1 0x1 PUSH1 0xA0 SHL SUB AND CALLER EQ DUP1 ISZERO PUSH2 0x889 JUMPI JUMPDEST PUSH2 0x5A7 SWAP1 PUSH2 0xDC3 JUMP JUMPDEST PUSH2 0x5B0 DUP6 PUSH2 0xA93 JUMP JUMPDEST POP SWAP5 PUSH2 0x5BB DUP2 PUSH2 0xA93 JUMP JUMPDEST POP SLOAD PUSH1 0x1 PUSH1 0x1 PUSH1 0xA0 SHL SUB AND ISZERO ISZERO SWAP1 DUP2 PUSH2 0x869 JUMPI JUMPDEST POP ISZERO PUSH2 0x830 JUMPI PUSH1 0x5 DUP6 ADD SWAP5 DUP6 SLOAD PUSH1 0xFF DUP2 AND PUSH2 0x7FC JUMPI PUSH1 0x18 SHR PUSH8 0xFFFFFFFFFFFFFFFF AND DUP1 ISZERO SWAP1 DUP2 ISZERO PUSH2 0x7D1 JUMPI JUMPDEST POP ISZERO PUSH2 0x79F JUMPI PUSH2 0x100 DUP3 LT ISZERO PUSH2 0x765 JUMPI PUSH1 0x2 DUP2 ADD DUP1 SLOAD SWAP6 PUSH1 0x1 PUSH1 0x3 DUP5 ADD SWAP8 DUP9 SLOAD AND SWAP5 SHL DUP1 SWAP5 AND PUSH2 0x72A JUMPI DUP8 SLOAD PUSH3 0xFF0000 NOT AND PUSH1 0x10 SWAP2 SWAP1 SWAP2 SHL PUSH3 0xFF0000 AND OR DUP8 SSTORE DUP7 SLOAD PUSH11 0xFFFFFFFFFFFFFFFF000000 NOT AND TIMESTAMP PUSH1 0x18 SHL PUSH11 0xFFFFFFFFFFFFFFFF000000 AND OR DUP8 SSTORE DUP7 SLOAD PUSH1 0x8 SHR PUSH1 0xFF AND PUSH1 0x1 SUB PUSH2 0x6CC JUMPI POP PUSH1 0x1 ADD SLOAD PUSH2 0x687 SWAP1 PUSH1 0x1 PUSH1 0x1 PUSH1 0xA0 SHL SUB AND CALLER EQ PUSH2 0xE0F JUMP JUMPDEST PUSH2 0x200 PUSH2 0xFF00 NOT DUP7 SLOAD AND OR DUP6 SSTORE DUP4 SLOAD OR DUP1 SWAP4 SSTORE DUP1 ISZERO ISZERO SWAP3 DUP4 PUSH2 0x6BA JUMPI JUMPDEST POP POP POP PUSH2 0x6AD JUMPI STOP JUMPDEST DUP1 SLOAD PUSH1 0xFF NOT AND PUSH1 0x2 OR SWAP1 SSTORE STOP JUMPDEST PUSH2 0x6C4 SWAP4 POP PUSH2 0xB80 JUMP JUMPDEST DUP3 DUP1 DUP1 PUSH2 0x6A4 JUMP JUMPDEST SWAP1 SLOAD SWAP1 SWAP5 POP PUSH2 0x6E5 SWAP1 PUSH1 0x1 PUSH1 0x1 PUSH1 0xA0 SHL SUB AND CALLER EQ PUSH2 0xE0F JUMP JUMPDEST PUSH2 0x100 PUSH2 0xFF00 NOT DUP7 SLOAD AND OR DUP6 SSTORE DUP4 SLOAD OR DUP1 SWAP4 SSTORE DUP1 ISZERO ISZERO SWAP3 DUP4 PUSH2 0x718 JUMPI JUMPDEST POP POP POP PUSH2 0x70B JUMPI STOP JUMPDEST DUP1 SLOAD PUSH1 0xFF NOT AND PUSH1 0x1 OR SWAP1 SSTORE STOP JUMPDEST PUSH2 0x722 SWAP4 POP PUSH2 0xB80 JUMP JUMPDEST DUP3 DUP1 DUP1 PUSH2 0x702 JUMP JUMPDEST PUSH1 0x40 MLOAD PUSH3 0x461BCD PUSH1 0xE5 SHL DUP2 MSTORE PUSH1 0x20 PUSH1 0x4 DUP3 ADD MSTORE PUSH1 0x13 PUSH1 0x24 DUP3 ADD MSTORE PUSH19 0x24B73B30B634B2B2103837B9B4BA34B7B71019 PUSH1 0x69 SHL PUSH1 0x44 DUP3 ADD MSTORE PUSH1 0x64 SWAP1 REVERT JUMPDEST PUSH1 0x40 MLOAD PUSH3 0x461BCD PUSH1 0xE5 SHL DUP2 MSTORE PUSH1 0x20 PUSH1 0x4 DUP3 ADD MSTORE PUSH1 0x12 PUSH1 0x24 DUP3 ADD MSTORE PUSH18 0x496E76616C696420706F736974696F6E2031 PUSH1 0x70 SHL PUSH1 0x44 DUP3 ADD MSTORE PUSH1 0x64 SWAP1 REVERT JUMPDEST PUSH1 0x40 MLOAD PUSH3 0x461BCD PUSH1 0xE5 SHL DUP2 MSTORE PUSH1 0x20 PUSH1 0x4 DUP3 ADD MSTORE PUSH1 0xA PUSH1 0x24 DUP3 ADD MSTORE PUSH10 0x54696D6520697320757 PUSH1 0xB4 SHL PUSH1 0x44 DUP3 ADD MSTORE PUSH1 0x64 SWAP1 REVERT JUMPDEST SWAP1 POP PUSH1 0x3C DUP2 ADD DUP1 SWAP2 GT PUSH2 0x7E6 JUMPI TIMESTAMP LT DUP8 PUSH2 0x5FB JUMP JUMPDEST PUSH4 0x4E487B71 PUSH1 0xE0 SHL PUSH1 0x0 MSTORE PUSH1 0x11 PUSH1 0x4 MSTORE PUSH1 0x24 PUSH1 0x0 REVERT JUMPDEST PUSH1 0x40 MLOAD PUSH3 0x461BCD PUSH1 0xE5 SHL DUP2 MSTORE PUSH1 0x20 PUSH1 0x4 DUP3 ADD MSTORE PUSH1 0xC PUSH1 0x24 DUP3 ADD MSTORE PUSH12 0x23B0B6B29034B99037BB32B9 PUSH1 0xA1 SHL PUSH1 0x44 DUP3 ADD MSTORE PUSH1 0x64 SWAP1 REVERT JUMPDEST PUSH1 0x40 MLOAD PUSH3 0x461BCD PUSH1 0xE5 SHL DUP2 MSTORE PUSH1 0x20 PUSH1 0x4 DUP3 ADD MSTORE PUSH1 0x11 PUSH1 0x24 DUP3 ADD MSTORE PUSH17 0x47616D65206973206E6F74207265616479 PUSH1 0x78 SHL PUSH1 0x44 DUP3 ADD MSTORE PUSH1 0x64 SWAP1 REVERT JUMPDEST PUSH2 0x873 SWAP2 POP PUSH2 0xA93 JUMP JUMPDEST POP PUSH1 0x1 ADD SLOAD PUSH1 0x1 PUSH1 0x1 PUSH1 0xA0 SHL SUB AND ISZERO ISZERO DUP7 PUSH2 0x5CF JUMP JUMPDEST POP PUSH2 0x5A7 PUSH2 0x896 DUP7 PUSH2 0xA93 JUMP JUMPDEST POP PUSH1 0x1 ADD SLOAD PUSH1 0x1 PUSH1 0x1 PUSH1 0xA0 SHL SUB AND CALLER EQ SWAP1 POP PUSH2 0x59E JUMP JUMPDEST CALLVALUE PUSH2 0x275 JUMPI PUSH1 0x0 CALLDATASIZE PUSH1 0x3 NOT ADD SLT PUSH2 0x275 JUMPI PUSH1 0x0 SLOAD PUSH8 0xFFFFFFFFFFFFFFFF DUP2 GT PUSH2 0x4DF JUMPI PUSH1 0x40 MLOAD SWAP1 PUSH1 0x1F NOT PUSH1 0x3F DUP3 PUSH1 0x5 SHL ADD AND DUP3 ADD DUP3 DUP2 LT PUSH8 0xFFFFFFFFFFFFFFFF DUP3 GT OR PUSH2 0x4DF JUMPI PUSH1 0x40 MSTORE DUP1 DUP3 MSTORE PUSH1 0x20 DUP3 ADD SWAP1 DUP2 PUSH1 0x0 DUP1 MSTORE PUSH32 0x290DECD9548B62A8D60345A988386FC84BA6BC95484008F6362F93160EF3E563 PUSH1 0x0 SWAP2 JUMPDEST DUP4 DUP4 LT PUSH2 0x981 JUMPI DUP5 DUP7 PUSH1 0x40 MLOAD SWAP2 DUP3 SWAP2 PUSH1 0x20 DUP4 ADD SWAP1 PUSH1 0x20 DUP5 MSTORE MLOAD DUP1 SWAP2 MSTORE PUSH1 0x40 DUP4 ADD SWAP2 SWAP1 PUSH1 0x0 JUMPDEST DUP2 DUP2 LT PUSH2 0x95C JUMPI POP POP POP SUB SWAP1 RETURN JUMPDEST SWAP2 SWAP4 POP SWAP2 PUSH1 0x20 PUSH2 0x120 DUP3 PUSH2 0x973 PUSH1 0x1 SWAP5 DUP9 MLOAD PUSH2 0xAE3 JUMP JUMPDEST ADD SWAP5 ADD SWAP2 ADD SWAP2 DUP5 SWAP4 SWAP3 PUSH2 0x94E JUMP JUMPDEST PUSH1 0x6 PUSH1 0x20 PUSH1 0x1 SWAP3 PUSH2 0x991 DUP6 PUSH2 0xD47 JUMP JUMPDEST DUP2 MSTORE ADD SWAP3 ADD SWAP3 ADD SWAP2 SWAP1 PUSH2 0x929 JUMP JUMPDEST CALLVALUE PUSH2 0x275 JUMPI PUSH1 0x0 CALLDATASIZE PUSH1 0x3 NOT ADD SLT PUSH2 0x275 JUMPI PUSH1 0x20 PUSH1 0x40 MLOAD PUSH1 0x3C DUP2 MSTORE RETURN JUMPDEST CALLVALUE PUSH2 0x275 JUMPI PUSH1 0x20 CALLDATASIZE PUSH1 0x3 NOT ADD SLT PUSH2 0x275 JUMPI PUSH1 0x4 CALLDATALOAD PUSH1 0x0 SLOAD DUP2 LT ISZERO PUSH2 0x275 JUMPI PUSH2 0x9E5 PUSH2 0x120 SWAP2 PUSH2 0xA93 JUMP JUMPDEST POP PUSH8 0xFFFFFFFFFFFFFFFF PUSH1 0x1 DUP1 PUSH1 0xA0 SHL SUB DUP3 SLOAD AND SWAP2 PUSH1 0x1 DUP1 PUSH1 0xA0 SHL SUB PUSH1 0x1 DUP3 ADD SLOAD AND SWAP1 PUSH1 0x2 DUP2 ADD SLOAD PUSH1 0x3 DUP3 ADD SLOAD SWAP1 PUSH1 0x5 PUSH1 0x4 DUP5 ADD SLOAD SWAP4 ADD SLOAD SWAP4 PUSH1 0x40 MLOAD SWAP7 DUP8 MSTORE PUSH1 0x20 DUP8 ADD MSTORE PUSH1 0x40 DUP7 ADD MSTORE PUSH1 0x60 DUP6 ADD MSTORE PUSH1 0x80 DUP5 ADD MSTORE PUSH1 0xFF DUP2 AND PUSH1 0xA0 DUP5 ADD MSTORE PUSH1 0xFF DUP2 PUSH1 0x8 SHR AND PUSH1 0xC0 DUP5 ADD MSTORE PUSH1 0xFF DUP2 PUSH1 0x10 SHR AND PUSH1 0xE0 DUP5 ADD MSTORE PUSH1 0x18 SHR AND PUSH2 0x100 DUP3 ADD MSTORE RETURN JUMPDEST CALLVALUE PUSH2 0x275 JUMPI PUSH1 0x60 CALLDATASIZE PUSH1 0x3 NOT ADD SLT PUSH2 0x275 JUMPI PUSH1 0x20 PUSH2 0xA89 PUSH1 0x44 CALLDATALOAD PUSH1 0x24 CALLDATALOAD PUSH1 0x4 CALLDATALOAD PUSH2 0xB80 JUMP JUMPDEST PUSH1 0x40 MLOAD SWAP1 ISZERO ISZERO DUP2 MSTORE RETURN JUMPDEST PUSH1 0x0 SLOAD DUP2 LT ISZERO PUSH2 0xACD JUMPI PUSH1 0x0 DUP1 DUP1 MSTORE PUSH1 0x6 SWAP2 SWAP1 SWAP2 MUL PUSH32 0x290DECD9548B62A8D60345A988386FC84BA6BC95484008F6362F93160EF3E563 ADD SWAP2 JUMP JUMPDEST PUSH4 0x4E487B71 PUSH1 0xE0 SHL PUSH1 0x0 MSTORE PUSH1 0x32 PUSH1 0x4 MSTORE PUSH1 0x24 PUSH1 0x0 REVERT JUMPDEST PUSH8 0xFFFFFFFFFFFFFFFF PUSH2 0x100 DUP1 SWAP3 PUSH1 0x1 DUP1 PUSH1 0xA0 SHL SUB DUP2 MLOAD AND DUP6 MSTORE PUSH1 0x1 DUP1 PUSH1 0xA0 SHL SUB PUSH1 0x20 DUP3 ADD MLOAD AND PUSH1 0x20 DUP7 ADD MSTORE PUSH1 0x40 DUP2 ADD MLOAD PUSH1 0x40 DUP7 ADD MSTORE PUSH1 0x60 DUP2 ADD MLOAD PUSH1 0x60 DUP7 ADD MSTORE PUSH1 0x80 DUP2 ADD MLOAD PUSH1 0x80 DUP7 ADD MSTORE PUSH1 0xFF PUSH1 0xA0 DUP3 ADD MLOAD AND PUSH1 0xA0 DUP7 ADD MSTORE PUSH1 0xFF PUSH1 0xC0 DUP3 ADD MLOAD AND PUSH1 0xC0 DUP7 ADD MSTORE PUSH1 0xFF PUSH1 0xE0 DUP3 ADD MLOAD AND PUSH1 0xE0 DUP7 ADD MSTORE ADD MLOAD AND SWAP2 ADD MSTORE JUMP JUMPDEST PUSH1 0x4 CALLDATALOAD SWAP1 PUSH1 0x1 PUSH1 0x1 PUSH1 0xA0 SHL SUB DUP3 AND DUP3 SUB PUSH2 0x275 JUMPI JUMP JUMPDEST SWAP1 PUSH1 0x40 DUP3 ADD DUP1 SWAP3 GT PUSH2 0x7E6 JUMPI JUMP JUMPDEST SWAP1 SWAP2 PUSH2 0x100 DUP2 LT ISZERO PUSH2 0xD1E JUMPI PUSH1 0x0 SWAP3 PUSH1 0x1 DUP2 EQ PUSH2 0xCD2 JUMPI JUMPDEST PUSH1 0x2 DUP2 EQ PUSH2 0xC90 JUMPI JUMPDEST PUSH1 0x3 DUP2 EQ PUSH2 0xC24 JUMPI JUMPDEST PUSH1 0x4 EQ PUSH2 0xBB9 JUMPI JUMPDEST POP DUP2 AND EQ SWAP1 JUMP JUMPDEST SWAP3 SWAP1 PUSH1 0x4 PUSH1 0xF DUP6 AND LT DUP1 ISZERO PUSH2 0xC16 JUMPI JUMPDEST PUSH2 0xC0D JUMPI DUP4 SWAP3 JUMPDEST PUSH2 0xBD9 DUP6 PUSH2 0xB72 JUMP JUMPDEST PUSH1 0x3 NOT DUP2 ADD SWAP1 DUP2 GT PUSH2 0x7E6 JUMPI DUP5 GT PUSH2 0xC02 JUMPI PUSH1 0x1 DUP5 SHL OR SWAP3 PUSH1 0xF DUP2 ADD DUP1 SWAP2 GT PUSH2 0x7E6 JUMPI SWAP3 PUSH2 0xBD0 JUMP JUMPDEST SWAP3 POP SWAP1 SWAP3 POP CODESIZE PUSH2 0xBB2 JUMP JUMPDEST POP SWAP2 POP POP PUSH1 0x0 SWAP1 JUMP JUMPDEST POP PUSH1 0xC DUP5 PUSH1 0x4 SHR LT ISZERO PUSH2 0xBC9 JUMP JUMPDEST SWAP4 SWAP2 SWAP1 PUSH1 0xC PUSH1 0xF DUP3 AND LT DUP1 ISZERO SWAP1 PUSH2 0xC82 JUMPI JUMPDEST PUSH2 0xC78 JUMPI DUP1 SWAP4 JUMPDEST PUSH2 0xC46 DUP3 PUSH2 0xB72 JUMP JUMPDEST PUSH1 0x4 DUP2 ADD DUP1 SWAP2 GT PUSH2 0x7E6 JUMPI DUP6 GT PUSH2 0xC6E JUMPI PUSH1 0x1 DUP6 SHL OR SWAP4 PUSH1 0x11 DUP2 ADD DUP1 SWAP2 GT PUSH2 0x7E6 JUMPI SWAP4 PUSH2 0xC3D JUMP JUMPDEST SWAP4 POP SWAP1 SWAP2 SWAP4 PUSH2 0xBAA JUMP JUMPDEST POP POP SWAP2 POP POP PUSH1 0x0 SWAP1 JUMP JUMPDEST POP PUSH1 0xC DUP2 PUSH1 0x4 SHR LT ISZERO PUSH2 0xC36 JUMP JUMPDEST SWAP4 SWAP2 SWAP1 PUSH1 0xC DUP2 PUSH1 0x4 SHR LT ISZERO PUSH2 0xC78 JUMPI DUP1 SWAP4 JUMPDEST PUSH2 0xCAB DUP3 PUSH2 0xB72 JUMP JUMPDEST DUP6 GT PUSH2 0xCC8 JUMPI PUSH1 0x1 DUP6 SHL OR SWAP4 PUSH1 0x10 DUP2 ADD DUP1 SWAP2 GT PUSH2 0x7E6 JUMPI SWAP4 PUSH2 0xCA2 JUMP JUMPDEST SWAP4 POP SWAP1 SWAP2 SWAP4 PUSH2 0xBA1 JUMP JUMPDEST SWAP4 SWAP2 SWAP1 PUSH1 0xC PUSH1 0xF DUP3 AND LT ISZERO PUSH2 0xD17 JUMPI DUP1 SWAP4 JUMPDEST PUSH1 0x4 DUP3 ADD DUP1 DUP4 GT PUSH2 0x7E6 JUMPI DUP6 GT PUSH2 0xD0D JUMPI PUSH1 0x1 DUP6 SHL OR SWAP4 PUSH1 0x0 NOT DUP2 EQ PUSH2 0x7E6 JUMPI PUSH1 0x1 ADD SWAP4 PUSH2 0xCE4 JUMP JUMPDEST SWAP4 POP SWAP1 SWAP2 SWAP4 PUSH2 0xB98 JUMP JUMPDEST POP POP SWAP2 POP SWAP1 JUMP JUMPDEST POP POP POP PUSH1 0x0 SWAP1 JUMP JUMPDEST PUSH1 0x40 MLOAD SWAP1 PUSH2 0x120 DUP3 ADD DUP3 DUP2 LT PUSH8 0xFFFFFFFFFFFFFFFF DUP3 GT OR PUSH2 0x4DF JUMPI PUSH1 0x40 MSTORE JUMP JUMPDEST SWAP1 PUSH8 0xFFFFFFFFFFFFFFFF PUSH1 0x5 PUSH2 0xD5B PUSH2 0xD26 JUMP JUMPDEST DUP5 SLOAD PUSH1 0x1 PUSH1 0x1 PUSH1 0xA0 SHL SUB SWAP1 DUP2 AND DUP3 MSTORE PUSH1 0x1 DUP7 ADD SLOAD AND PUSH1 0x20 DUP3 ADD MSTORE PUSH1 0x2 DUP6 ADD SLOAD PUSH1 0x40 DUP3 ADD MSTORE PUSH1 0x3 DUP6 ADD SLOAD PUSH1 0x60 DUP3 ADD MSTORE PUSH1 0x4 DUP6 ADD SLOAD PUSH1 0x80 DUP3 ADD MSTORE SWAP4 ADD SLOAD PUSH1 0xFF DUP1 DUP3 AND PUSH1 0xA0 DUP7 ADD MSTORE PUSH1 0x8 DUP3 SWAP1 SHR DUP2 AND PUSH1 0xC0 DUP7 ADD MSTORE PUSH1 0x10 DUP3 SWAP1 SHR AND PUSH1 0xE0 DUP6 ADD MSTORE PUSH1 0x18 SHR AND PUSH2 0x100 DUP4 ADD MSTORE JUMP JUMPDEST ISZERO PUSH2 0xDCA JUMPI JUMP JUMPDEST PUSH1 0x40 MLOAD PUSH3 0x461BCD PUSH1 0xE5 SHL DUP2 MSTORE PUSH1 0x20 PUSH1 0x4 DUP3 ADD MSTORE PUSH1 0x18 PUSH1 0x24 DUP3 ADD MSTORE PUSH32 0x596F7520617265206E6F7420696E20746869732067616D650000000000000000 PUSH1 0x44 DUP3 ADD MSTORE PUSH1 0x64 SWAP1 REVERT JUMPDEST ISZERO PUSH2 0xE16 JUMPI JUMP JUMPDEST PUSH1 0x40 MLOAD PUSH3 0x461BCD PUSH1 0xE5 SHL DUP2 MSTORE PUSH1 0x20 PUSH1 0x4 DUP3 ADD MSTORE PUSH1 0xA PUSH1 0x24 DUP3 ADD MSTORE PUSH10 0x2BB937B733903A3AB937 PUSH1 0xB1 SHL PUSH1 0x44 DUP3 ADD MSTORE PUSH1 0x64 SWAP1 REVERT JUMPDEST CALLER PUSH1 0x0 MSTORE PUSH1 0x1 PUSH1 0x20 MSTORE PUSH1 0x40 PUSH1 0x0 KECCAK256 DUP2 PUSH1 0x0 MSTORE PUSH1 0x20 MSTORE PUSH1 0xFF PUSH1 0x40 PUSH1 0x0 KECCAK256 SLOAD AND PUSH2 0x10C6 JUMPI PUSH2 0xE9B PUSH2 0xEA1 SWAP2 CALLER PUSH1 0x0 MSTORE PUSH1 0x1 PUSH1 0x20 MSTORE PUSH1 0x40 PUSH1 0x0 KECCAK256 DUP2 PUSH1 0x0 MSTORE PUSH1 0x20 MSTORE PUSH1 0x40 PUSH1 0x0 KECCAK256 PUSH1 0x1 PUSH1 0xFF NOT DUP3 SLOAD AND OR SWAP1 SSTORE PUSH2 0xA93 JUMP JUMPDEST POP PUSH2 0xD47 JUMP JUMPDEST PUSH1 0x40 DUP2 ADD MLOAD PUSH1 0x60 DUP3 ADD MLOAD OR PUSH1 0x0 NOT EQ PUSH2 0x1092 JUMPI PUSH1 0xA0 DUP2 ADD PUSH1 0xFF DUP2 MLOAD AND ISZERO DUP1 PUSH2 0x1081 JUMPI JUMPDEST DUP1 PUSH2 0x105E JUMPI JUMPDEST ISZERO PUSH2 0x100A JUMPI PUSH1 0x2 DUP2 MSTORE JUMPDEST PUSH1 0xFF DUP2 MLOAD AND ISZERO PUSH2 0xFD5 JUMPI MLOAD PUSH1 0xFF AND PUSH1 0x1 DUP2 EQ DUP1 PUSH2 0xFC2 JUMPI JUMPDEST ISZERO PUSH2 0xF36 JUMPI POP PUSH1 0x80 ADD MLOAD DUP1 PUSH1 0x1 SHL SWAP1 DUP1 DUP3 DIV PUSH1 0x2 EQ SWAP1 ISZERO OR ISZERO PUSH2 0x7E6 JUMPI PUSH1 0x0 DUP1 DUP1 DUP1 SWAP4 DUP2 DUP2 ISZERO PUSH2 0xF2D JUMPI JUMPDEST CALLER SWAP1 CALL ISZERO PUSH2 0xF21 JUMPI JUMP JUMPDEST PUSH1 0x40 MLOAD RETURNDATASIZE PUSH1 0x0 DUP3 RETURNDATACOPY RETURNDATASIZE SWAP1 REVERT JUMPDEST POP PUSH2 0x8FC PUSH2 0xF17 JUMP JUMPDEST PUSH1 0x2 EQ DUP1 PUSH2 0xFAC JUMPI JUMPDEST PUSH2 0xF7E JUMPI PUSH1 0x40 MLOAD PUSH3 0x461BCD PUSH1 0xE5 SHL DUP2 MSTORE PUSH1 0x20 PUSH1 0x4 DUP3 ADD MSTORE PUSH1 0x13 PUSH1 0x24 DUP3 ADD MSTORE PUSH19 0x10D85B9B9BDD0818DB185A5B481C995DD85C99 PUSH1 0x6A SHL PUSH1 0x44 DUP3 ADD MSTORE PUSH1 0x64 SWAP1 REVERT JUMPDEST PUSH1 0x80 ADD MLOAD DUP1 PUSH1 0x1 SHL SWAP1 DUP1 DUP3 DIV PUSH1 0x2 EQ SWAP1 ISZERO OR ISZERO PUSH2 0x7E6 JUMPI PUSH1 0x0 DUP1 DUP1 DUP1 SWAP4 DUP2 DUP2 ISZERO PUSH2 0xF2D JUMPI CALLER SWAP1 CALL ISZERO PUSH2 0xF21 JUMPI JUMP JUMPDEST POP PUSH1 0x20 DUP2 ADD MLOAD PUSH1 0x1 PUSH1 0x1 PUSH1 0xA0 SHL SUB AND CALLER EQ PUSH2 0xF3F JUMP JUMPDEST POP DUP2 MLOAD PUSH1 0x1 PUSH1 0x1 PUSH1 0xA0 SHL SUB AND CALLER EQ PUSH2 0xEEC JUMP JUMPDEST PUSH1 0x40 MLOAD PUSH3 0x461BCD PUSH1 0xE5 SHL DUP2 MSTORE PUSH1 0x20 PUSH1 0x4 DUP3 ADD MSTORE PUSH1 0xD PUSH1 0x24 DUP3 ADD MSTORE PUSH13 0x139BC81DDA5B9B995C881E595D PUSH1 0x9A SHL PUSH1 0x44 DUP3 ADD MSTORE PUSH1 0x64 SWAP1 REVERT JUMPDEST PUSH1 0xFF DUP2 MLOAD AND ISZERO DUP1 PUSH2 0x104D JUMPI JUMPDEST DUP1 PUSH2 0x102A JUMPI JUMPDEST ISZERO PUSH2 0xED4 JUMPI PUSH1 0x1 DUP2 MSTORE PUSH2 0xED4 JUMP JUMPDEST POP PUSH8 0xFFFFFFFFFFFFFFFF PUSH2 0x100 DUP4 ADD MLOAD AND PUSH1 0x3C DUP2 ADD DUP1 SWAP2 GT PUSH2 0x7E6 JUMPI TIMESTAMP GT PUSH2 0x101C JUMP JUMPDEST POP PUSH1 0x2 PUSH1 0xFF PUSH1 0xC0 DUP5 ADD MLOAD AND EQ PUSH2 0x1016 JUMP JUMPDEST POP PUSH8 0xFFFFFFFFFFFFFFFF PUSH2 0x100 DUP4 ADD MLOAD AND PUSH1 0x3C DUP2 ADD DUP1 SWAP2 GT PUSH2 0x7E6 JUMPI TIMESTAMP GT PUSH2 0xECA JUMP JUMPDEST POP PUSH1 0x1 PUSH1 0xFF PUSH1 0xC0 DUP5 ADD MLOAD AND EQ PUSH2 0xEC4 JUMP JUMPDEST PUSH1 0x40 MLOAD PUSH3 0x461BCD PUSH1 0xE5 SHL DUP2 MSTORE PUSH1 0x20 PUSH1 0x4 DUP3 ADD MSTORE PUSH1 0xC PUSH1 0x24 DUP3 ADD MSTORE PUSH12 0x47616D652069732064726177 PUSH1 0xA0 SHL PUSH1 0x44 DUP3 ADD MSTORE PUSH1 0x64 SWAP1 REVERT JUMPDEST PUSH1 0x40 MLOAD PUSH3 0x461BCD PUSH1 0xE5 SHL DUP2 MSTORE PUSH1 0x20 PUSH1 0x4 DUP3 ADD MSTORE PUSH1 0x22 PUSH1 0x24 DUP3 ADD MSTORE PUSH32 0x596F75206861766520616C726561647920636C61696D65642074686973206761 PUSH1 0x44 DUP3 ADD MSTORE PUSH2 0x6D65 PUSH1 0xF0 SHL PUSH1 0x64 DUP3 ADD MSTORE PUSH1 0x84 SWAP1 REVERT JUMPDEST SWAP1 PUSH2 0x111F PUSH2 0xD26 JUMP JUMPDEST PUSH1 0x0 DUP2 MSTORE PUSH1 0x0 PUSH1 0x20 DUP3 ADD MSTORE PUSH1 0x0 PUSH1 0x40 DUP3 ADD MSTORE PUSH1 0x0 PUSH1 0x60 DUP3 ADD MSTORE PUSH1 0x0 PUSH1 0x80 DUP3 ADD MSTORE PUSH1 0x0 PUSH1 0xA0 DUP3 ADD MSTORE PUSH1 0x0 PUSH1 0xC0 DUP3 ADD MSTORE PUSH1 0x0 PUSH1 0xE0 DUP3 ADD MSTORE PUSH1 0x0 PUSH2 0x100 DUP3 ADD MSTORE POP PUSH1 0x0 SLOAD PUSH1 0x0 NOT DUP2 ADD SWAP1 DUP2 GT PUSH2 0x7E6 JUMPI JUMPDEST PUSH2 0x1176 DUP2 PUSH2 0xA93 JUMP JUMPDEST POP SLOAD PUSH1 0x1 PUSH1 0x1 PUSH1 0xA0 SHL SUB DUP5 DUP2 AND SWAP2 AND DUP2 EQ SWAP1 DUP2 ISZERO PUSH2 0x1209 JUMPI JUMPDEST POP PUSH2 0x11F8 JUMPI DUP1 ISZERO PUSH2 0x11A9 JUMPI DUP1 ISZERO PUSH2 0x7E6 JUMPI PUSH1 0x0 NOT ADD PUSH2 0x116D JUMP JUMPDEST POP SWAP1 POP PUSH2 0x11B4 PUSH2 0xD26 JUMP JUMPDEST SWAP1 PUSH1 0x0 DUP3 MSTORE PUSH1 0x0 PUSH1 0x20 DUP4 ADD MSTORE PUSH1 0x0 PUSH1 0x40 DUP4 ADD MSTORE PUSH1 0x0 PUSH1 0x60 DUP4 ADD MSTORE PUSH1 0x0 PUSH1 0x80 DUP4 ADD MSTORE PUSH1 0x0 PUSH1 0xA0 DUP4 ADD MSTORE PUSH1 0x0 PUSH1 0xC0 DUP4 ADD MSTORE PUSH1 0x0 PUSH1 0xE0 DUP4 ADD MSTORE PUSH1 0x0 PUSH2 0x100 DUP4 ADD MSTORE PUSH1 0x0 SWAP2 SWAP1 JUMP JUMPDEST SWAP2 POP PUSH2 0x1206 PUSH2 0xE9B DUP4 PUSH2 0xA93 JUMP JUMPDEST SWAP1 JUMP JUMPDEST SWAP1 POP PUSH2 0x1214 DUP3 PUSH2 0xA93 JUMP JUMPDEST POP PUSH1 0x1 ADD SLOAD PUSH1 0x1 PUSH1 0x1 PUSH1 0xA0 SHL SUB AND EQ CODESIZE PUSH2 0x118F JUMP INVALID LOG2 PUSH5 0x6970667358 0x22 SLT KECCAK256 CALLCODE 0xD0 0x1E SWAP1 0xDC 0xA9 PUSH25 0xF1F9081839AE42E39C6E33E16E10DA7ABC8D167101F269D5D6 PUSH5 0x736F6C6343 STOP ADDMOD SHR STOP CALLER "
        },
        "methodIdentifiers": {
          "DRAW_MARK()": "78c7cee0",
          "MAX_TIME()": "26949984",
          "O()": "a0ea32de",
          "SIZE()": "bdffd282",
          "X()": "c1599bd9",
          "allGames()": "465542f0",
          "checkWin(uint256,uint256,uint256)": "110a8b99",
          "claimReward(uint256)": "ae169a50",
          "claimed(address,uint256)": "4dd6c8de",
          "createGame()": "7255d729",
          "games(uint256)": "117a5b90",
          "joinGame(uint256)": "efaa55a0",
          "makeMove(uint256,uint8,uint8,uint8)": "4a14a6cc",
          "myGame(address)": "d6afb262"
        }
      }
    }
  }
}