{
  "contracts/TicTacToe.sol": {
    "TicTacToe": {
      "abi": [
        {
          "inputs": [],
          "name": "DRAW_MARK",
          "outputs": [
            {
              "internalType": "uint256",
              "name": "",
              "type": "uint256"
            }
          ],
          "stateMutability": "view",
          "type": "function"
        },
        {
          "inputs": [],
          "name": "MAX_TIME",
          "outputs": [
            {
              "internalType": "uint256",
              "name": "",
              "type": "uint256"
            }
          ],
          "stateMutability": "view",
          "type": "function"
        },
        {
          "inputs": [],
          "name": "O",
          "outputs": [
            {
              "internalType": "uint256",
              "name": "",
              "type": "uint256"
            }
          ],
          "stateMutability": "view",
          "type": "function"
        },
        {
          "inputs": [],
          "name": "SIZE",
          "outputs": [
            {
              "internalType": "uint256",
              "name": "",
              "type": "uint256"
            }
          ],
          "stateMutability": "view",
          "type": "function"
        },
        {
          "inputs": [],
          "name": "X",
          "outputs": [
            {
              "internalType": "uint256",
              "name": "",
              "type": "uint256"
            }
          ],
          "stateMutability": "view",
          "type": "function"
        },
        {
          "inputs": [],
          "name": "allGames",
          "outputs": [
            {
              "components": [
                {
                  "internalType": "address",
                  "name": "playerX",
                  "type": "address"
                },
                {
                  "internalType": "address",
                  "name": "playerO",
                  "type": "address"
                },
                {
                  "internalType": "uint256",
                  "name": "X",
                  "type": "uint256"
                },
                {
                  "internalType": "uint256",
                  "name": "O",
                  "type": "uint256"
                },
                {
                  "internalType": "uint256",
                  "name": "betAmount",
                  "type": "uint256"
                },
                {
                  "internalType": "uint256",
                  "name": "winner",
                  "type": "uint256"
                },
                {
                  "internalType": "uint256",
                  "name": "move",
                  "type": "uint256"
                }
              ],
              "internalType": "struct TicTacToe.Game[]",
              "name": "",
              "type": "tuple[]"
            }
          ],
          "stateMutability": "view",
          "type": "function"
        },
        {
          "inputs": [
            {
              "internalType": "uint256",
              "name": "gameId",
              "type": "uint256"
            }
          ],
          "name": "cancelGame",
          "outputs": [],
          "stateMutability": "nonpayable",
          "type": "function"
        },
        {
          "inputs": [
            {
              "internalType": "uint256",
              "name": "board",
              "type": "uint256"
            },
            {
              "internalType": "uint256",
              "name": "winLine",
              "type": "uint256"
            },
            {
              "internalType": "uint256",
              "name": "start",
              "type": "uint256"
            }
          ],
          "name": "checkWin",
          "outputs": [
            {
              "internalType": "bool",
              "name": "",
              "type": "bool"
            }
          ],
          "stateMutability": "pure",
          "type": "function"
        },
        {
          "inputs": [
            {
              "internalType": "uint256",
              "name": "gameId",
              "type": "uint256"
            }
          ],
          "name": "claimDraw",
          "outputs": [],
          "stateMutability": "nonpayable",
          "type": "function"
        },
        {
          "inputs": [
            {
              "internalType": "uint256",
              "name": "gameId",
              "type": "uint256"
            }
          ],
          "name": "claimWinner",
          "outputs": [],
          "stateMutability": "nonpayable",
          "type": "function"
        },
        {
          "inputs": [
            {
              "internalType": "address",
              "name": "",
              "type": "address"
            },
            {
              "internalType": "uint256",
              "name": "",
              "type": "uint256"
            }
          ],
          "name": "claimed",
          "outputs": [
            {
              "internalType": "bool",
              "name": "",
              "type": "bool"
            }
          ],
          "stateMutability": "view",
          "type": "function"
        },
        {
          "inputs": [],
          "name": "createGame",
          "outputs": [],
          "stateMutability": "payable",
          "type": "function"
        },
        {
          "inputs": [
            {
              "internalType": "uint256",
              "name": "",
              "type": "uint256"
            }
          ],
          "name": "games",
          "outputs": [
            {
              "internalType": "address",
              "name": "playerX",
              "type": "address"
            },
            {
              "internalType": "address",
              "name": "playerO",
              "type": "address"
            },
            {
              "internalType": "uint256",
              "name": "X",
              "type": "uint256"
            },
            {
              "internalType": "uint256",
              "name": "O",
              "type": "uint256"
            },
            {
              "internalType": "uint256",
              "name": "betAmount",
              "type": "uint256"
            },
            {
              "internalType": "uint256",
              "name": "winner",
              "type": "uint256"
            },
            {
              "internalType": "uint256",
              "name": "move",
              "type": "uint256"
            }
          ],
          "stateMutability": "view",
          "type": "function"
        },
        {
          "inputs": [
            {
              "internalType": "uint256",
              "name": "gameId",
              "type": "uint256"
            }
          ],
          "name": "joinGame",
          "outputs": [],
          "stateMutability": "payable",
          "type": "function"
        },
        {
          "inputs": [
            {
              "internalType": "uint256",
              "name": "gameId",
              "type": "uint256"
            },
            {
              "internalType": "uint256",
              "name": "pos",
              "type": "uint256"
            },
            {
              "internalType": "uint256",
              "name": "winLine",
              "type": "uint256"
            },
            {
              "internalType": "uint256",
              "name": "winPos",
              "type": "uint256"
            }
          ],
          "name": "makeMove",
          "outputs": [],
          "stateMutability": "nonpayable",
          "type": "function"
        },
        {
          "inputs": [
            {
              "internalType": "address",
              "name": "add",
              "type": "address"
            }
          ],
          "name": "myGame",
          "outputs": [
            {
              "internalType": "uint256",
              "name": "index",
              "type": "uint256"
            },
            {
              "components": [
                {
                  "internalType": "address",
                  "name": "playerX",
                  "type": "address"
                },
                {
                  "internalType": "address",
                  "name": "playerO",
                  "type": "address"
                },
                {
                  "internalType": "uint256",
                  "name": "X",
                  "type": "uint256"
                },
                {
                  "internalType": "uint256",
                  "name": "O",
                  "type": "uint256"
                },
                {
                  "internalType": "uint256",
                  "name": "betAmount",
                  "type": "uint256"
                },
                {
                  "internalType": "uint256",
                  "name": "winner",
                  "type": "uint256"
                },
                {
                  "internalType": "uint256",
                  "name": "move",
                  "type": "uint256"
                }
              ],
              "internalType": "struct TicTacToe.Game",
              "name": "game",
              "type": "tuple"
            }
          ],
          "stateMutability": "view",
          "type": "function"
        },
        {
          "inputs": [
            {
              "internalType": "address",
              "name": "",
              "type": "address"
            },
            {
              "internalType": "uint256",
              "name": "",
              "type": "uint256"
            }
          ],
          "name": "playerRequestDraw",
          "outputs": [
            {
              "internalType": "bool",
              "name": "",
              "type": "bool"
            }
          ],
          "stateMutability": "view",
          "type": "function"
        },
        {
          "inputs": [
            {
              "internalType": "uint256",
              "name": "gameId",
              "type": "uint256"
            }
          ],
          "name": "quitGame",
          "outputs": [],
          "stateMutability": "nonpayable",
          "type": "function"
        },
        {
          "inputs": [
            {
              "internalType": "uint256",
              "name": "gameId",
              "type": "uint256"
            }
          ],
          "name": "requestDraw",
          "outputs": [],
          "stateMutability": "nonpayable",
          "type": "function"
        }
      ],
      "evm": {
        "bytecode": {
          "linkReferences": {},
          "object": "60808060405234601557611585908161001b8239f35b600080fdfe6080604052600436101561001257600080fd5b60003560e01c8063110a8b9914610e70578063117a5b9014610deb57806316f9921114610d435780632694998414610d27578063465542f014610c365780634dd6c8de14610be957806369958ab914610ac85780637255d729146109d357806378c7cee0146109b6578063a0ea32de1461099a578063a2d893c51461094d578063bdffd28214610931578063c1599bd914610915578063c3887ad714610684578063c9b144a8146103ba578063d49e2f5114610332578063d6afb262146102f6578063e6299a5a1461028e5763efaa55a0146100ed57600080fd5b60203660031901126102895760043561010581610e9e565b50546001600160a01b03161561024e5761011e81610e9e565b50600101546001600160a01b031661021a5761013981610e9e565b50546001600160a01b031633146101d557600461015582610e9e565b50015434036101905780600161016d61018493610e9e565b500180546001600160a01b03191633179055610e9e565b50600642910155600080f35b60405162461bcd60e51b815260206004820152601960248201527f42657420616d6f756e74206973206e6f7420636f7272656374000000000000006044820152606490fd5b60405162461bcd60e51b815260206004820152601c60248201527f596f752063616e2774206a6f696e20796f7572206f776e2067616d65000000006044820152606490fd5b60405162461bcd60e51b815260206004820152600c60248201526b11d85b59481a5cc8199d5b1b60a21b6044820152606490fd5b60405162461bcd60e51b815260206004820152601360248201527211d85b5948191bd95cc81b9bdd08195e1a5cdd606a1b6044820152606490fd5b600080fd5b34610289576020366003190112610289576102d06004356102ae81610e9e565b50546001600160a01b0316331480156102d2575b6102cb90611116565b611399565b005b506102cb6102df82610e9e565b50600101546001600160a01b0316331490506102c2565b346102895760203660031901126102895761010061033061031d610318610f3f565b6112a4565b6040929192519283526020830190610eee565bf35b346102895760203660031901126102895760043561034f81610e9e565b50546001600160a01b031633148015610396575b61036c90611116565b3360005260026020526040600020906000526020526040600020600160ff19825416179055600080f35b5061036c6103a382610e9e565b50600101546001600160a01b031633149050610363565b34610289576080366003190112610289576024356044356064356104056004356103e381610e9e565b50546001600160a01b031633148015610660575b61040090611116565b610e9e565b5091600683018054906402540be400820695610100811015610626576002860195865496600382019788548116956001851b8097166105eb57600584019a61044e8c5415611162565b80159081156105d6575b50156105a45768056bc75e2d6310000090046001036105155750506001015461048b906001600160a01b0316331461126b565b6402540be4008102908082046402540be40014901517156104ff57680ad78ebc5ac62000000180680ad78ebc5ac6200000116104ff576104cc904290610f63565b905583541780935580151592836104ed575b5050506104e757005b60029055005b6104f79350610f70565b8280806104de565b634e487b7160e01b600052601160045260246000fd5b915490975090929190610532906001600160a01b0316331461126b565b6402540be4008102908082046402540be40014901517156104ff5768056bc75e2d63100000018068056bc75e2d63100000116104ff57610573904290610f63565b9055178093558015159283610592575b50505061058c57005b60019055005b61059c9350610f70565b828080610583565b60405162461bcd60e51b815260206004820152600a602482015269054696d652069732075760b41b6044820152606490fd5b9050603c81018091116104ff5742108c610458565b60405162461bcd60e51b815260206004820152601360248201527224b73b30b634b2b2103837b9b4ba34b7b7101960691b6044820152606490fd5b60405162461bcd60e51b8152602060048201526012602482015271496e76616c696420706f736974696f6e203160701b6044820152606490fd5b5061040061066d82610e9e565b50600101546001600160a01b0316331490506103f7565b346102895760203660031901126102895761071b6107156004356106a781610e9e565b50546001600160a01b0316331480156108f1575b6106c490611116565b3360005260016020526040600020816000526020526106eb60ff6040600020541615611214565b3360005260016020526040600020816000526020526040600020600160ff19825416179055610e9e565b506111bd565b60c0810151604082015160608301516402540be40083069268056bc75e2d6310000090049117600019146108bd5760a0830191825115806108b3575b806108a0575b15610860575050600281525b80511561082b57516001811480610818575b156107c55750608001518060011b90808204600214901517156104ff576000808080938181156107bc575b3390f1156107b057005b6040513d6000823e3d90fd5b506108fc6107a6565b60021480610802575b6107d457005b608001518060011b90808204600214901517156104ff576000808080938181156107bc573390f1156107b057005b5060208101516001600160a01b031633146107ce565b5081516001600160a01b0316331461077b565b60405162461bcd60e51b815260206004820152600d60248201526c139bc81dda5b9b995c881e595d609a1b6044820152606490fd5b8251159182610895575b5081610880575b50156107695760018152610769565b9050603c81018091116104ff57421183610871565b60021491508461086a565b50603c81018082116104ff57421161075d565b5060018214610757565b60405162461bcd60e51b815260206004820152600c60248201526b47616d65206973206472617760a01b6044820152606490fd5b506106c46108fe82610e9e565b50600101546001600160a01b0316331490506106bb565b3461028957600036600319011261028957602060405160018152f35b3461028957600036600319011261028957602060405160108152f35b34610289576040366003190112610289576001600160a01b0361096e610f3f565b1660005260026020526040600020602435600052602052602060ff604060002054166040519015158152f35b3461028957600036600319011261028957602060405160028152f35b346102895760003660031901126102895760206040516000198152f35b6000366003190112610289576109e761119d565b338152602081019060008252604081016000815260608201600081526080830134815260a08401916000835260c08501936000855260005468010000000000000000811015610ab257806001610a409201600055610e9e565b979097610a9c57955187546001600160a01b03199081166001600160a01b039283161789559651600189018054909816911617909555935160028601559251600385015591516004840155905160058301555160069190910155005b634e487b7160e01b600052600060045260246000fd5b634e487b7160e01b600052604160045260246000fd5b3461028957602036600319011261028957600435610ae581610e9e565b50546001600160a01b031633148015610bc5575b610b0290611116565b610b0e61071582610e9e565b80519091906001600160a01b0316158015610bb0575b15610b7b57610b3290610e9e565b919091610a9c57600080806080819482600688828155826001820155826002820155826003820155826004820155826005820155015501518181156107bc573390f1156107b057005b60405162461bcd60e51b815260206004820152600d60248201526c10d85b9b9bdd0818d85b98d95b609a1b6044820152606490fd5b5060208201516001600160a01b031615610b24565b50610b02610bd282610e9e565b50600101546001600160a01b031633149050610af9565b34610289576040366003190112610289576001600160a01b03610c0a610f3f565b1660005260016020526040600020602435600052602052602060ff604060002054166040519015158152f35b346102895760003660031901126102895760005467ffffffffffffffff8111610ab25760405190601f19603f8260051b0116820182811067ffffffffffffffff821117610ab257604052808252602082019081600080527f290decd9548b62a8d60345a988386fc84ba6bc95484008f6362f93160ef3e5636000915b838310610d095784866040519182916020830190602084525180915260408301919060005b818110610ce5575050500390f35b91935091602060e082610cfb6001948851610eee565b019401910191849392610cd7565b60076020600192610d19856111bd565b815201920192019190610cb2565b34610289576000366003190112610289576020604051603c8152f35b3461028957602036600319011261028957610d636004356103e381610e9e565b506005810190610d74825415611162565b80546001600160a01b0316908115159081610dd4575b5015610d9c57330361058c5760029055005b60405162461bcd60e51b815260206004820152601060248201526f11d85b59481a5cc81b9bdd08199d5b1b60821b6044820152606490fd5b600101546001600160a01b03161515905083610d8a565b346102895760203660031901126102895760043560005481101561028957610e1460e091610e9e565b50805460018201546002830154600384015460048501546005860154600690960154604080516001600160a01b039788168152959096166020860152948401929092526060830152608082015260a081019290925260c0820152f35b34610289576060366003190112610289576020610e94604435602435600435610f70565b6040519015158152f35b600054811015610ed85760008080526007919091027f290decd9548b62a8d60345a988386fc84ba6bc95484008f6362f93160ef3e5630191565b634e487b7160e01b600052603260045260246000fd5b60c0809160018060a01b03815116845260018060a01b03602082015116602085015260408101516040850152606081015160608501526080810151608085015260a081015160a08501520151910152565b600435906001600160a01b038216820361028957565b90604082018092116104ff57565b919082018092116104ff57565b909161010081101561110e57600092600181146110c2575b60028114611080575b60038114611014575b600414610fa9575b5081161490565b92906004600f8516108015611006575b610ffd5783925b610fc985610f55565b60031981019081116104ff578411610ff2576001841b1792600f81018091116104ff5792610fc0565b925090925038610fa2565b50915050600090565b50600c8460041c1015610fb9565b939190600c600f821610801590611072575b6110685780935b61103682610f55565b600481018091116104ff57851161105e576001851b1793601181018091116104ff579361102d565b9350909193610f9a565b5050915050600090565b50600c8160041c1015611026565b939190600c8160041c10156110685780935b61109b82610f55565b85116110b8576001851b1793601081018091116104ff5793611092565b9350909193610f91565b939190600c600f821610156111075780935b600482018083116104ff5785116110fd576001851b179360001981146104ff57600101936110d4565b9350909193610f88565b5050915090565b505050600090565b1561111d57565b60405162461bcd60e51b815260206004820152601860248201527f596f7520617265206e6f7420696e20746869732067616d6500000000000000006044820152606490fd5b1561116957565b60405162461bcd60e51b815260206004820152600c60248201526b23b0b6b29034b99037bb32b960a11b6044820152606490fd5b6040519060e0820182811067ffffffffffffffff821117610ab257604052565b9060066111c861119d565b83546001600160a01b0390811682526001850154166020820152600284015460408201526003840154606082015260048401546080820152600584015460a082015292015460c0830152565b1561121b57565b60405162461bcd60e51b815260206004820152602260248201527f596f75206861766520616c726561647920636c61696d656420746869732067616044820152616d6560f01b6064820152608490fd5b1561127257565b60405162461bcd60e51b815260206004820152600a6024820152692bb937b733903a3ab93760b11b6044820152606490fd5b906112ad61119d565b6000815260006020820152600060408201526000606082015260006080820152600060a0820152600060c08201525060005460001981019081116104ff575b6112f581610e9e565b50546001600160a01b0384811691168114908115611379575b506113685780156113285780156104ff57600019016112ec565b50905061133361119d565b906000825260006020830152600060408301526000606083015260006080830152600060a0830152600060c083015260009190565b915061137661071583610e9e565b90565b905061138482610e9e565b50600101546001600160a01b0316143861130e565b3360005260016020526040600020816000526020526113c060ff6040600020541615611214565b3360005260016020526040600020816000526020526040600020600160ff198254161790556113f161071582610e9e565b9060c0820168056bc75e2d631000006402540be4008251069151041590811561153a575b506114ef5760a082015161150b576040820151606083015117600019146114ef5760018060a01b03825116600052600260205260406000208160005260205260ff6040600020541690816114bd575b506114985760405162461bcd60e51b81526020600482015260076024820152664e6f204472617760c81b6044820152606490fd5b600080806080819401518181156114b4575b3390f1156107b057565b506108fc6114aa565b905060018060a01b03602083015116600052600260205260406000209060005260205260ff6040600020541638611464565b50600080806080819401518181156114b4573390f1156107b057565b60405162461bcd60e51b81526020600482015260076024820152664e6f204472617760c81b6044820152606490fd5b9050603c81018091116104ff5742103861141556fea2646970667358221220c3a37457e93e603274c92cb41432edbfd1ed0134ebf621903a7005ab8400f59964736f6c634300081c0033",
          "opcodes": "PUSH1 0x80 DUP1 PUSH1 0x40 MSTORE CALLVALUE PUSH1 0x15 JUMPI PUSH2 0x1585 SWAP1 DUP2 PUSH2 0x1B DUP3 CODECOPY RETURN JUMPDEST PUSH1 0x0 DUP1 REVERT INVALID PUSH1 0x80 PUSH1 0x40 MSTORE PUSH1 0x4 CALLDATASIZE LT ISZERO PUSH2 0x12 JUMPI PUSH1 0x0 DUP1 REVERT JUMPDEST PUSH1 0x0 CALLDATALOAD PUSH1 0xE0 SHR DUP1 PUSH4 0x110A8B99 EQ PUSH2 0xE70 JUMPI DUP1 PUSH4 0x117A5B90 EQ PUSH2 0xDEB JUMPI DUP1 PUSH4 0x16F99211 EQ PUSH2 0xD43 JUMPI DUP1 PUSH4 0x26949984 EQ PUSH2 0xD27 JUMPI DUP1 PUSH4 0x465542F0 EQ PUSH2 0xC36 JUMPI DUP1 PUSH4 0x4DD6C8DE EQ PUSH2 0xBE9 JUMPI DUP1 PUSH4 0x69958AB9 EQ PUSH2 0xAC8 JUMPI DUP1 PUSH4 0x7255D729 EQ PUSH2 0x9D3 JUMPI DUP1 PUSH4 0x78C7CEE0 EQ PUSH2 0x9B6 JUMPI DUP1 PUSH4 0xA0EA32DE EQ PUSH2 0x99A JUMPI DUP1 PUSH4 0xA2D893C5 EQ PUSH2 0x94D JUMPI DUP1 PUSH4 0xBDFFD282 EQ PUSH2 0x931 JUMPI DUP1 PUSH4 0xC1599BD9 EQ PUSH2 0x915 JUMPI DUP1 PUSH4 0xC3887AD7 EQ PUSH2 0x684 JUMPI DUP1 PUSH4 0xC9B144A8 EQ PUSH2 0x3BA JUMPI DUP1 PUSH4 0xD49E2F51 EQ PUSH2 0x332 JUMPI DUP1 PUSH4 0xD6AFB262 EQ PUSH2 0x2F6 JUMPI DUP1 PUSH4 0xE6299A5A EQ PUSH2 0x28E JUMPI PUSH4 0xEFAA55A0 EQ PUSH2 0xED JUMPI PUSH1 0x0 DUP1 REVERT JUMPDEST PUSH1 0x20 CALLDATASIZE PUSH1 0x3 NOT ADD SLT PUSH2 0x289 JUMPI PUSH1 0x4 CALLDATALOAD PUSH2 0x105 DUP2 PUSH2 0xE9E JUMP JUMPDEST POP SLOAD PUSH1 0x1 PUSH1 0x1 PUSH1 0xA0 SHL SUB AND ISZERO PUSH2 0x24E JUMPI PUSH2 0x11E DUP2 PUSH2 0xE9E JUMP JUMPDEST POP PUSH1 0x1 ADD SLOAD PUSH1 0x1 PUSH1 0x1 PUSH1 0xA0 SHL SUB AND PUSH2 0x21A JUMPI PUSH2 0x139 DUP2 PUSH2 0xE9E JUMP JUMPDEST POP SLOAD PUSH1 0x1 PUSH1 0x1 PUSH1 0xA0 SHL SUB AND CALLER EQ PUSH2 0x1D5 JUMPI PUSH1 0x4 PUSH2 0x155 DUP3 PUSH2 0xE9E JUMP JUMPDEST POP ADD SLOAD CALLVALUE SUB PUSH2 0x190 JUMPI DUP1 PUSH1 0x1 PUSH2 0x16D PUSH2 0x184 SWAP4 PUSH2 0xE9E JUMP JUMPDEST POP ADD DUP1 SLOAD PUSH1 0x1 PUSH1 0x1 PUSH1 0xA0 SHL SUB NOT AND CALLER OR SWAP1 SSTORE PUSH2 0xE9E JUMP JUMPDEST POP PUSH1 0x6 TIMESTAMP SWAP2 ADD SSTORE PUSH1 0x0 DUP1 RETURN JUMPDEST PUSH1 0x40 MLOAD PUSH3 0x461BCD PUSH1 0xE5 SHL DUP2 MSTORE PUSH1 0x20 PUSH1 0x4 DUP3 ADD MSTORE PUSH1 0x19 PUSH1 0x24 DUP3 ADD MSTORE PUSH32 0x42657420616D6F756E74206973206E6F7420636F727265637400000000000000 PUSH1 0x44 DUP3 ADD MSTORE PUSH1 0x64 SWAP1 REVERT JUMPDEST PUSH1 0x40 MLOAD PUSH3 0x461BCD PUSH1 0xE5 SHL DUP2 MSTORE PUSH1 0x20 PUSH1 0x4 DUP3 ADD MSTORE PUSH1 0x1C PUSH1 0x24 DUP3 ADD MSTORE PUSH32 0x596F752063616E2774206A6F696E20796F7572206F776E2067616D6500000000 PUSH1 0x44 DUP3 ADD MSTORE PUSH1 0x64 SWAP1 REVERT JUMPDEST PUSH1 0x40 MLOAD PUSH3 0x461BCD PUSH1 0xE5 SHL DUP2 MSTORE PUSH1 0x20 PUSH1 0x4 DUP3 ADD MSTORE PUSH1 0xC PUSH1 0x24 DUP3 ADD MSTORE PUSH12 0x11D85B59481A5CC8199D5B1B PUSH1 0xA2 SHL PUSH1 0x44 DUP3 ADD MSTORE PUSH1 0x64 SWAP1 REVERT JUMPDEST PUSH1 0x40 MLOAD PUSH3 0x461BCD PUSH1 0xE5 SHL DUP2 MSTORE PUSH1 0x20 PUSH1 0x4 DUP3 ADD MSTORE PUSH1 0x13 PUSH1 0x24 DUP3 ADD MSTORE PUSH19 0x11D85B5948191BD95CC81B9BDD08195E1A5CDD PUSH1 0x6A SHL PUSH1 0x44 DUP3 ADD MSTORE PUSH1 0x64 SWAP1 REVERT JUMPDEST PUSH1 0x0 DUP1 REVERT JUMPDEST CALLVALUE PUSH2 0x289 JUMPI PUSH1 0x20 CALLDATASIZE PUSH1 0x3 NOT ADD SLT PUSH2 0x289 JUMPI PUSH2 0x2D0 PUSH1 0x4 CALLDATALOAD PUSH2 0x2AE DUP2 PUSH2 0xE9E JUMP JUMPDEST POP SLOAD PUSH1 0x1 PUSH1 0x1 PUSH1 0xA0 SHL SUB AND CALLER EQ DUP1 ISZERO PUSH2 0x2D2 JUMPI JUMPDEST PUSH2 0x2CB SWAP1 PUSH2 0x1116 JUMP JUMPDEST PUSH2 0x1399 JUMP JUMPDEST STOP JUMPDEST POP PUSH2 0x2CB PUSH2 0x2DF DUP3 PUSH2 0xE9E JUMP JUMPDEST POP PUSH1 0x1 ADD SLOAD PUSH1 0x1 PUSH1 0x1 PUSH1 0xA0 SHL SUB AND CALLER EQ SWAP1 POP PUSH2 0x2C2 JUMP JUMPDEST CALLVALUE PUSH2 0x289 JUMPI PUSH1 0x20 CALLDATASIZE PUSH1 0x3 NOT ADD SLT PUSH2 0x289 JUMPI PUSH2 0x100 PUSH2 0x330 PUSH2 0x31D PUSH2 0x318 PUSH2 0xF3F JUMP JUMPDEST PUSH2 0x12A4 JUMP JUMPDEST PUSH1 0x40 SWAP3 SWAP2 SWAP3 MLOAD SWAP3 DUP4 MSTORE PUSH1 0x20 DUP4 ADD SWAP1 PUSH2 0xEEE JUMP JUMPDEST RETURN JUMPDEST CALLVALUE PUSH2 0x289 JUMPI PUSH1 0x20 CALLDATASIZE PUSH1 0x3 NOT ADD SLT PUSH2 0x289 JUMPI PUSH1 0x4 CALLDATALOAD PUSH2 0x34F DUP2 PUSH2 0xE9E JUMP JUMPDEST POP SLOAD PUSH1 0x1 PUSH1 0x1 PUSH1 0xA0 SHL SUB AND CALLER EQ DUP1 ISZERO PUSH2 0x396 JUMPI JUMPDEST PUSH2 0x36C SWAP1 PUSH2 0x1116 JUMP JUMPDEST CALLER PUSH1 0x0 MSTORE PUSH1 0x2 PUSH1 0x20 MSTORE PUSH1 0x40 PUSH1 0x0 KECCAK256 SWAP1 PUSH1 0x0 MSTORE PUSH1 0x20 MSTORE PUSH1 0x40 PUSH1 0x0 KECCAK256 PUSH1 0x1 PUSH1 0xFF NOT DUP3 SLOAD AND OR SWAP1 SSTORE PUSH1 0x0 DUP1 RETURN JUMPDEST POP PUSH2 0x36C PUSH2 0x3A3 DUP3 PUSH2 0xE9E JUMP JUMPDEST POP PUSH1 0x1 ADD SLOAD PUSH1 0x1 PUSH1 0x1 PUSH1 0xA0 SHL SUB AND CALLER EQ SWAP1 POP PUSH2 0x363 JUMP JUMPDEST CALLVALUE PUSH2 0x289 JUMPI PUSH1 0x80 CALLDATASIZE PUSH1 0x3 NOT ADD SLT PUSH2 0x289 JUMPI PUSH1 0x24 CALLDATALOAD PUSH1 0x44 CALLDATALOAD PUSH1 0x64 CALLDATALOAD PUSH2 0x405 PUSH1 0x4 CALLDATALOAD PUSH2 0x3E3 DUP2 PUSH2 0xE9E JUMP JUMPDEST POP SLOAD PUSH1 0x1 PUSH1 0x1 PUSH1 0xA0 SHL SUB AND CALLER EQ DUP1 ISZERO PUSH2 0x660 JUMPI JUMPDEST PUSH2 0x400 SWAP1 PUSH2 0x1116 JUMP JUMPDEST PUSH2 0xE9E JUMP JUMPDEST POP SWAP2 PUSH1 0x6 DUP4 ADD DUP1 SLOAD SWAP1 PUSH5 0x2540BE400 DUP3 MOD SWAP6 PUSH2 0x100 DUP2 LT ISZERO PUSH2 0x626 JUMPI PUSH1 0x2 DUP7 ADD SWAP6 DUP7 SLOAD SWAP7 PUSH1 0x3 DUP3 ADD SWAP8 DUP9 SLOAD DUP2 AND SWAP6 PUSH1 0x1 DUP6 SHL DUP1 SWAP8 AND PUSH2 0x5EB JUMPI PUSH1 0x5 DUP5 ADD SWAP11 PUSH2 0x44E DUP13 SLOAD ISZERO PUSH2 0x1162 JUMP JUMPDEST DUP1 ISZERO SWAP1 DUP2 ISZERO PUSH2 0x5D6 JUMPI JUMPDEST POP ISZERO PUSH2 0x5A4 JUMPI PUSH9 0x56BC75E2D63100000 SWAP1 DIV PUSH1 0x1 SUB PUSH2 0x515 JUMPI POP POP PUSH1 0x1 ADD SLOAD PUSH2 0x48B SWAP1 PUSH1 0x1 PUSH1 0x1 PUSH1 0xA0 SHL SUB AND CALLER EQ PUSH2 0x126B JUMP JUMPDEST PUSH5 0x2540BE400 DUP2 MUL SWAP1 DUP1 DUP3 DIV PUSH5 0x2540BE400 EQ SWAP1 ISZERO OR ISZERO PUSH2 0x4FF JUMPI PUSH9 0xAD78EBC5AC6200000 ADD DUP1 PUSH9 0xAD78EBC5AC6200000 GT PUSH2 0x4FF JUMPI PUSH2 0x4CC SWAP1 TIMESTAMP SWAP1 PUSH2 0xF63 JUMP JUMPDEST SWAP1 SSTORE DUP4 SLOAD OR DUP1 SWAP4 SSTORE DUP1 ISZERO ISZERO SWAP3 DUP4 PUSH2 0x4ED JUMPI JUMPDEST POP POP POP PUSH2 0x4E7 JUMPI STOP JUMPDEST PUSH1 0x2 SWAP1 SSTORE STOP JUMPDEST PUSH2 0x4F7 SWAP4 POP PUSH2 0xF70 JUMP JUMPDEST DUP3 DUP1 DUP1 PUSH2 0x4DE JUMP JUMPDEST PUSH4 0x4E487B71 PUSH1 0xE0 SHL PUSH1 0x0 MSTORE PUSH1 0x11 PUSH1 0x4 MSTORE PUSH1 0x24 PUSH1 0x0 REVERT JUMPDEST SWAP2 SLOAD SWAP1 SWAP8 POP SWAP1 SWAP3 SWAP2 SWAP1 PUSH2 0x532 SWAP1 PUSH1 0x1 PUSH1 0x1 PUSH1 0xA0 SHL SUB AND CALLER EQ PUSH2 0x126B JUMP JUMPDEST PUSH5 0x2540BE400 DUP2 MUL SWAP1 DUP1 DUP3 DIV PUSH5 0x2540BE400 EQ SWAP1 ISZERO OR ISZERO PUSH2 0x4FF JUMPI PUSH9 0x56BC75E2D63100000 ADD DUP1 PUSH9 0x56BC75E2D63100000 GT PUSH2 0x4FF JUMPI PUSH2 0x573 SWAP1 TIMESTAMP SWAP1 PUSH2 0xF63 JUMP JUMPDEST SWAP1 SSTORE OR DUP1 SWAP4 SSTORE DUP1 ISZERO ISZERO SWAP3 DUP4 PUSH2 0x592 JUMPI JUMPDEST POP POP POP PUSH2 0x58C JUMPI STOP JUMPDEST PUSH1 0x1 SWAP1 SSTORE STOP JUMPDEST PUSH2 0x59C SWAP4 POP PUSH2 0xF70 JUMP JUMPDEST DUP3 DUP1 DUP1 PUSH2 0x583 JUMP JUMPDEST PUSH1 0x40 MLOAD PUSH3 0x461BCD PUSH1 0xE5 SHL DUP2 MSTORE PUSH1 0x20 PUSH1 0x4 DUP3 ADD MSTORE PUSH1 0xA PUSH1 0x24 DUP3 ADD MSTORE PUSH10 0x54696D6520697320757 PUSH1 0xB4 SHL PUSH1 0x44 DUP3 ADD MSTORE PUSH1 0x64 SWAP1 REVERT JUMPDEST SWAP1 POP PUSH1 0x3C DUP2 ADD DUP1 SWAP2 GT PUSH2 0x4FF JUMPI TIMESTAMP LT DUP13 PUSH2 0x458 JUMP JUMPDEST PUSH1 0x40 MLOAD PUSH3 0x461BCD PUSH1 0xE5 SHL DUP2 MSTORE PUSH1 0x20 PUSH1 0x4 DUP3 ADD MSTORE PUSH1 0x13 PUSH1 0x24 DUP3 ADD MSTORE PUSH19 0x24B73B30B634B2B2103837B9B4BA34B7B71019 PUSH1 0x69 SHL PUSH1 0x44 DUP3 ADD MSTORE PUSH1 0x64 SWAP1 REVERT JUMPDEST PUSH1 0x40 MLOAD PUSH3 0x461BCD PUSH1 0xE5 SHL DUP2 MSTORE PUSH1 0x20 PUSH1 0x4 DUP3 ADD MSTORE PUSH1 0x12 PUSH1 0x24 DUP3 ADD MSTORE PUSH18 0x496E76616C696420706F736974696F6E2031 PUSH1 0x70 SHL PUSH1 0x44 DUP3 ADD MSTORE PUSH1 0x64 SWAP1 REVERT JUMPDEST POP PUSH2 0x400 PUSH2 0x66D DUP3 PUSH2 0xE9E JUMP JUMPDEST POP PUSH1 0x1 ADD SLOAD PUSH1 0x1 PUSH1 0x1 PUSH1 0xA0 SHL SUB AND CALLER EQ SWAP1 POP PUSH2 0x3F7 JUMP JUMPDEST CALLVALUE PUSH2 0x289 JUMPI PUSH1 0x20 CALLDATASIZE PUSH1 0x3 NOT ADD SLT PUSH2 0x289 JUMPI PUSH2 0x71B PUSH2 0x715 PUSH1 0x4 CALLDATALOAD PUSH2 0x6A7 DUP2 PUSH2 0xE9E JUMP JUMPDEST POP SLOAD PUSH1 0x1 PUSH1 0x1 PUSH1 0xA0 SHL SUB AND CALLER EQ DUP1 ISZERO PUSH2 0x8F1 JUMPI JUMPDEST PUSH2 0x6C4 SWAP1 PUSH2 0x1116 JUMP JUMPDEST CALLER PUSH1 0x0 MSTORE PUSH1 0x1 PUSH1 0x20 MSTORE PUSH1 0x40 PUSH1 0x0 KECCAK256 DUP2 PUSH1 0x0 MSTORE PUSH1 0x20 MSTORE PUSH2 0x6EB PUSH1 0xFF PUSH1 0x40 PUSH1 0x0 KECCAK256 SLOAD AND ISZERO PUSH2 0x1214 JUMP JUMPDEST CALLER PUSH1 0x0 MSTORE PUSH1 0x1 PUSH1 0x20 MSTORE PUSH1 0x40 PUSH1 0x0 KECCAK256 DUP2 PUSH1 0x0 MSTORE PUSH1 0x20 MSTORE PUSH1 0x40 PUSH1 0x0 KECCAK256 PUSH1 0x1 PUSH1 0xFF NOT DUP3 SLOAD AND OR SWAP1 SSTORE PUSH2 0xE9E JUMP JUMPDEST POP PUSH2 0x11BD JUMP JUMPDEST PUSH1 0xC0 DUP2 ADD MLOAD PUSH1 0x40 DUP3 ADD MLOAD PUSH1 0x60 DUP4 ADD MLOAD PUSH5 0x2540BE400 DUP4 MOD SWAP3 PUSH9 0x56BC75E2D63100000 SWAP1 DIV SWAP2 OR PUSH1 0x0 NOT EQ PUSH2 0x8BD JUMPI PUSH1 0xA0 DUP4 ADD SWAP2 DUP3 MLOAD ISZERO DUP1 PUSH2 0x8B3 JUMPI JUMPDEST DUP1 PUSH2 0x8A0 JUMPI JUMPDEST ISZERO PUSH2 0x860 JUMPI POP POP PUSH1 0x2 DUP2 MSTORE JUMPDEST DUP1 MLOAD ISZERO PUSH2 0x82B JUMPI MLOAD PUSH1 0x1 DUP2 EQ DUP1 PUSH2 0x818 JUMPI JUMPDEST ISZERO PUSH2 0x7C5 JUMPI POP PUSH1 0x80 ADD MLOAD DUP1 PUSH1 0x1 SHL SWAP1 DUP1 DUP3 DIV PUSH1 0x2 EQ SWAP1 ISZERO OR ISZERO PUSH2 0x4FF JUMPI PUSH1 0x0 DUP1 DUP1 DUP1 SWAP4 DUP2 DUP2 ISZERO PUSH2 0x7BC JUMPI JUMPDEST CALLER SWAP1 CALL ISZERO PUSH2 0x7B0 JUMPI STOP JUMPDEST PUSH1 0x40 MLOAD RETURNDATASIZE PUSH1 0x0 DUP3 RETURNDATACOPY RETURNDATASIZE SWAP1 REVERT JUMPDEST POP PUSH2 0x8FC PUSH2 0x7A6 JUMP JUMPDEST PUSH1 0x2 EQ DUP1 PUSH2 0x802 JUMPI JUMPDEST PUSH2 0x7D4 JUMPI STOP JUMPDEST PUSH1 0x80 ADD MLOAD DUP1 PUSH1 0x1 SHL SWAP1 DUP1 DUP3 DIV PUSH1 0x2 EQ SWAP1 ISZERO OR ISZERO PUSH2 0x4FF JUMPI PUSH1 0x0 DUP1 DUP1 DUP1 SWAP4 DUP2 DUP2 ISZERO PUSH2 0x7BC JUMPI CALLER SWAP1 CALL ISZERO PUSH2 0x7B0 JUMPI STOP JUMPDEST POP PUSH1 0x20 DUP2 ADD MLOAD PUSH1 0x1 PUSH1 0x1 PUSH1 0xA0 SHL SUB AND CALLER EQ PUSH2 0x7CE JUMP JUMPDEST POP DUP2 MLOAD PUSH1 0x1 PUSH1 0x1 PUSH1 0xA0 SHL SUB AND CALLER EQ PUSH2 0x77B JUMP JUMPDEST PUSH1 0x40 MLOAD PUSH3 0x461BCD PUSH1 0xE5 SHL DUP2 MSTORE PUSH1 0x20 PUSH1 0x4 DUP3 ADD MSTORE PUSH1 0xD PUSH1 0x24 DUP3 ADD MSTORE PUSH13 0x139BC81DDA5B9B995C881E595D PUSH1 0x9A SHL PUSH1 0x44 DUP3 ADD MSTORE PUSH1 0x64 SWAP1 REVERT JUMPDEST DUP3 MLOAD ISZERO SWAP2 DUP3 PUSH2 0x895 JUMPI JUMPDEST POP DUP2 PUSH2 0x880 JUMPI JUMPDEST POP ISZERO PUSH2 0x769 JUMPI PUSH1 0x1 DUP2 MSTORE PUSH2 0x769 JUMP JUMPDEST SWAP1 POP PUSH1 0x3C DUP2 ADD DUP1 SWAP2 GT PUSH2 0x4FF JUMPI TIMESTAMP GT DUP4 PUSH2 0x871 JUMP JUMPDEST PUSH1 0x2 EQ SWAP2 POP DUP5 PUSH2 0x86A JUMP JUMPDEST POP PUSH1 0x3C DUP2 ADD DUP1 DUP3 GT PUSH2 0x4FF JUMPI TIMESTAMP GT PUSH2 0x75D JUMP JUMPDEST POP PUSH1 0x1 DUP3 EQ PUSH2 0x757 JUMP JUMPDEST PUSH1 0x40 MLOAD PUSH3 0x461BCD PUSH1 0xE5 SHL DUP2 MSTORE PUSH1 0x20 PUSH1 0x4 DUP3 ADD MSTORE PUSH1 0xC PUSH1 0x24 DUP3 ADD MSTORE PUSH12 0x47616D652069732064726177 PUSH1 0xA0 SHL PUSH1 0x44 DUP3 ADD MSTORE PUSH1 0x64 SWAP1 REVERT JUMPDEST POP PUSH2 0x6C4 PUSH2 0x8FE DUP3 PUSH2 0xE9E JUMP JUMPDEST POP PUSH1 0x1 ADD SLOAD PUSH1 0x1 PUSH1 0x1 PUSH1 0xA0 SHL SUB AND CALLER EQ SWAP1 POP PUSH2 0x6BB JUMP JUMPDEST CALLVALUE PUSH2 0x289 JUMPI PUSH1 0x0 CALLDATASIZE PUSH1 0x3 NOT ADD SLT PUSH2 0x289 JUMPI PUSH1 0x20 PUSH1 0x40 MLOAD PUSH1 0x1 DUP2 MSTORE RETURN JUMPDEST CALLVALUE PUSH2 0x289 JUMPI PUSH1 0x0 CALLDATASIZE PUSH1 0x3 NOT ADD SLT PUSH2 0x289 JUMPI PUSH1 0x20 PUSH1 0x40 MLOAD PUSH1 0x10 DUP2 MSTORE RETURN JUMPDEST CALLVALUE PUSH2 0x289 JUMPI PUSH1 0x40 CALLDATASIZE PUSH1 0x3 NOT ADD SLT PUSH2 0x289 JUMPI PUSH1 0x1 PUSH1 0x1 PUSH1 0xA0 SHL SUB PUSH2 0x96E PUSH2 0xF3F JUMP JUMPDEST AND PUSH1 0x0 MSTORE PUSH1 0x2 PUSH1 0x20 MSTORE PUSH1 0x40 PUSH1 0x0 KECCAK256 PUSH1 0x24 CALLDATALOAD PUSH1 0x0 MSTORE PUSH1 0x20 MSTORE PUSH1 0x20 PUSH1 0xFF PUSH1 0x40 PUSH1 0x0 KECCAK256 SLOAD AND PUSH1 0x40 MLOAD SWAP1 ISZERO ISZERO DUP2 MSTORE RETURN JUMPDEST CALLVALUE PUSH2 0x289 JUMPI PUSH1 0x0 CALLDATASIZE PUSH1 0x3 NOT ADD SLT PUSH2 0x289 JUMPI PUSH1 0x20 PUSH1 0x40 MLOAD PUSH1 0x2 DUP2 MSTORE RETURN JUMPDEST CALLVALUE PUSH2 0x289 JUMPI PUSH1 0x0 CALLDATASIZE PUSH1 0x3 NOT ADD SLT PUSH2 0x289 JUMPI PUSH1 0x20 PUSH1 0x40 MLOAD PUSH1 0x0 NOT DUP2 MSTORE RETURN JUMPDEST PUSH1 0x0 CALLDATASIZE PUSH1 0x3 NOT ADD SLT PUSH2 0x289 JUMPI PUSH2 0x9E7 PUSH2 0x119D JUMP JUMPDEST CALLER DUP2 MSTORE PUSH1 0x20 DUP2 ADD SWAP1 PUSH1 0x0 DUP3 MSTORE PUSH1 0x40 DUP2 ADD PUSH1 0x0 DUP2 MSTORE PUSH1 0x60 DUP3 ADD PUSH1 0x0 DUP2 MSTORE PUSH1 0x80 DUP4 ADD CALLVALUE DUP2 MSTORE PUSH1 0xA0 DUP5 ADD SWAP2 PUSH1 0x0 DUP4 MSTORE PUSH1 0xC0 DUP6 ADD SWAP4 PUSH1 0x0 DUP6 MSTORE PUSH1 0x0 SLOAD PUSH9 0x10000000000000000 DUP2 LT ISZERO PUSH2 0xAB2 JUMPI DUP1 PUSH1 0x1 PUSH2 0xA40 SWAP3 ADD PUSH1 0x0 SSTORE PUSH2 0xE9E JUMP JUMPDEST SWAP8 SWAP1 SWAP8 PUSH2 0xA9C JUMPI SWAP6 MLOAD DUP8 SLOAD PUSH1 0x1 PUSH1 0x1 PUSH1 0xA0 SHL SUB NOT SWAP1 DUP2 AND PUSH1 0x1 PUSH1 0x1 PUSH1 0xA0 SHL SUB SWAP3 DUP4 AND OR DUP10 SSTORE SWAP7 MLOAD PUSH1 0x1 DUP10 ADD DUP1 SLOAD SWAP1 SWAP9 AND SWAP2 AND OR SWAP1 SWAP6 SSTORE SWAP4 MLOAD PUSH1 0x2 DUP7 ADD SSTORE SWAP3 MLOAD PUSH1 0x3 DUP6 ADD SSTORE SWAP2 MLOAD PUSH1 0x4 DUP5 ADD SSTORE SWAP1 MLOAD PUSH1 0x5 DUP4 ADD SSTORE MLOAD PUSH1 0x6 SWAP2 SWAP1 SWAP2 ADD SSTORE STOP JUMPDEST PUSH4 0x4E487B71 PUSH1 0xE0 SHL PUSH1 0x0 MSTORE PUSH1 0x0 PUSH1 0x4 MSTORE PUSH1 0x24 PUSH1 0x0 REVERT JUMPDEST PUSH4 0x4E487B71 PUSH1 0xE0 SHL PUSH1 0x0 MSTORE PUSH1 0x41 PUSH1 0x4 MSTORE PUSH1 0x24 PUSH1 0x0 REVERT JUMPDEST CALLVALUE PUSH2 0x289 JUMPI PUSH1 0x20 CALLDATASIZE PUSH1 0x3 NOT ADD SLT PUSH2 0x289 JUMPI PUSH1 0x4 CALLDATALOAD PUSH2 0xAE5 DUP2 PUSH2 0xE9E JUMP JUMPDEST POP SLOAD PUSH1 0x1 PUSH1 0x1 PUSH1 0xA0 SHL SUB AND CALLER EQ DUP1 ISZERO PUSH2 0xBC5 JUMPI JUMPDEST PUSH2 0xB02 SWAP1 PUSH2 0x1116 JUMP JUMPDEST PUSH2 0xB0E PUSH2 0x715 DUP3 PUSH2 0xE9E JUMP JUMPDEST DUP1 MLOAD SWAP1 SWAP2 SWAP1 PUSH1 0x1 PUSH1 0x1 PUSH1 0xA0 SHL SUB AND ISZERO DUP1 ISZERO PUSH2 0xBB0 JUMPI JUMPDEST ISZERO PUSH2 0xB7B JUMPI PUSH2 0xB32 SWAP1 PUSH2 0xE9E JUMP JUMPDEST SWAP2 SWAP1 SWAP2 PUSH2 0xA9C JUMPI PUSH1 0x0 DUP1 DUP1 PUSH1 0x80 DUP2 SWAP5 DUP3 PUSH1 0x6 DUP9 DUP3 DUP2 SSTORE DUP3 PUSH1 0x1 DUP3 ADD SSTORE DUP3 PUSH1 0x2 DUP3 ADD SSTORE DUP3 PUSH1 0x3 DUP3 ADD SSTORE DUP3 PUSH1 0x4 DUP3 ADD SSTORE DUP3 PUSH1 0x5 DUP3 ADD SSTORE ADD SSTORE ADD MLOAD DUP2 DUP2 ISZERO PUSH2 0x7BC JUMPI CALLER SWAP1 CALL ISZERO PUSH2 0x7B0 JUMPI STOP JUMPDEST PUSH1 0x40 MLOAD PUSH3 0x461BCD PUSH1 0xE5 SHL DUP2 MSTORE PUSH1 0x20 PUSH1 0x4 DUP3 ADD MSTORE PUSH1 0xD PUSH1 0x24 DUP3 ADD MSTORE PUSH13 0x10D85B9B9BDD0818D85B98D95B PUSH1 0x9A SHL PUSH1 0x44 DUP3 ADD MSTORE PUSH1 0x64 SWAP1 REVERT JUMPDEST POP PUSH1 0x20 DUP3 ADD MLOAD PUSH1 0x1 PUSH1 0x1 PUSH1 0xA0 SHL SUB AND ISZERO PUSH2 0xB24 JUMP JUMPDEST POP PUSH2 0xB02 PUSH2 0xBD2 DUP3 PUSH2 0xE9E JUMP JUMPDEST POP PUSH1 0x1 ADD SLOAD PUSH1 0x1 PUSH1 0x1 PUSH1 0xA0 SHL SUB AND CALLER EQ SWAP1 POP PUSH2 0xAF9 JUMP JUMPDEST CALLVALUE PUSH2 0x289 JUMPI PUSH1 0x40 CALLDATASIZE PUSH1 0x3 NOT ADD SLT PUSH2 0x289 JUMPI PUSH1 0x1 PUSH1 0x1 PUSH1 0xA0 SHL SUB PUSH2 0xC0A PUSH2 0xF3F JUMP JUMPDEST AND PUSH1 0x0 MSTORE PUSH1 0x1 PUSH1 0x20 MSTORE PUSH1 0x40 PUSH1 0x0 KECCAK256 PUSH1 0x24 CALLDATALOAD PUSH1 0x0 MSTORE PUSH1 0x20 MSTORE PUSH1 0x20 PUSH1 0xFF PUSH1 0x40 PUSH1 0x0 KECCAK256 SLOAD AND PUSH1 0x40 MLOAD SWAP1 ISZERO ISZERO DUP2 MSTORE RETURN JUMPDEST CALLVALUE PUSH2 0x289 JUMPI PUSH1 0x0 CALLDATASIZE PUSH1 0x3 NOT ADD SLT PUSH2 0x289 JUMPI PUSH1 0x0 SLOAD PUSH8 0xFFFFFFFFFFFFFFFF DUP2 GT PUSH2 0xAB2 JUMPI PUSH1 0x40 MLOAD SWAP1 PUSH1 0x1F NOT PUSH1 0x3F DUP3 PUSH1 0x5 SHL ADD AND DUP3 ADD DUP3 DUP2 LT PUSH8 0xFFFFFFFFFFFFFFFF DUP3 GT OR PUSH2 0xAB2 JUMPI PUSH1 0x40 MSTORE DUP1 DUP3 MSTORE PUSH1 0x20 DUP3 ADD SWAP1 DUP2 PUSH1 0x0 DUP1 MSTORE PUSH32 0x290DECD9548B62A8D60345A988386FC84BA6BC95484008F6362F93160EF3E563 PUSH1 0x0 SWAP2 JUMPDEST DUP4 DUP4 LT PUSH2 0xD09 JUMPI DUP5 DUP7 PUSH1 0x40 MLOAD SWAP2 DUP3 SWAP2 PUSH1 0x20 DUP4 ADD SWAP1 PUSH1 0x20 DUP5 MSTORE MLOAD DUP1 SWAP2 MSTORE PUSH1 0x40 DUP4 ADD SWAP2 SWAP1 PUSH1 0x0 JUMPDEST DUP2 DUP2 LT PUSH2 0xCE5 JUMPI POP POP POP SUB SWAP1 RETURN JUMPDEST SWAP2 SWAP4 POP SWAP2 PUSH1 0x20 PUSH1 0xE0 DUP3 PUSH2 0xCFB PUSH1 0x1 SWAP5 DUP9 MLOAD PUSH2 0xEEE JUMP JUMPDEST ADD SWAP5 ADD SWAP2 ADD SWAP2 DUP5 SWAP4 SWAP3 PUSH2 0xCD7 JUMP JUMPDEST PUSH1 0x7 PUSH1 0x20 PUSH1 0x1 SWAP3 PUSH2 0xD19 DUP6 PUSH2 0x11BD JUMP JUMPDEST DUP2 MSTORE ADD SWAP3 ADD SWAP3 ADD SWAP2 SWAP1 PUSH2 0xCB2 JUMP JUMPDEST CALLVALUE PUSH2 0x289 JUMPI PUSH1 0x0 CALLDATASIZE PUSH1 0x3 NOT ADD SLT PUSH2 0x289 JUMPI PUSH1 0x20 PUSH1 0x40 MLOAD PUSH1 0x3C DUP2 MSTORE RETURN JUMPDEST CALLVALUE PUSH2 0x289 JUMPI PUSH1 0x20 CALLDATASIZE PUSH1 0x3 NOT ADD SLT PUSH2 0x289 JUMPI PUSH2 0xD63 PUSH1 0x4 CALLDATALOAD PUSH2 0x3E3 DUP2 PUSH2 0xE9E JUMP JUMPDEST POP PUSH1 0x5 DUP2 ADD SWAP1 PUSH2 0xD74 DUP3 SLOAD ISZERO PUSH2 0x1162 JUMP JUMPDEST DUP1 SLOAD PUSH1 0x1 PUSH1 0x1 PUSH1 0xA0 SHL SUB AND SWAP1 DUP2 ISZERO ISZERO SWAP1 DUP2 PUSH2 0xDD4 JUMPI JUMPDEST POP ISZERO PUSH2 0xD9C JUMPI CALLER SUB PUSH2 0x58C JUMPI PUSH1 0x2 SWAP1 SSTORE STOP JUMPDEST PUSH1 0x40 MLOAD PUSH3 0x461BCD PUSH1 0xE5 SHL DUP2 MSTORE PUSH1 0x20 PUSH1 0x4 DUP3 ADD MSTORE PUSH1 0x10 PUSH1 0x24 DUP3 ADD MSTORE PUSH16 0x11D85B59481A5CC81B9BDD08199D5B1B PUSH1 0x82 SHL PUSH1 0x44 DUP3 ADD MSTORE PUSH1 0x64 SWAP1 REVERT JUMPDEST PUSH1 0x1 ADD SLOAD PUSH1 0x1 PUSH1 0x1 PUSH1 0xA0 SHL SUB AND ISZERO ISZERO SWAP1 POP DUP4 PUSH2 0xD8A JUMP JUMPDEST CALLVALUE PUSH2 0x289 JUMPI PUSH1 0x20 CALLDATASIZE PUSH1 0x3 NOT ADD SLT PUSH2 0x289 JUMPI PUSH1 0x4 CALLDATALOAD PUSH1 0x0 SLOAD DUP2 LT ISZERO PUSH2 0x289 JUMPI PUSH2 0xE14 PUSH1 0xE0 SWAP2 PUSH2 0xE9E JUMP JUMPDEST POP DUP1 SLOAD PUSH1 0x1 DUP3 ADD SLOAD PUSH1 0x2 DUP4 ADD SLOAD PUSH1 0x3 DUP5 ADD SLOAD PUSH1 0x4 DUP6 ADD SLOAD PUSH1 0x5 DUP7 ADD SLOAD PUSH1 0x6 SWAP1 SWAP7 ADD SLOAD PUSH1 0x40 DUP1 MLOAD PUSH1 0x1 PUSH1 0x1 PUSH1 0xA0 SHL SUB SWAP8 DUP9 AND DUP2 MSTORE SWAP6 SWAP1 SWAP7 AND PUSH1 0x20 DUP7 ADD MSTORE SWAP5 DUP5 ADD SWAP3 SWAP1 SWAP3 MSTORE PUSH1 0x60 DUP4 ADD MSTORE PUSH1 0x80 DUP3 ADD MSTORE PUSH1 0xA0 DUP2 ADD SWAP3 SWAP1 SWAP3 MSTORE PUSH1 0xC0 DUP3 ADD MSTORE RETURN JUMPDEST CALLVALUE PUSH2 0x289 JUMPI PUSH1 0x60 CALLDATASIZE PUSH1 0x3 NOT ADD SLT PUSH2 0x289 JUMPI PUSH1 0x20 PUSH2 0xE94 PUSH1 0x44 CALLDATALOAD PUSH1 0x24 CALLDATALOAD PUSH1 0x4 CALLDATALOAD PUSH2 0xF70 JUMP JUMPDEST PUSH1 0x40 MLOAD SWAP1 ISZERO ISZERO DUP2 MSTORE RETURN JUMPDEST PUSH1 0x0 SLOAD DUP2 LT ISZERO PUSH2 0xED8 JUMPI PUSH1 0x0 DUP1 DUP1 MSTORE PUSH1 0x7 SWAP2 SWAP1 SWAP2 MUL PUSH32 0x290DECD9548B62A8D60345A988386FC84BA6BC95484008F6362F93160EF3E563 ADD SWAP2 JUMP JUMPDEST PUSH4 0x4E487B71 PUSH1 0xE0 SHL PUSH1 0x0 MSTORE PUSH1 0x32 PUSH1 0x4 MSTORE PUSH1 0x24 PUSH1 0x0 REVERT JUMPDEST PUSH1 0xC0 DUP1 SWAP2 PUSH1 0x1 DUP1 PUSH1 0xA0 SHL SUB DUP2 MLOAD AND DUP5 MSTORE PUSH1 0x1 DUP1 PUSH1 0xA0 SHL SUB PUSH1 0x20 DUP3 ADD MLOAD AND PUSH1 0x20 DUP6 ADD MSTORE PUSH1 0x40 DUP2 ADD MLOAD PUSH1 0x40 DUP6 ADD MSTORE PUSH1 0x60 DUP2 ADD MLOAD PUSH1 0x60 DUP6 ADD MSTORE PUSH1 0x80 DUP2 ADD MLOAD PUSH1 0x80 DUP6 ADD MSTORE PUSH1 0xA0 DUP2 ADD MLOAD PUSH1 0xA0 DUP6 ADD MSTORE ADD MLOAD SWAP2 ADD MSTORE JUMP JUMPDEST PUSH1 0x4 CALLDATALOAD SWAP1 PUSH1 0x1 PUSH1 0x1 PUSH1 0xA0 SHL SUB DUP3 AND DUP3 SUB PUSH2 0x289 JUMPI JUMP JUMPDEST SWAP1 PUSH1 0x40 DUP3 ADD DUP1 SWAP3 GT PUSH2 0x4FF JUMPI JUMP JUMPDEST SWAP2 SWAP1 DUP3 ADD DUP1 SWAP3 GT PUSH2 0x4FF JUMPI JUMP JUMPDEST SWAP1 SWAP2 PUSH2 0x100 DUP2 LT ISZERO PUSH2 0x110E JUMPI PUSH1 0x0 SWAP3 PUSH1 0x1 DUP2 EQ PUSH2 0x10C2 JUMPI JUMPDEST PUSH1 0x2 DUP2 EQ PUSH2 0x1080 JUMPI JUMPDEST PUSH1 0x3 DUP2 EQ PUSH2 0x1014 JUMPI JUMPDEST PUSH1 0x4 EQ PUSH2 0xFA9 JUMPI JUMPDEST POP DUP2 AND EQ SWAP1 JUMP JUMPDEST SWAP3 SWAP1 PUSH1 0x4 PUSH1 0xF DUP6 AND LT DUP1 ISZERO PUSH2 0x1006 JUMPI JUMPDEST PUSH2 0xFFD JUMPI DUP4 SWAP3 JUMPDEST PUSH2 0xFC9 DUP6 PUSH2 0xF55 JUMP JUMPDEST PUSH1 0x3 NOT DUP2 ADD SWAP1 DUP2 GT PUSH2 0x4FF JUMPI DUP5 GT PUSH2 0xFF2 JUMPI PUSH1 0x1 DUP5 SHL OR SWAP3 PUSH1 0xF DUP2 ADD DUP1 SWAP2 GT PUSH2 0x4FF JUMPI SWAP3 PUSH2 0xFC0 JUMP JUMPDEST SWAP3 POP SWAP1 SWAP3 POP CODESIZE PUSH2 0xFA2 JUMP JUMPDEST POP SWAP2 POP POP PUSH1 0x0 SWAP1 JUMP JUMPDEST POP PUSH1 0xC DUP5 PUSH1 0x4 SHR LT ISZERO PUSH2 0xFB9 JUMP JUMPDEST SWAP4 SWAP2 SWAP1 PUSH1 0xC PUSH1 0xF DUP3 AND LT DUP1 ISZERO SWAP1 PUSH2 0x1072 JUMPI JUMPDEST PUSH2 0x1068 JUMPI DUP1 SWAP4 JUMPDEST PUSH2 0x1036 DUP3 PUSH2 0xF55 JUMP JUMPDEST PUSH1 0x4 DUP2 ADD DUP1 SWAP2 GT PUSH2 0x4FF JUMPI DUP6 GT PUSH2 0x105E JUMPI PUSH1 0x1 DUP6 SHL OR SWAP4 PUSH1 0x11 DUP2 ADD DUP1 SWAP2 GT PUSH2 0x4FF JUMPI SWAP4 PUSH2 0x102D JUMP JUMPDEST SWAP4 POP SWAP1 SWAP2 SWAP4 PUSH2 0xF9A JUMP JUMPDEST POP POP SWAP2 POP POP PUSH1 0x0 SWAP1 JUMP JUMPDEST POP PUSH1 0xC DUP2 PUSH1 0x4 SHR LT ISZERO PUSH2 0x1026 JUMP JUMPDEST SWAP4 SWAP2 SWAP1 PUSH1 0xC DUP2 PUSH1 0x4 SHR LT ISZERO PUSH2 0x1068 JUMPI DUP1 SWAP4 JUMPDEST PUSH2 0x109B DUP3 PUSH2 0xF55 JUMP JUMPDEST DUP6 GT PUSH2 0x10B8 JUMPI PUSH1 0x1 DUP6 SHL OR SWAP4 PUSH1 0x10 DUP2 ADD DUP1 SWAP2 GT PUSH2 0x4FF JUMPI SWAP4 PUSH2 0x1092 JUMP JUMPDEST SWAP4 POP SWAP1 SWAP2 SWAP4 PUSH2 0xF91 JUMP JUMPDEST SWAP4 SWAP2 SWAP1 PUSH1 0xC PUSH1 0xF DUP3 AND LT ISZERO PUSH2 0x1107 JUMPI DUP1 SWAP4 JUMPDEST PUSH1 0x4 DUP3 ADD DUP1 DUP4 GT PUSH2 0x4FF JUMPI DUP6 GT PUSH2 0x10FD JUMPI PUSH1 0x1 DUP6 SHL OR SWAP4 PUSH1 0x0 NOT DUP2 EQ PUSH2 0x4FF JUMPI PUSH1 0x1 ADD SWAP4 PUSH2 0x10D4 JUMP JUMPDEST SWAP4 POP SWAP1 SWAP2 SWAP4 PUSH2 0xF88 JUMP JUMPDEST POP POP SWAP2 POP SWAP1 JUMP JUMPDEST POP POP POP PUSH1 0x0 SWAP1 JUMP JUMPDEST ISZERO PUSH2 0x111D JUMPI JUMP JUMPDEST PUSH1 0x40 MLOAD PUSH3 0x461BCD PUSH1 0xE5 SHL DUP2 MSTORE PUSH1 0x20 PUSH1 0x4 DUP3 ADD MSTORE PUSH1 0x18 PUSH1 0x24 DUP3 ADD MSTORE PUSH32 0x596F7520617265206E6F7420696E20746869732067616D650000000000000000 PUSH1 0x44 DUP3 ADD MSTORE PUSH1 0x64 SWAP1 REVERT JUMPDEST ISZERO PUSH2 0x1169 JUMPI JUMP JUMPDEST PUSH1 0x40 MLOAD PUSH3 0x461BCD PUSH1 0xE5 SHL DUP2 MSTORE PUSH1 0x20 PUSH1 0x4 DUP3 ADD MSTORE PUSH1 0xC PUSH1 0x24 DUP3 ADD MSTORE PUSH12 0x23B0B6B29034B99037BB32B9 PUSH1 0xA1 SHL PUSH1 0x44 DUP3 ADD MSTORE PUSH1 0x64 SWAP1 REVERT JUMPDEST PUSH1 0x40 MLOAD SWAP1 PUSH1 0xE0 DUP3 ADD DUP3 DUP2 LT PUSH8 0xFFFFFFFFFFFFFFFF DUP3 GT OR PUSH2 0xAB2 JUMPI PUSH1 0x40 MSTORE JUMP JUMPDEST SWAP1 PUSH1 0x6 PUSH2 0x11C8 PUSH2 0x119D JUMP JUMPDEST DUP4 SLOAD PUSH1 0x1 PUSH1 0x1 PUSH1 0xA0 SHL SUB SWAP1 DUP2 AND DUP3 MSTORE PUSH1 0x1 DUP6 ADD SLOAD AND PUSH1 0x20 DUP3 ADD MSTORE PUSH1 0x2 DUP5 ADD SLOAD PUSH1 0x40 DUP3 ADD MSTORE PUSH1 0x3 DUP5 ADD SLOAD PUSH1 0x60 DUP3 ADD MSTORE PUSH1 0x4 DUP5 ADD SLOAD PUSH1 0x80 DUP3 ADD MSTORE PUSH1 0x5 DUP5 ADD SLOAD PUSH1 0xA0 DUP3 ADD MSTORE SWAP3 ADD SLOAD PUSH1 0xC0 DUP4 ADD MSTORE JUMP JUMPDEST ISZERO PUSH2 0x121B JUMPI JUMP JUMPDEST PUSH1 0x40 MLOAD PUSH3 0x461BCD PUSH1 0xE5 SHL DUP2 MSTORE PUSH1 0x20 PUSH1 0x4 DUP3 ADD MSTORE PUSH1 0x22 PUSH1 0x24 DUP3 ADD MSTORE PUSH32 0x596F75206861766520616C726561647920636C61696D65642074686973206761 PUSH1 0x44 DUP3 ADD MSTORE PUSH2 0x6D65 PUSH1 0xF0 SHL PUSH1 0x64 DUP3 ADD MSTORE PUSH1 0x84 SWAP1 REVERT JUMPDEST ISZERO PUSH2 0x1272 JUMPI JUMP JUMPDEST PUSH1 0x40 MLOAD PUSH3 0x461BCD PUSH1 0xE5 SHL DUP2 MSTORE PUSH1 0x20 PUSH1 0x4 DUP3 ADD MSTORE PUSH1 0xA PUSH1 0x24 DUP3 ADD MSTORE PUSH10 0x2BB937B733903A3AB937 PUSH1 0xB1 SHL PUSH1 0x44 DUP3 ADD MSTORE PUSH1 0x64 SWAP1 REVERT JUMPDEST SWAP1 PUSH2 0x12AD PUSH2 0x119D JUMP JUMPDEST PUSH1 0x0 DUP2 MSTORE PUSH1 0x0 PUSH1 0x20 DUP3 ADD MSTORE PUSH1 0x0 PUSH1 0x40 DUP3 ADD MSTORE PUSH1 0x0 PUSH1 0x60 DUP3 ADD MSTORE PUSH1 0x0 PUSH1 0x80 DUP3 ADD MSTORE PUSH1 0x0 PUSH1 0xA0 DUP3 ADD MSTORE PUSH1 0x0 PUSH1 0xC0 DUP3 ADD MSTORE POP PUSH1 0x0 SLOAD PUSH1 0x0 NOT DUP2 ADD SWAP1 DUP2 GT PUSH2 0x4FF JUMPI JUMPDEST PUSH2 0x12F5 DUP2 PUSH2 0xE9E JUMP JUMPDEST POP SLOAD PUSH1 0x1 PUSH1 0x1 PUSH1 0xA0 SHL SUB DUP5 DUP2 AND SWAP2 AND DUP2 EQ SWAP1 DUP2 ISZERO PUSH2 0x1379 JUMPI JUMPDEST POP PUSH2 0x1368 JUMPI DUP1 ISZERO PUSH2 0x1328 JUMPI DUP1 ISZERO PUSH2 0x4FF JUMPI PUSH1 0x0 NOT ADD PUSH2 0x12EC JUMP JUMPDEST POP SWAP1 POP PUSH2 0x1333 PUSH2 0x119D JUMP JUMPDEST SWAP1 PUSH1 0x0 DUP3 MSTORE PUSH1 0x0 PUSH1 0x20 DUP4 ADD MSTORE PUSH1 0x0 PUSH1 0x40 DUP4 ADD MSTORE PUSH1 0x0 PUSH1 0x60 DUP4 ADD MSTORE PUSH1 0x0 PUSH1 0x80 DUP4 ADD MSTORE PUSH1 0x0 PUSH1 0xA0 DUP4 ADD MSTORE PUSH1 0x0 PUSH1 0xC0 DUP4 ADD MSTORE PUSH1 0x0 SWAP2 SWAP1 JUMP JUMPDEST SWAP2 POP PUSH2 0x1376 PUSH2 0x715 DUP4 PUSH2 0xE9E JUMP JUMPDEST SWAP1 JUMP JUMPDEST SWAP1 POP PUSH2 0x1384 DUP3 PUSH2 0xE9E JUMP JUMPDEST POP PUSH1 0x1 ADD SLOAD PUSH1 0x1 PUSH1 0x1 PUSH1 0xA0 SHL SUB AND EQ CODESIZE PUSH2 0x130E JUMP JUMPDEST CALLER PUSH1 0x0 MSTORE PUSH1 0x1 PUSH1 0x20 MSTORE PUSH1 0x40 PUSH1 0x0 KECCAK256 DUP2 PUSH1 0x0 MSTORE PUSH1 0x20 MSTORE PUSH2 0x13C0 PUSH1 0xFF PUSH1 0x40 PUSH1 0x0 KECCAK256 SLOAD AND ISZERO PUSH2 0x1214 JUMP JUMPDEST CALLER PUSH1 0x0 MSTORE PUSH1 0x1 PUSH1 0x20 MSTORE PUSH1 0x40 PUSH1 0x0 KECCAK256 DUP2 PUSH1 0x0 MSTORE PUSH1 0x20 MSTORE PUSH1 0x40 PUSH1 0x0 KECCAK256 PUSH1 0x1 PUSH1 0xFF NOT DUP3 SLOAD AND OR SWAP1 SSTORE PUSH2 0x13F1 PUSH2 0x715 DUP3 PUSH2 0xE9E JUMP JUMPDEST SWAP1 PUSH1 0xC0 DUP3 ADD PUSH9 0x56BC75E2D63100000 PUSH5 0x2540BE400 DUP3 MLOAD MOD SWAP2 MLOAD DIV ISZERO SWAP1 DUP2 ISZERO PUSH2 0x153A JUMPI JUMPDEST POP PUSH2 0x14EF JUMPI PUSH1 0xA0 DUP3 ADD MLOAD PUSH2 0x150B JUMPI PUSH1 0x40 DUP3 ADD MLOAD PUSH1 0x60 DUP4 ADD MLOAD OR PUSH1 0x0 NOT EQ PUSH2 0x14EF JUMPI PUSH1 0x1 DUP1 PUSH1 0xA0 SHL SUB DUP3 MLOAD AND PUSH1 0x0 MSTORE PUSH1 0x2 PUSH1 0x20 MSTORE PUSH1 0x40 PUSH1 0x0 KECCAK256 DUP2 PUSH1 0x0 MSTORE PUSH1 0x20 MSTORE PUSH1 0xFF PUSH1 0x40 PUSH1 0x0 KECCAK256 SLOAD AND SWAP1 DUP2 PUSH2 0x14BD JUMPI JUMPDEST POP PUSH2 0x1498 JUMPI PUSH1 0x40 MLOAD PUSH3 0x461BCD PUSH1 0xE5 SHL DUP2 MSTORE PUSH1 0x20 PUSH1 0x4 DUP3 ADD MSTORE PUSH1 0x7 PUSH1 0x24 DUP3 ADD MSTORE PUSH7 0x4E6F2044726177 PUSH1 0xC8 SHL PUSH1 0x44 DUP3 ADD MSTORE PUSH1 0x64 SWAP1 REVERT JUMPDEST PUSH1 0x0 DUP1 DUP1 PUSH1 0x80 DUP2 SWAP5 ADD MLOAD DUP2 DUP2 ISZERO PUSH2 0x14B4 JUMPI JUMPDEST CALLER SWAP1 CALL ISZERO PUSH2 0x7B0 JUMPI JUMP JUMPDEST POP PUSH2 0x8FC PUSH2 0x14AA JUMP JUMPDEST SWAP1 POP PUSH1 0x1 DUP1 PUSH1 0xA0 SHL SUB PUSH1 0x20 DUP4 ADD MLOAD AND PUSH1 0x0 MSTORE PUSH1 0x2 PUSH1 0x20 MSTORE PUSH1 0x40 PUSH1 0x0 KECCAK256 SWAP1 PUSH1 0x0 MSTORE PUSH1 0x20 MSTORE PUSH1 0xFF PUSH1 0x40 PUSH1 0x0 KECCAK256 SLOAD AND CODESIZE PUSH2 0x1464 JUMP JUMPDEST POP PUSH1 0x0 DUP1 DUP1 PUSH1 0x80 DUP2 SWAP5 ADD MLOAD DUP2 DUP2 ISZERO PUSH2 0x14B4 JUMPI CALLER SWAP1 CALL ISZERO PUSH2 0x7B0 JUMPI JUMP JUMPDEST PUSH1 0x40 MLOAD PUSH3 0x461BCD PUSH1 0xE5 SHL DUP2 MSTORE PUSH1 0x20 PUSH1 0x4 DUP3 ADD MSTORE PUSH1 0x7 PUSH1 0x24 DUP3 ADD MSTORE PUSH7 0x4E6F2044726177 PUSH1 0xC8 SHL PUSH1 0x44 DUP3 ADD MSTORE PUSH1 0x64 SWAP1 REVERT JUMPDEST SWAP1 POP PUSH1 0x3C DUP2 ADD DUP1 SWAP2 GT PUSH2 0x4FF JUMPI TIMESTAMP LT CODESIZE PUSH2 0x1415 JUMP INVALID LOG2 PUSH5 0x6970667358 0x22 SLT KECCAK256 0xC3 LOG3 PUSH21 0x57E93E603274C92CB41432EDBFD1ED0134EBF62190 GASPRICE PUSH17 0x5AB8400F59964736F6C634300081C0033 "
        },
        "methodIdentifiers": {
          "DRAW_MARK()": "78c7cee0",
          "MAX_TIME()": "26949984",
          "O()": "a0ea32de",
          "SIZE()": "bdffd282",
          "X()": "c1599bd9",
          "allGames()": "465542f0",
          "cancelGame(uint256)": "69958ab9",
          "checkWin(uint256,uint256,uint256)": "110a8b99",
          "claimDraw(uint256)": "e6299a5a",
          "claimWinner(uint256)": "c3887ad7",
          "claimed(address,uint256)": "4dd6c8de",
          "createGame()": "7255d729",
          "games(uint256)": "117a5b90",
          "joinGame(uint256)": "efaa55a0",
          "makeMove(uint256,uint256,uint256,uint256)": "c9b144a8",
          "myGame(address)": "d6afb262",
          "playerRequestDraw(address,uint256)": "a2d893c5",
          "quitGame(uint256)": "16f99211",
          "requestDraw(uint256)": "d49e2f51"
        }
      }
    }
  }
}