{
  "contracts/TicTacToe.sol": {
    "TicTacToe": {
      "abi": [
        {
          "inputs": [],
          "name": "DRAW_MARK",
          "outputs": [
            {
              "internalType": "uint256",
              "name": "",
              "type": "uint256"
            }
          ],
          "stateMutability": "view",
          "type": "function"
        },
        {
          "inputs": [],
          "name": "MAX_TIME",
          "outputs": [
            {
              "internalType": "uint256",
              "name": "",
              "type": "uint256"
            }
          ],
          "stateMutability": "view",
          "type": "function"
        },
        {
          "inputs": [],
          "name": "O",
          "outputs": [
            {
              "internalType": "uint256",
              "name": "",
              "type": "uint256"
            }
          ],
          "stateMutability": "view",
          "type": "function"
        },
        {
          "inputs": [],
          "name": "SIZE",
          "outputs": [
            {
              "internalType": "uint256",
              "name": "",
              "type": "uint256"
            }
          ],
          "stateMutability": "view",
          "type": "function"
        },
        {
          "inputs": [],
          "name": "X",
          "outputs": [
            {
              "internalType": "uint256",
              "name": "",
              "type": "uint256"
            }
          ],
          "stateMutability": "view",
          "type": "function"
        },
        {
          "inputs": [],
          "name": "allGames",
          "outputs": [
            {
              "components": [
                {
                  "internalType": "address",
                  "name": "playerX",
                  "type": "address"
                },
                {
                  "internalType": "address",
                  "name": "playerO",
                  "type": "address"
                },
                {
                  "internalType": "uint256",
                  "name": "X",
                  "type": "uint256"
                },
                {
                  "internalType": "uint256",
                  "name": "O",
                  "type": "uint256"
                },
                {
                  "internalType": "uint256",
                  "name": "betAmount",
                  "type": "uint256"
                },
                {
                  "internalType": "uint256",
                  "name": "winner",
                  "type": "uint256"
                },
                {
                  "internalType": "uint256",
                  "name": "move",
                  "type": "uint256"
                }
              ],
              "internalType": "struct TicTacToe.Game[]",
              "name": "",
              "type": "tuple[]"
            }
          ],
          "stateMutability": "view",
          "type": "function"
        },
        {
          "inputs": [
            {
              "internalType": "uint256",
              "name": "gameId",
              "type": "uint256"
            }
          ],
          "name": "cancelGame",
          "outputs": [],
          "stateMutability": "nonpayable",
          "type": "function"
        },
        {
          "inputs": [
            {
              "internalType": "uint256",
              "name": "board",
              "type": "uint256"
            },
            {
              "internalType": "uint256",
              "name": "winLine",
              "type": "uint256"
            },
            {
              "internalType": "uint256",
              "name": "start",
              "type": "uint256"
            }
          ],
          "name": "checkWin",
          "outputs": [
            {
              "internalType": "bool",
              "name": "",
              "type": "bool"
            }
          ],
          "stateMutability": "pure",
          "type": "function"
        },
        {
          "inputs": [
            {
              "internalType": "uint256",
              "name": "gameId",
              "type": "uint256"
            }
          ],
          "name": "claimDraw",
          "outputs": [],
          "stateMutability": "nonpayable",
          "type": "function"
        },
        {
          "inputs": [
            {
              "internalType": "uint256",
              "name": "gameId",
              "type": "uint256"
            }
          ],
          "name": "claimWinner",
          "outputs": [],
          "stateMutability": "nonpayable",
          "type": "function"
        },
        {
          "inputs": [
            {
              "internalType": "address",
              "name": "",
              "type": "address"
            },
            {
              "internalType": "uint256",
              "name": "",
              "type": "uint256"
            }
          ],
          "name": "claimed",
          "outputs": [
            {
              "internalType": "bool",
              "name": "",
              "type": "bool"
            }
          ],
          "stateMutability": "view",
          "type": "function"
        },
        {
          "inputs": [],
          "name": "createGame",
          "outputs": [],
          "stateMutability": "payable",
          "type": "function"
        },
        {
          "inputs": [
            {
              "internalType": "uint256",
              "name": "",
              "type": "uint256"
            }
          ],
          "name": "games",
          "outputs": [
            {
              "internalType": "address",
              "name": "playerX",
              "type": "address"
            },
            {
              "internalType": "address",
              "name": "playerO",
              "type": "address"
            },
            {
              "internalType": "uint256",
              "name": "X",
              "type": "uint256"
            },
            {
              "internalType": "uint256",
              "name": "O",
              "type": "uint256"
            },
            {
              "internalType": "uint256",
              "name": "betAmount",
              "type": "uint256"
            },
            {
              "internalType": "uint256",
              "name": "winner",
              "type": "uint256"
            },
            {
              "internalType": "uint256",
              "name": "move",
              "type": "uint256"
            }
          ],
          "stateMutability": "view",
          "type": "function"
        },
        {
          "inputs": [
            {
              "internalType": "uint256",
              "name": "gameId",
              "type": "uint256"
            }
          ],
          "name": "joinGame",
          "outputs": [],
          "stateMutability": "payable",
          "type": "function"
        },
        {
          "inputs": [
            {
              "internalType": "uint256",
              "name": "gameId",
              "type": "uint256"
            },
            {
              "internalType": "uint256",
              "name": "pos",
              "type": "uint256"
            },
            {
              "internalType": "uint256",
              "name": "winLine",
              "type": "uint256"
            },
            {
              "internalType": "uint256",
              "name": "winPos",
              "type": "uint256"
            }
          ],
          "name": "makeMove",
          "outputs": [],
          "stateMutability": "nonpayable",
          "type": "function"
        },
        {
          "inputs": [
            {
              "internalType": "address",
              "name": "add",
              "type": "address"
            }
          ],
          "name": "myGame",
          "outputs": [
            {
              "internalType": "uint256",
              "name": "index",
              "type": "uint256"
            },
            {
              "components": [
                {
                  "internalType": "address",
                  "name": "playerX",
                  "type": "address"
                },
                {
                  "internalType": "address",
                  "name": "playerO",
                  "type": "address"
                },
                {
                  "internalType": "uint256",
                  "name": "X",
                  "type": "uint256"
                },
                {
                  "internalType": "uint256",
                  "name": "O",
                  "type": "uint256"
                },
                {
                  "internalType": "uint256",
                  "name": "betAmount",
                  "type": "uint256"
                },
                {
                  "internalType": "uint256",
                  "name": "winner",
                  "type": "uint256"
                },
                {
                  "internalType": "uint256",
                  "name": "move",
                  "type": "uint256"
                }
              ],
              "internalType": "struct TicTacToe.Game",
              "name": "game",
              "type": "tuple"
            }
          ],
          "stateMutability": "view",
          "type": "function"
        },
        {
          "inputs": [
            {
              "internalType": "address",
              "name": "",
              "type": "address"
            },
            {
              "internalType": "uint256",
              "name": "",
              "type": "uint256"
            }
          ],
          "name": "playerRequestDraw",
          "outputs": [
            {
              "internalType": "bool",
              "name": "",
              "type": "bool"
            }
          ],
          "stateMutability": "view",
          "type": "function"
        },
        {
          "inputs": [
            {
              "internalType": "uint256",
              "name": "gameId",
              "type": "uint256"
            }
          ],
          "name": "quitGame",
          "outputs": [],
          "stateMutability": "nonpayable",
          "type": "function"
        },
        {
          "inputs": [
            {
              "internalType": "uint256",
              "name": "gameId",
              "type": "uint256"
            }
          ],
          "name": "requestDraw",
          "outputs": [],
          "stateMutability": "nonpayable",
          "type": "function"
        }
      ],
      "evm": {
        "bytecode": {
          "linkReferences": {},
          "object": "6080806040523460155761168a908161001b8239f35b600080fdfe6080604052600436101561001257600080fd5b60003560e01c8063110a8b9914610d24578063117a5b9014610c9f57806316f9921114610bb15780632694998414610b95578063465542f014610aa45780634dd6c8de14610a5757806369958ab91461091a5780637255d7291461082557806378c7cee014610808578063a0ea32de146107ec578063a2d893c51461079f578063bdffd28214610783578063c1599bd914610767578063c3887ad714610701578063c9b144a8146103ba578063d49e2f5114610332578063d6afb262146102f6578063e6299a5a1461028e5763efaa55a0146100ed57600080fd5b60203660031901126102895760043561010581610d52565b50546001600160a01b03161561024e5761011e81610d52565b50600101546001600160a01b031661021a5761013981610d52565b50546001600160a01b031633146101d557600461015582610d52565b50015434036101905780600161016d61018493610d52565b500180546001600160a01b03191633179055610d52565b50600642910155600080f35b60405162461bcd60e51b815260206004820152601960248201527f42657420616d6f756e74206973206e6f7420636f7272656374000000000000006044820152606490fd5b60405162461bcd60e51b815260206004820152601c60248201527f596f752063616e2774206a6f696e20796f7572206f776e2067616d65000000006044820152606490fd5b60405162461bcd60e51b815260206004820152600c60248201526b11d85b59481a5cc8199d5b1b60a21b6044820152606490fd5b60405162461bcd60e51b815260206004820152601360248201527211d85b5948191bd95cc81b9bdd08195e1a5cdd606a1b6044820152606490fd5b600080fd5b34610289576020366003190112610289576102d06004356102ae81610d52565b50546001600160a01b0316331480156102d2575b6102cb90610fca565b6114a8565b005b506102cb6102df82610d52565b50600101546001600160a01b0316331490506102c2565b346102895760203660031901126102895761010061033061031d610318610df3565b6113b3565b6040929192519283526020830190610da2565bf35b346102895760203660031901126102895760043561034f81610d52565b50546001600160a01b031633148015610396575b61036c90610fca565b3360005260026020526040600020906000526020526040600020600160ff19825416179055600080f35b5061036c6103a382610d52565b50600101546001600160a01b031633149050610363565b34610289576080366003190112610289576004356024356064356044356103e084610d52565b50546001600160a01b0316331480156106dd575b6103fd90610fca565b61040684610d52565b5092600684018054916402540be40083069661042181610d52565b50546001600160a01b0316151590816106bd575b501561068457600586019661044b885415611016565b801590811561066f575b501561063d57610100811015610603576002860195865496600382019788548116956001851b8097166105c85768056bc75e2d631000009004600103610539575050600101546104af906001600160a01b0316331461137a565b6402540be4008102908082046402540be400149015171561052357680ad78ebc5ac62000000180680ad78ebc5ac620000011610523576104f0904290610e17565b90558354178093558015159283610511575b50505061050b57005b60029055005b61051b9350610e24565b828080610502565b634e487b7160e01b600052601160045260246000fd5b915490975090929190610556906001600160a01b0316331461137a565b6402540be4008102908082046402540be40014901517156105235768056bc75e2d63100000018068056bc75e2d631000001161052357610597904290610e17565b90551780935580151592836105b6575b5050506105b057005b60019055005b6105c09350610e24565b8280806105a7565b60405162461bcd60e51b815260206004820152601360248201527224b73b30b634b2b2103837b9b4ba34b7b7101960691b6044820152606490fd5b60405162461bcd60e51b8152602060048201526012602482015271496e76616c696420706f736974696f6e203160701b6044820152606490fd5b60405162461bcd60e51b815260206004820152600a602482015269054696d652069732075760b41b6044820152606490fd5b9050603c810180911161052357421088610455565b60405162461bcd60e51b815260206004820152601160248201527047616d65206973206e6f7420726561647960781b6044820152606490fd5b6106c79150610d52565b50600101546001600160a01b0316151588610435565b506103fd6106ea85610d52565b50600101546001600160a01b0316331490506103f4565b34610289576020366003190112610289576102d060043561072181610d52565b50546001600160a01b031633148015610743575b61073e90610fca565b61111f565b5061073e61075082610d52565b50600101546001600160a01b031633149050610735565b3461028957600036600319011261028957602060405160018152f35b3461028957600036600319011261028957602060405160108152f35b34610289576040366003190112610289576001600160a01b036107c0610df3565b1660005260026020526040600020602435600052602052602060ff604060002054166040519015158152f35b3461028957600036600319011261028957602060405160028152f35b346102895760003660031901126102895760206040516000198152f35b600036600319011261028957610839611051565b338152602081019060008252604081016000815260608201600081526080830134815260a08401916000835260c08501936000855260005468010000000000000000811015610904578060016108929201600055610d52565b9790976108ee57955187546001600160a01b03199081166001600160a01b039283161789559651600189018054909816911617909555935160028601559251600385015591516004840155905160058301555160069190910155005b634e487b7160e01b600052600060045260246000fd5b634e487b7160e01b600052604160045260246000fd5b346102895760203660031901126102895760043561093781610d52565b50546001600160a01b031633148015610a33575b61095490610fca565b61096661096082610d52565b50611071565b80519091906001600160a01b0316158015610a1e575b156109e95761098a90610d52565b9190916108ee57600080806080819482600688828155826001820155826002820155826003820155826004820155826005820155015501518181156109e0575b3390f1156109d457005b6040513d6000823e3d90fd5b506108fc6109ca565b60405162461bcd60e51b815260206004820152600d60248201526c10d85b9b9bdd0818d85b98d95b609a1b6044820152606490fd5b5060208201516001600160a01b03161561097c565b50610954610a4082610d52565b50600101546001600160a01b03163314905061094b565b34610289576040366003190112610289576001600160a01b03610a78610df3565b1660005260016020526040600020602435600052602052602060ff604060002054166040519015158152f35b346102895760003660031901126102895760005467ffffffffffffffff81116109045760405190601f19603f8260051b0116820182811067ffffffffffffffff82111761090457604052808252602082019081600080527f290decd9548b62a8d60345a988386fc84ba6bc95484008f6362f93160ef3e5636000915b838310610b775784866040519182916020830190602084525180915260408301919060005b818110610b53575050500390f35b91935091602060e082610b696001948851610da2565b019401910191849392610b45565b60076020600192610b8785611071565b815201920192019190610b20565b34610289576000366003190112610289576020604051603c8152f35b3461028957602036600319011261028957610bf3600435610bd181610d52565b50546001600160a01b031633148015610c7b575b610bee90610fca565b610d52565b506005810190610c04825415611016565b80546001600160a01b0316908115159081610c64575b5015610c2c5733036105b05760029055005b60405162461bcd60e51b815260206004820152601060248201526f11d85b59481a5cc81b9bdd08199d5b1b60821b6044820152606490fd5b600101546001600160a01b03161515905083610c1a565b50610bee610c8882610d52565b50600101546001600160a01b031633149050610be5565b346102895760203660031901126102895760043560005481101561028957610cc860e091610d52565b50805460018201546002830154600384015460048501546005860154600690960154604080516001600160a01b039788168152959096166020860152948401929092526060830152608082015260a081019290925260c0820152f35b34610289576060366003190112610289576020610d48604435602435600435610e24565b6040519015158152f35b600054811015610d8c5760008080526007919091027f290decd9548b62a8d60345a988386fc84ba6bc95484008f6362f93160ef3e5630191565b634e487b7160e01b600052603260045260246000fd5b60c0809160018060a01b03815116845260018060a01b03602082015116602085015260408101516040850152606081015160608501526080810151608085015260a081015160a08501520151910152565b600435906001600160a01b038216820361028957565b906040820180921161052357565b9190820180921161052357565b9091610100811015610fc25760009260018114610f76575b60028114610f34575b60038114610ec8575b600414610e5d575b5081161490565b92906004600f8516108015610eba575b610eb15783925b610e7d85610e09565b6003198101908111610523578411610ea6576001841b1792600f81018091116105235792610e74565b925090925038610e56565b50915050600090565b50600c8460041c1015610e6d565b939190600c600f821610801590610f26575b610f1c5780935b610eea82610e09565b60048101809111610523578511610f12576001851b1793601181018091116105235793610ee1565b9350909193610e4e565b5050915050600090565b50600c8160041c1015610eda565b939190600c8160041c1015610f1c5780935b610f4f82610e09565b8511610f6c576001851b1793601081018091116105235793610f46565b9350909193610e45565b939190600c600f82161015610fbb5780935b60048201808311610523578511610fb1576001851b179360001981146105235760010193610f88565b9350909193610e3c565b5050915090565b505050600090565b15610fd157565b60405162461bcd60e51b815260206004820152601860248201527f596f7520617265206e6f7420696e20746869732067616d6500000000000000006044820152606490fd5b1561101d57565b60405162461bcd60e51b815260206004820152600c60248201526b23b0b6b29034b99037bb32b960a11b6044820152606490fd5b6040519060e0820182811067ffffffffffffffff82111761090457604052565b90600661107c611051565b83546001600160a01b0390811682526001850154166020820152600284015460408201526003840154606082015260048401546080820152600584015460a082015292015460c0830152565b156110cf57565b60405162461bcd60e51b815260206004820152602260248201527f596f75206861766520616c726561647920636c61696d656420746869732067616044820152616d6560f01b6064820152608490fd5b6109606111779133600052600160205260406000208160005260205261114d60ff60406000205416156110c8565b3360005260016020526040600020816000526020526040600020600160ff19825416179055610d52565b60c0810151604082015160608301516402540be40083069268056bc75e2d6310000090049117600019146113465760a08301918251158061133c575b80611329575b156112e9575050600281525b8051156112b4575160018114806112a1575b156112155750608001518060011b90808204600214901517156105235760008080809381811561120c575b3390f1156109d457565b506108fc611202565b6002148061128b575b61125d5760405162461bcd60e51b815260206004820152601360248201527210d85b9b9bdd0818db185a5b481c995dd85c99606a1b6044820152606490fd5b608001518060011b90808204600214901517156105235760008080809381811561120c573390f1156109d457565b5060208101516001600160a01b0316331461121e565b5081516001600160a01b031633146111d7565b60405162461bcd60e51b815260206004820152600d60248201526c139bc81dda5b9b995c881e595d609a1b6044820152606490fd5b825115918261131e575b5081611309575b50156111c557600181526111c5565b9050603c8101809111610523574211386112fa565b6002149150386112f3565b50603c81018082116105235742116111b9565b50600182146111b3565b60405162461bcd60e51b815260206004820152600c60248201526b47616d65206973206472617760a01b6044820152606490fd5b1561138157565b60405162461bcd60e51b815260206004820152600a6024820152692bb937b733903a3ab93760b11b6044820152606490fd5b906113bc611051565b6000815260006020820152600060408201526000606082015260006080820152600060a0820152600060c0820152506000546000198101908111610523575b61140481610d52565b50546001600160a01b0384811691168114908115611488575b5061147757801561143757801561052357600019016113fb565b509050611442611051565b906000825260006020830152600060408301526000606083015260006080830152600060a0830152600060c083015260009190565b915061148561096083610d52565b90565b905061149382610d52565b50600101546001600160a01b0316143861141d565b3360005260016020526040600020816000526020526114cf60ff60406000205416156110c8565b3360005260016020526040600020816000526020526040600020600160ff1982541617905561150061096082610d52565b9060c0820168056bc75e2d631000006402540be4008251069151041590811561163f575b506115f45760a0820151611610576040820151606083015117600019146115f45760018060a01b03825116600052600260205260406000208160005260205260ff6040600020541690816115c2575b506115a75760405162461bcd60e51b81526020600482015260076024820152664e6f204472617760c81b6044820152606490fd5b6000808060808194015181811561120c573390f1156109d457565b905060018060a01b03602083015116600052600260205260406000209060005260205260ff6040600020541638611573565b506000808060808194015181811561120c573390f1156109d457565b60405162461bcd60e51b81526020600482015260076024820152664e6f204472617760c81b6044820152606490fd5b9050603c81018091116105235742103861152456fea2646970667358221220952a65d546aada1b4f1d576fa0225593b2dd1d0f2dccbebe92b94891fb01f7b664736f6c634300081c0033",
          "opcodes": "PUSH1 0x80 DUP1 PUSH1 0x40 MSTORE CALLVALUE PUSH1 0x15 JUMPI PUSH2 0x168A SWAP1 DUP2 PUSH2 0x1B DUP3 CODECOPY RETURN JUMPDEST PUSH1 0x0 DUP1 REVERT INVALID PUSH1 0x80 PUSH1 0x40 MSTORE PUSH1 0x4 CALLDATASIZE LT ISZERO PUSH2 0x12 JUMPI PUSH1 0x0 DUP1 REVERT JUMPDEST PUSH1 0x0 CALLDATALOAD PUSH1 0xE0 SHR DUP1 PUSH4 0x110A8B99 EQ PUSH2 0xD24 JUMPI DUP1 PUSH4 0x117A5B90 EQ PUSH2 0xC9F JUMPI DUP1 PUSH4 0x16F99211 EQ PUSH2 0xBB1 JUMPI DUP1 PUSH4 0x26949984 EQ PUSH2 0xB95 JUMPI DUP1 PUSH4 0x465542F0 EQ PUSH2 0xAA4 JUMPI DUP1 PUSH4 0x4DD6C8DE EQ PUSH2 0xA57 JUMPI DUP1 PUSH4 0x69958AB9 EQ PUSH2 0x91A JUMPI DUP1 PUSH4 0x7255D729 EQ PUSH2 0x825 JUMPI DUP1 PUSH4 0x78C7CEE0 EQ PUSH2 0x808 JUMPI DUP1 PUSH4 0xA0EA32DE EQ PUSH2 0x7EC JUMPI DUP1 PUSH4 0xA2D893C5 EQ PUSH2 0x79F JUMPI DUP1 PUSH4 0xBDFFD282 EQ PUSH2 0x783 JUMPI DUP1 PUSH4 0xC1599BD9 EQ PUSH2 0x767 JUMPI DUP1 PUSH4 0xC3887AD7 EQ PUSH2 0x701 JUMPI DUP1 PUSH4 0xC9B144A8 EQ PUSH2 0x3BA JUMPI DUP1 PUSH4 0xD49E2F51 EQ PUSH2 0x332 JUMPI DUP1 PUSH4 0xD6AFB262 EQ PUSH2 0x2F6 JUMPI DUP1 PUSH4 0xE6299A5A EQ PUSH2 0x28E JUMPI PUSH4 0xEFAA55A0 EQ PUSH2 0xED JUMPI PUSH1 0x0 DUP1 REVERT JUMPDEST PUSH1 0x20 CALLDATASIZE PUSH1 0x3 NOT ADD SLT PUSH2 0x289 JUMPI PUSH1 0x4 CALLDATALOAD PUSH2 0x105 DUP2 PUSH2 0xD52 JUMP JUMPDEST POP SLOAD PUSH1 0x1 PUSH1 0x1 PUSH1 0xA0 SHL SUB AND ISZERO PUSH2 0x24E JUMPI PUSH2 0x11E DUP2 PUSH2 0xD52 JUMP JUMPDEST POP PUSH1 0x1 ADD SLOAD PUSH1 0x1 PUSH1 0x1 PUSH1 0xA0 SHL SUB AND PUSH2 0x21A JUMPI PUSH2 0x139 DUP2 PUSH2 0xD52 JUMP JUMPDEST POP SLOAD PUSH1 0x1 PUSH1 0x1 PUSH1 0xA0 SHL SUB AND CALLER EQ PUSH2 0x1D5 JUMPI PUSH1 0x4 PUSH2 0x155 DUP3 PUSH2 0xD52 JUMP JUMPDEST POP ADD SLOAD CALLVALUE SUB PUSH2 0x190 JUMPI DUP1 PUSH1 0x1 PUSH2 0x16D PUSH2 0x184 SWAP4 PUSH2 0xD52 JUMP JUMPDEST POP ADD DUP1 SLOAD PUSH1 0x1 PUSH1 0x1 PUSH1 0xA0 SHL SUB NOT AND CALLER OR SWAP1 SSTORE PUSH2 0xD52 JUMP JUMPDEST POP PUSH1 0x6 TIMESTAMP SWAP2 ADD SSTORE PUSH1 0x0 DUP1 RETURN JUMPDEST PUSH1 0x40 MLOAD PUSH3 0x461BCD PUSH1 0xE5 SHL DUP2 MSTORE PUSH1 0x20 PUSH1 0x4 DUP3 ADD MSTORE PUSH1 0x19 PUSH1 0x24 DUP3 ADD MSTORE PUSH32 0x42657420616D6F756E74206973206E6F7420636F727265637400000000000000 PUSH1 0x44 DUP3 ADD MSTORE PUSH1 0x64 SWAP1 REVERT JUMPDEST PUSH1 0x40 MLOAD PUSH3 0x461BCD PUSH1 0xE5 SHL DUP2 MSTORE PUSH1 0x20 PUSH1 0x4 DUP3 ADD MSTORE PUSH1 0x1C PUSH1 0x24 DUP3 ADD MSTORE PUSH32 0x596F752063616E2774206A6F696E20796F7572206F776E2067616D6500000000 PUSH1 0x44 DUP3 ADD MSTORE PUSH1 0x64 SWAP1 REVERT JUMPDEST PUSH1 0x40 MLOAD PUSH3 0x461BCD PUSH1 0xE5 SHL DUP2 MSTORE PUSH1 0x20 PUSH1 0x4 DUP3 ADD MSTORE PUSH1 0xC PUSH1 0x24 DUP3 ADD MSTORE PUSH12 0x11D85B59481A5CC8199D5B1B PUSH1 0xA2 SHL PUSH1 0x44 DUP3 ADD MSTORE PUSH1 0x64 SWAP1 REVERT JUMPDEST PUSH1 0x40 MLOAD PUSH3 0x461BCD PUSH1 0xE5 SHL DUP2 MSTORE PUSH1 0x20 PUSH1 0x4 DUP3 ADD MSTORE PUSH1 0x13 PUSH1 0x24 DUP3 ADD MSTORE PUSH19 0x11D85B5948191BD95CC81B9BDD08195E1A5CDD PUSH1 0x6A SHL PUSH1 0x44 DUP3 ADD MSTORE PUSH1 0x64 SWAP1 REVERT JUMPDEST PUSH1 0x0 DUP1 REVERT JUMPDEST CALLVALUE PUSH2 0x289 JUMPI PUSH1 0x20 CALLDATASIZE PUSH1 0x3 NOT ADD SLT PUSH2 0x289 JUMPI PUSH2 0x2D0 PUSH1 0x4 CALLDATALOAD PUSH2 0x2AE DUP2 PUSH2 0xD52 JUMP JUMPDEST POP SLOAD PUSH1 0x1 PUSH1 0x1 PUSH1 0xA0 SHL SUB AND CALLER EQ DUP1 ISZERO PUSH2 0x2D2 JUMPI JUMPDEST PUSH2 0x2CB SWAP1 PUSH2 0xFCA JUMP JUMPDEST PUSH2 0x14A8 JUMP JUMPDEST STOP JUMPDEST POP PUSH2 0x2CB PUSH2 0x2DF DUP3 PUSH2 0xD52 JUMP JUMPDEST POP PUSH1 0x1 ADD SLOAD PUSH1 0x1 PUSH1 0x1 PUSH1 0xA0 SHL SUB AND CALLER EQ SWAP1 POP PUSH2 0x2C2 JUMP JUMPDEST CALLVALUE PUSH2 0x289 JUMPI PUSH1 0x20 CALLDATASIZE PUSH1 0x3 NOT ADD SLT PUSH2 0x289 JUMPI PUSH2 0x100 PUSH2 0x330 PUSH2 0x31D PUSH2 0x318 PUSH2 0xDF3 JUMP JUMPDEST PUSH2 0x13B3 JUMP JUMPDEST PUSH1 0x40 SWAP3 SWAP2 SWAP3 MLOAD SWAP3 DUP4 MSTORE PUSH1 0x20 DUP4 ADD SWAP1 PUSH2 0xDA2 JUMP JUMPDEST RETURN JUMPDEST CALLVALUE PUSH2 0x289 JUMPI PUSH1 0x20 CALLDATASIZE PUSH1 0x3 NOT ADD SLT PUSH2 0x289 JUMPI PUSH1 0x4 CALLDATALOAD PUSH2 0x34F DUP2 PUSH2 0xD52 JUMP JUMPDEST POP SLOAD PUSH1 0x1 PUSH1 0x1 PUSH1 0xA0 SHL SUB AND CALLER EQ DUP1 ISZERO PUSH2 0x396 JUMPI JUMPDEST PUSH2 0x36C SWAP1 PUSH2 0xFCA JUMP JUMPDEST CALLER PUSH1 0x0 MSTORE PUSH1 0x2 PUSH1 0x20 MSTORE PUSH1 0x40 PUSH1 0x0 KECCAK256 SWAP1 PUSH1 0x0 MSTORE PUSH1 0x20 MSTORE PUSH1 0x40 PUSH1 0x0 KECCAK256 PUSH1 0x1 PUSH1 0xFF NOT DUP3 SLOAD AND OR SWAP1 SSTORE PUSH1 0x0 DUP1 RETURN JUMPDEST POP PUSH2 0x36C PUSH2 0x3A3 DUP3 PUSH2 0xD52 JUMP JUMPDEST POP PUSH1 0x1 ADD SLOAD PUSH1 0x1 PUSH1 0x1 PUSH1 0xA0 SHL SUB AND CALLER EQ SWAP1 POP PUSH2 0x363 JUMP JUMPDEST CALLVALUE PUSH2 0x289 JUMPI PUSH1 0x80 CALLDATASIZE PUSH1 0x3 NOT ADD SLT PUSH2 0x289 JUMPI PUSH1 0x4 CALLDATALOAD PUSH1 0x24 CALLDATALOAD PUSH1 0x64 CALLDATALOAD PUSH1 0x44 CALLDATALOAD PUSH2 0x3E0 DUP5 PUSH2 0xD52 JUMP JUMPDEST POP SLOAD PUSH1 0x1 PUSH1 0x1 PUSH1 0xA0 SHL SUB AND CALLER EQ DUP1 ISZERO PUSH2 0x6DD JUMPI JUMPDEST PUSH2 0x3FD SWAP1 PUSH2 0xFCA JUMP JUMPDEST PUSH2 0x406 DUP5 PUSH2 0xD52 JUMP JUMPDEST POP SWAP3 PUSH1 0x6 DUP5 ADD DUP1 SLOAD SWAP2 PUSH5 0x2540BE400 DUP4 MOD SWAP7 PUSH2 0x421 DUP2 PUSH2 0xD52 JUMP JUMPDEST POP SLOAD PUSH1 0x1 PUSH1 0x1 PUSH1 0xA0 SHL SUB AND ISZERO ISZERO SWAP1 DUP2 PUSH2 0x6BD JUMPI JUMPDEST POP ISZERO PUSH2 0x684 JUMPI PUSH1 0x5 DUP7 ADD SWAP7 PUSH2 0x44B DUP9 SLOAD ISZERO PUSH2 0x1016 JUMP JUMPDEST DUP1 ISZERO SWAP1 DUP2 ISZERO PUSH2 0x66F JUMPI JUMPDEST POP ISZERO PUSH2 0x63D JUMPI PUSH2 0x100 DUP2 LT ISZERO PUSH2 0x603 JUMPI PUSH1 0x2 DUP7 ADD SWAP6 DUP7 SLOAD SWAP7 PUSH1 0x3 DUP3 ADD SWAP8 DUP9 SLOAD DUP2 AND SWAP6 PUSH1 0x1 DUP6 SHL DUP1 SWAP8 AND PUSH2 0x5C8 JUMPI PUSH9 0x56BC75E2D63100000 SWAP1 DIV PUSH1 0x1 SUB PUSH2 0x539 JUMPI POP POP PUSH1 0x1 ADD SLOAD PUSH2 0x4AF SWAP1 PUSH1 0x1 PUSH1 0x1 PUSH1 0xA0 SHL SUB AND CALLER EQ PUSH2 0x137A JUMP JUMPDEST PUSH5 0x2540BE400 DUP2 MUL SWAP1 DUP1 DUP3 DIV PUSH5 0x2540BE400 EQ SWAP1 ISZERO OR ISZERO PUSH2 0x523 JUMPI PUSH9 0xAD78EBC5AC6200000 ADD DUP1 PUSH9 0xAD78EBC5AC6200000 GT PUSH2 0x523 JUMPI PUSH2 0x4F0 SWAP1 TIMESTAMP SWAP1 PUSH2 0xE17 JUMP JUMPDEST SWAP1 SSTORE DUP4 SLOAD OR DUP1 SWAP4 SSTORE DUP1 ISZERO ISZERO SWAP3 DUP4 PUSH2 0x511 JUMPI JUMPDEST POP POP POP PUSH2 0x50B JUMPI STOP JUMPDEST PUSH1 0x2 SWAP1 SSTORE STOP JUMPDEST PUSH2 0x51B SWAP4 POP PUSH2 0xE24 JUMP JUMPDEST DUP3 DUP1 DUP1 PUSH2 0x502 JUMP JUMPDEST PUSH4 0x4E487B71 PUSH1 0xE0 SHL PUSH1 0x0 MSTORE PUSH1 0x11 PUSH1 0x4 MSTORE PUSH1 0x24 PUSH1 0x0 REVERT JUMPDEST SWAP2 SLOAD SWAP1 SWAP8 POP SWAP1 SWAP3 SWAP2 SWAP1 PUSH2 0x556 SWAP1 PUSH1 0x1 PUSH1 0x1 PUSH1 0xA0 SHL SUB AND CALLER EQ PUSH2 0x137A JUMP JUMPDEST PUSH5 0x2540BE400 DUP2 MUL SWAP1 DUP1 DUP3 DIV PUSH5 0x2540BE400 EQ SWAP1 ISZERO OR ISZERO PUSH2 0x523 JUMPI PUSH9 0x56BC75E2D63100000 ADD DUP1 PUSH9 0x56BC75E2D63100000 GT PUSH2 0x523 JUMPI PUSH2 0x597 SWAP1 TIMESTAMP SWAP1 PUSH2 0xE17 JUMP JUMPDEST SWAP1 SSTORE OR DUP1 SWAP4 SSTORE DUP1 ISZERO ISZERO SWAP3 DUP4 PUSH2 0x5B6 JUMPI JUMPDEST POP POP POP PUSH2 0x5B0 JUMPI STOP JUMPDEST PUSH1 0x1 SWAP1 SSTORE STOP JUMPDEST PUSH2 0x5C0 SWAP4 POP PUSH2 0xE24 JUMP JUMPDEST DUP3 DUP1 DUP1 PUSH2 0x5A7 JUMP JUMPDEST PUSH1 0x40 MLOAD PUSH3 0x461BCD PUSH1 0xE5 SHL DUP2 MSTORE PUSH1 0x20 PUSH1 0x4 DUP3 ADD MSTORE PUSH1 0x13 PUSH1 0x24 DUP3 ADD MSTORE PUSH19 0x24B73B30B634B2B2103837B9B4BA34B7B71019 PUSH1 0x69 SHL PUSH1 0x44 DUP3 ADD MSTORE PUSH1 0x64 SWAP1 REVERT JUMPDEST PUSH1 0x40 MLOAD PUSH3 0x461BCD PUSH1 0xE5 SHL DUP2 MSTORE PUSH1 0x20 PUSH1 0x4 DUP3 ADD MSTORE PUSH1 0x12 PUSH1 0x24 DUP3 ADD MSTORE PUSH18 0x496E76616C696420706F736974696F6E2031 PUSH1 0x70 SHL PUSH1 0x44 DUP3 ADD MSTORE PUSH1 0x64 SWAP1 REVERT JUMPDEST PUSH1 0x40 MLOAD PUSH3 0x461BCD PUSH1 0xE5 SHL DUP2 MSTORE PUSH1 0x20 PUSH1 0x4 DUP3 ADD MSTORE PUSH1 0xA PUSH1 0x24 DUP3 ADD MSTORE PUSH10 0x54696D6520697320757 PUSH1 0xB4 SHL PUSH1 0x44 DUP3 ADD MSTORE PUSH1 0x64 SWAP1 REVERT JUMPDEST SWAP1 POP PUSH1 0x3C DUP2 ADD DUP1 SWAP2 GT PUSH2 0x523 JUMPI TIMESTAMP LT DUP9 PUSH2 0x455 JUMP JUMPDEST PUSH1 0x40 MLOAD PUSH3 0x461BCD PUSH1 0xE5 SHL DUP2 MSTORE PUSH1 0x20 PUSH1 0x4 DUP3 ADD MSTORE PUSH1 0x11 PUSH1 0x24 DUP3 ADD MSTORE PUSH17 0x47616D65206973206E6F74207265616479 PUSH1 0x78 SHL PUSH1 0x44 DUP3 ADD MSTORE PUSH1 0x64 SWAP1 REVERT JUMPDEST PUSH2 0x6C7 SWAP2 POP PUSH2 0xD52 JUMP JUMPDEST POP PUSH1 0x1 ADD SLOAD PUSH1 0x1 PUSH1 0x1 PUSH1 0xA0 SHL SUB AND ISZERO ISZERO DUP9 PUSH2 0x435 JUMP JUMPDEST POP PUSH2 0x3FD PUSH2 0x6EA DUP6 PUSH2 0xD52 JUMP JUMPDEST POP PUSH1 0x1 ADD SLOAD PUSH1 0x1 PUSH1 0x1 PUSH1 0xA0 SHL SUB AND CALLER EQ SWAP1 POP PUSH2 0x3F4 JUMP JUMPDEST CALLVALUE PUSH2 0x289 JUMPI PUSH1 0x20 CALLDATASIZE PUSH1 0x3 NOT ADD SLT PUSH2 0x289 JUMPI PUSH2 0x2D0 PUSH1 0x4 CALLDATALOAD PUSH2 0x721 DUP2 PUSH2 0xD52 JUMP JUMPDEST POP SLOAD PUSH1 0x1 PUSH1 0x1 PUSH1 0xA0 SHL SUB AND CALLER EQ DUP1 ISZERO PUSH2 0x743 JUMPI JUMPDEST PUSH2 0x73E SWAP1 PUSH2 0xFCA JUMP JUMPDEST PUSH2 0x111F JUMP JUMPDEST POP PUSH2 0x73E PUSH2 0x750 DUP3 PUSH2 0xD52 JUMP JUMPDEST POP PUSH1 0x1 ADD SLOAD PUSH1 0x1 PUSH1 0x1 PUSH1 0xA0 SHL SUB AND CALLER EQ SWAP1 POP PUSH2 0x735 JUMP JUMPDEST CALLVALUE PUSH2 0x289 JUMPI PUSH1 0x0 CALLDATASIZE PUSH1 0x3 NOT ADD SLT PUSH2 0x289 JUMPI PUSH1 0x20 PUSH1 0x40 MLOAD PUSH1 0x1 DUP2 MSTORE RETURN JUMPDEST CALLVALUE PUSH2 0x289 JUMPI PUSH1 0x0 CALLDATASIZE PUSH1 0x3 NOT ADD SLT PUSH2 0x289 JUMPI PUSH1 0x20 PUSH1 0x40 MLOAD PUSH1 0x10 DUP2 MSTORE RETURN JUMPDEST CALLVALUE PUSH2 0x289 JUMPI PUSH1 0x40 CALLDATASIZE PUSH1 0x3 NOT ADD SLT PUSH2 0x289 JUMPI PUSH1 0x1 PUSH1 0x1 PUSH1 0xA0 SHL SUB PUSH2 0x7C0 PUSH2 0xDF3 JUMP JUMPDEST AND PUSH1 0x0 MSTORE PUSH1 0x2 PUSH1 0x20 MSTORE PUSH1 0x40 PUSH1 0x0 KECCAK256 PUSH1 0x24 CALLDATALOAD PUSH1 0x0 MSTORE PUSH1 0x20 MSTORE PUSH1 0x20 PUSH1 0xFF PUSH1 0x40 PUSH1 0x0 KECCAK256 SLOAD AND PUSH1 0x40 MLOAD SWAP1 ISZERO ISZERO DUP2 MSTORE RETURN JUMPDEST CALLVALUE PUSH2 0x289 JUMPI PUSH1 0x0 CALLDATASIZE PUSH1 0x3 NOT ADD SLT PUSH2 0x289 JUMPI PUSH1 0x20 PUSH1 0x40 MLOAD PUSH1 0x2 DUP2 MSTORE RETURN JUMPDEST CALLVALUE PUSH2 0x289 JUMPI PUSH1 0x0 CALLDATASIZE PUSH1 0x3 NOT ADD SLT PUSH2 0x289 JUMPI PUSH1 0x20 PUSH1 0x40 MLOAD PUSH1 0x0 NOT DUP2 MSTORE RETURN JUMPDEST PUSH1 0x0 CALLDATASIZE PUSH1 0x3 NOT ADD SLT PUSH2 0x289 JUMPI PUSH2 0x839 PUSH2 0x1051 JUMP JUMPDEST CALLER DUP2 MSTORE PUSH1 0x20 DUP2 ADD SWAP1 PUSH1 0x0 DUP3 MSTORE PUSH1 0x40 DUP2 ADD PUSH1 0x0 DUP2 MSTORE PUSH1 0x60 DUP3 ADD PUSH1 0x0 DUP2 MSTORE PUSH1 0x80 DUP4 ADD CALLVALUE DUP2 MSTORE PUSH1 0xA0 DUP5 ADD SWAP2 PUSH1 0x0 DUP4 MSTORE PUSH1 0xC0 DUP6 ADD SWAP4 PUSH1 0x0 DUP6 MSTORE PUSH1 0x0 SLOAD PUSH9 0x10000000000000000 DUP2 LT ISZERO PUSH2 0x904 JUMPI DUP1 PUSH1 0x1 PUSH2 0x892 SWAP3 ADD PUSH1 0x0 SSTORE PUSH2 0xD52 JUMP JUMPDEST SWAP8 SWAP1 SWAP8 PUSH2 0x8EE JUMPI SWAP6 MLOAD DUP8 SLOAD PUSH1 0x1 PUSH1 0x1 PUSH1 0xA0 SHL SUB NOT SWAP1 DUP2 AND PUSH1 0x1 PUSH1 0x1 PUSH1 0xA0 SHL SUB SWAP3 DUP4 AND OR DUP10 SSTORE SWAP7 MLOAD PUSH1 0x1 DUP10 ADD DUP1 SLOAD SWAP1 SWAP9 AND SWAP2 AND OR SWAP1 SWAP6 SSTORE SWAP4 MLOAD PUSH1 0x2 DUP7 ADD SSTORE SWAP3 MLOAD PUSH1 0x3 DUP6 ADD SSTORE SWAP2 MLOAD PUSH1 0x4 DUP5 ADD SSTORE SWAP1 MLOAD PUSH1 0x5 DUP4 ADD SSTORE MLOAD PUSH1 0x6 SWAP2 SWAP1 SWAP2 ADD SSTORE STOP JUMPDEST PUSH4 0x4E487B71 PUSH1 0xE0 SHL PUSH1 0x0 MSTORE PUSH1 0x0 PUSH1 0x4 MSTORE PUSH1 0x24 PUSH1 0x0 REVERT JUMPDEST PUSH4 0x4E487B71 PUSH1 0xE0 SHL PUSH1 0x0 MSTORE PUSH1 0x41 PUSH1 0x4 MSTORE PUSH1 0x24 PUSH1 0x0 REVERT JUMPDEST CALLVALUE PUSH2 0x289 JUMPI PUSH1 0x20 CALLDATASIZE PUSH1 0x3 NOT ADD SLT PUSH2 0x289 JUMPI PUSH1 0x4 CALLDATALOAD PUSH2 0x937 DUP2 PUSH2 0xD52 JUMP JUMPDEST POP SLOAD PUSH1 0x1 PUSH1 0x1 PUSH1 0xA0 SHL SUB AND CALLER EQ DUP1 ISZERO PUSH2 0xA33 JUMPI JUMPDEST PUSH2 0x954 SWAP1 PUSH2 0xFCA JUMP JUMPDEST PUSH2 0x966 PUSH2 0x960 DUP3 PUSH2 0xD52 JUMP JUMPDEST POP PUSH2 0x1071 JUMP JUMPDEST DUP1 MLOAD SWAP1 SWAP2 SWAP1 PUSH1 0x1 PUSH1 0x1 PUSH1 0xA0 SHL SUB AND ISZERO DUP1 ISZERO PUSH2 0xA1E JUMPI JUMPDEST ISZERO PUSH2 0x9E9 JUMPI PUSH2 0x98A SWAP1 PUSH2 0xD52 JUMP JUMPDEST SWAP2 SWAP1 SWAP2 PUSH2 0x8EE JUMPI PUSH1 0x0 DUP1 DUP1 PUSH1 0x80 DUP2 SWAP5 DUP3 PUSH1 0x6 DUP9 DUP3 DUP2 SSTORE DUP3 PUSH1 0x1 DUP3 ADD SSTORE DUP3 PUSH1 0x2 DUP3 ADD SSTORE DUP3 PUSH1 0x3 DUP3 ADD SSTORE DUP3 PUSH1 0x4 DUP3 ADD SSTORE DUP3 PUSH1 0x5 DUP3 ADD SSTORE ADD SSTORE ADD MLOAD DUP2 DUP2 ISZERO PUSH2 0x9E0 JUMPI JUMPDEST CALLER SWAP1 CALL ISZERO PUSH2 0x9D4 JUMPI STOP JUMPDEST PUSH1 0x40 MLOAD RETURNDATASIZE PUSH1 0x0 DUP3 RETURNDATACOPY RETURNDATASIZE SWAP1 REVERT JUMPDEST POP PUSH2 0x8FC PUSH2 0x9CA JUMP JUMPDEST PUSH1 0x40 MLOAD PUSH3 0x461BCD PUSH1 0xE5 SHL DUP2 MSTORE PUSH1 0x20 PUSH1 0x4 DUP3 ADD MSTORE PUSH1 0xD PUSH1 0x24 DUP3 ADD MSTORE PUSH13 0x10D85B9B9BDD0818D85B98D95B PUSH1 0x9A SHL PUSH1 0x44 DUP3 ADD MSTORE PUSH1 0x64 SWAP1 REVERT JUMPDEST POP PUSH1 0x20 DUP3 ADD MLOAD PUSH1 0x1 PUSH1 0x1 PUSH1 0xA0 SHL SUB AND ISZERO PUSH2 0x97C JUMP JUMPDEST POP PUSH2 0x954 PUSH2 0xA40 DUP3 PUSH2 0xD52 JUMP JUMPDEST POP PUSH1 0x1 ADD SLOAD PUSH1 0x1 PUSH1 0x1 PUSH1 0xA0 SHL SUB AND CALLER EQ SWAP1 POP PUSH2 0x94B JUMP JUMPDEST CALLVALUE PUSH2 0x289 JUMPI PUSH1 0x40 CALLDATASIZE PUSH1 0x3 NOT ADD SLT PUSH2 0x289 JUMPI PUSH1 0x1 PUSH1 0x1 PUSH1 0xA0 SHL SUB PUSH2 0xA78 PUSH2 0xDF3 JUMP JUMPDEST AND PUSH1 0x0 MSTORE PUSH1 0x1 PUSH1 0x20 MSTORE PUSH1 0x40 PUSH1 0x0 KECCAK256 PUSH1 0x24 CALLDATALOAD PUSH1 0x0 MSTORE PUSH1 0x20 MSTORE PUSH1 0x20 PUSH1 0xFF PUSH1 0x40 PUSH1 0x0 KECCAK256 SLOAD AND PUSH1 0x40 MLOAD SWAP1 ISZERO ISZERO DUP2 MSTORE RETURN JUMPDEST CALLVALUE PUSH2 0x289 JUMPI PUSH1 0x0 CALLDATASIZE PUSH1 0x3 NOT ADD SLT PUSH2 0x289 JUMPI PUSH1 0x0 SLOAD PUSH8 0xFFFFFFFFFFFFFFFF DUP2 GT PUSH2 0x904 JUMPI PUSH1 0x40 MLOAD SWAP1 PUSH1 0x1F NOT PUSH1 0x3F DUP3 PUSH1 0x5 SHL ADD AND DUP3 ADD DUP3 DUP2 LT PUSH8 0xFFFFFFFFFFFFFFFF DUP3 GT OR PUSH2 0x904 JUMPI PUSH1 0x40 MSTORE DUP1 DUP3 MSTORE PUSH1 0x20 DUP3 ADD SWAP1 DUP2 PUSH1 0x0 DUP1 MSTORE PUSH32 0x290DECD9548B62A8D60345A988386FC84BA6BC95484008F6362F93160EF3E563 PUSH1 0x0 SWAP2 JUMPDEST DUP4 DUP4 LT PUSH2 0xB77 JUMPI DUP5 DUP7 PUSH1 0x40 MLOAD SWAP2 DUP3 SWAP2 PUSH1 0x20 DUP4 ADD SWAP1 PUSH1 0x20 DUP5 MSTORE MLOAD DUP1 SWAP2 MSTORE PUSH1 0x40 DUP4 ADD SWAP2 SWAP1 PUSH1 0x0 JUMPDEST DUP2 DUP2 LT PUSH2 0xB53 JUMPI POP POP POP SUB SWAP1 RETURN JUMPDEST SWAP2 SWAP4 POP SWAP2 PUSH1 0x20 PUSH1 0xE0 DUP3 PUSH2 0xB69 PUSH1 0x1 SWAP5 DUP9 MLOAD PUSH2 0xDA2 JUMP JUMPDEST ADD SWAP5 ADD SWAP2 ADD SWAP2 DUP5 SWAP4 SWAP3 PUSH2 0xB45 JUMP JUMPDEST PUSH1 0x7 PUSH1 0x20 PUSH1 0x1 SWAP3 PUSH2 0xB87 DUP6 PUSH2 0x1071 JUMP JUMPDEST DUP2 MSTORE ADD SWAP3 ADD SWAP3 ADD SWAP2 SWAP1 PUSH2 0xB20 JUMP JUMPDEST CALLVALUE PUSH2 0x289 JUMPI PUSH1 0x0 CALLDATASIZE PUSH1 0x3 NOT ADD SLT PUSH2 0x289 JUMPI PUSH1 0x20 PUSH1 0x40 MLOAD PUSH1 0x3C DUP2 MSTORE RETURN JUMPDEST CALLVALUE PUSH2 0x289 JUMPI PUSH1 0x20 CALLDATASIZE PUSH1 0x3 NOT ADD SLT PUSH2 0x289 JUMPI PUSH2 0xBF3 PUSH1 0x4 CALLDATALOAD PUSH2 0xBD1 DUP2 PUSH2 0xD52 JUMP JUMPDEST POP SLOAD PUSH1 0x1 PUSH1 0x1 PUSH1 0xA0 SHL SUB AND CALLER EQ DUP1 ISZERO PUSH2 0xC7B JUMPI JUMPDEST PUSH2 0xBEE SWAP1 PUSH2 0xFCA JUMP JUMPDEST PUSH2 0xD52 JUMP JUMPDEST POP PUSH1 0x5 DUP2 ADD SWAP1 PUSH2 0xC04 DUP3 SLOAD ISZERO PUSH2 0x1016 JUMP JUMPDEST DUP1 SLOAD PUSH1 0x1 PUSH1 0x1 PUSH1 0xA0 SHL SUB AND SWAP1 DUP2 ISZERO ISZERO SWAP1 DUP2 PUSH2 0xC64 JUMPI JUMPDEST POP ISZERO PUSH2 0xC2C JUMPI CALLER SUB PUSH2 0x5B0 JUMPI PUSH1 0x2 SWAP1 SSTORE STOP JUMPDEST PUSH1 0x40 MLOAD PUSH3 0x461BCD PUSH1 0xE5 SHL DUP2 MSTORE PUSH1 0x20 PUSH1 0x4 DUP3 ADD MSTORE PUSH1 0x10 PUSH1 0x24 DUP3 ADD MSTORE PUSH16 0x11D85B59481A5CC81B9BDD08199D5B1B PUSH1 0x82 SHL PUSH1 0x44 DUP3 ADD MSTORE PUSH1 0x64 SWAP1 REVERT JUMPDEST PUSH1 0x1 ADD SLOAD PUSH1 0x1 PUSH1 0x1 PUSH1 0xA0 SHL SUB AND ISZERO ISZERO SWAP1 POP DUP4 PUSH2 0xC1A JUMP JUMPDEST POP PUSH2 0xBEE PUSH2 0xC88 DUP3 PUSH2 0xD52 JUMP JUMPDEST POP PUSH1 0x1 ADD SLOAD PUSH1 0x1 PUSH1 0x1 PUSH1 0xA0 SHL SUB AND CALLER EQ SWAP1 POP PUSH2 0xBE5 JUMP JUMPDEST CALLVALUE PUSH2 0x289 JUMPI PUSH1 0x20 CALLDATASIZE PUSH1 0x3 NOT ADD SLT PUSH2 0x289 JUMPI PUSH1 0x4 CALLDATALOAD PUSH1 0x0 SLOAD DUP2 LT ISZERO PUSH2 0x289 JUMPI PUSH2 0xCC8 PUSH1 0xE0 SWAP2 PUSH2 0xD52 JUMP JUMPDEST POP DUP1 SLOAD PUSH1 0x1 DUP3 ADD SLOAD PUSH1 0x2 DUP4 ADD SLOAD PUSH1 0x3 DUP5 ADD SLOAD PUSH1 0x4 DUP6 ADD SLOAD PUSH1 0x5 DUP7 ADD SLOAD PUSH1 0x6 SWAP1 SWAP7 ADD SLOAD PUSH1 0x40 DUP1 MLOAD PUSH1 0x1 PUSH1 0x1 PUSH1 0xA0 SHL SUB SWAP8 DUP9 AND DUP2 MSTORE SWAP6 SWAP1 SWAP7 AND PUSH1 0x20 DUP7 ADD MSTORE SWAP5 DUP5 ADD SWAP3 SWAP1 SWAP3 MSTORE PUSH1 0x60 DUP4 ADD MSTORE PUSH1 0x80 DUP3 ADD MSTORE PUSH1 0xA0 DUP2 ADD SWAP3 SWAP1 SWAP3 MSTORE PUSH1 0xC0 DUP3 ADD MSTORE RETURN JUMPDEST CALLVALUE PUSH2 0x289 JUMPI PUSH1 0x60 CALLDATASIZE PUSH1 0x3 NOT ADD SLT PUSH2 0x289 JUMPI PUSH1 0x20 PUSH2 0xD48 PUSH1 0x44 CALLDATALOAD PUSH1 0x24 CALLDATALOAD PUSH1 0x4 CALLDATALOAD PUSH2 0xE24 JUMP JUMPDEST PUSH1 0x40 MLOAD SWAP1 ISZERO ISZERO DUP2 MSTORE RETURN JUMPDEST PUSH1 0x0 SLOAD DUP2 LT ISZERO PUSH2 0xD8C JUMPI PUSH1 0x0 DUP1 DUP1 MSTORE PUSH1 0x7 SWAP2 SWAP1 SWAP2 MUL PUSH32 0x290DECD9548B62A8D60345A988386FC84BA6BC95484008F6362F93160EF3E563 ADD SWAP2 JUMP JUMPDEST PUSH4 0x4E487B71 PUSH1 0xE0 SHL PUSH1 0x0 MSTORE PUSH1 0x32 PUSH1 0x4 MSTORE PUSH1 0x24 PUSH1 0x0 REVERT JUMPDEST PUSH1 0xC0 DUP1 SWAP2 PUSH1 0x1 DUP1 PUSH1 0xA0 SHL SUB DUP2 MLOAD AND DUP5 MSTORE PUSH1 0x1 DUP1 PUSH1 0xA0 SHL SUB PUSH1 0x20 DUP3 ADD MLOAD AND PUSH1 0x20 DUP6 ADD MSTORE PUSH1 0x40 DUP2 ADD MLOAD PUSH1 0x40 DUP6 ADD MSTORE PUSH1 0x60 DUP2 ADD MLOAD PUSH1 0x60 DUP6 ADD MSTORE PUSH1 0x80 DUP2 ADD MLOAD PUSH1 0x80 DUP6 ADD MSTORE PUSH1 0xA0 DUP2 ADD MLOAD PUSH1 0xA0 DUP6 ADD MSTORE ADD MLOAD SWAP2 ADD MSTORE JUMP JUMPDEST PUSH1 0x4 CALLDATALOAD SWAP1 PUSH1 0x1 PUSH1 0x1 PUSH1 0xA0 SHL SUB DUP3 AND DUP3 SUB PUSH2 0x289 JUMPI JUMP JUMPDEST SWAP1 PUSH1 0x40 DUP3 ADD DUP1 SWAP3 GT PUSH2 0x523 JUMPI JUMP JUMPDEST SWAP2 SWAP1 DUP3 ADD DUP1 SWAP3 GT PUSH2 0x523 JUMPI JUMP JUMPDEST SWAP1 SWAP2 PUSH2 0x100 DUP2 LT ISZERO PUSH2 0xFC2 JUMPI PUSH1 0x0 SWAP3 PUSH1 0x1 DUP2 EQ PUSH2 0xF76 JUMPI JUMPDEST PUSH1 0x2 DUP2 EQ PUSH2 0xF34 JUMPI JUMPDEST PUSH1 0x3 DUP2 EQ PUSH2 0xEC8 JUMPI JUMPDEST PUSH1 0x4 EQ PUSH2 0xE5D JUMPI JUMPDEST POP DUP2 AND EQ SWAP1 JUMP JUMPDEST SWAP3 SWAP1 PUSH1 0x4 PUSH1 0xF DUP6 AND LT DUP1 ISZERO PUSH2 0xEBA JUMPI JUMPDEST PUSH2 0xEB1 JUMPI DUP4 SWAP3 JUMPDEST PUSH2 0xE7D DUP6 PUSH2 0xE09 JUMP JUMPDEST PUSH1 0x3 NOT DUP2 ADD SWAP1 DUP2 GT PUSH2 0x523 JUMPI DUP5 GT PUSH2 0xEA6 JUMPI PUSH1 0x1 DUP5 SHL OR SWAP3 PUSH1 0xF DUP2 ADD DUP1 SWAP2 GT PUSH2 0x523 JUMPI SWAP3 PUSH2 0xE74 JUMP JUMPDEST SWAP3 POP SWAP1 SWAP3 POP CODESIZE PUSH2 0xE56 JUMP JUMPDEST POP SWAP2 POP POP PUSH1 0x0 SWAP1 JUMP JUMPDEST POP PUSH1 0xC DUP5 PUSH1 0x4 SHR LT ISZERO PUSH2 0xE6D JUMP JUMPDEST SWAP4 SWAP2 SWAP1 PUSH1 0xC PUSH1 0xF DUP3 AND LT DUP1 ISZERO SWAP1 PUSH2 0xF26 JUMPI JUMPDEST PUSH2 0xF1C JUMPI DUP1 SWAP4 JUMPDEST PUSH2 0xEEA DUP3 PUSH2 0xE09 JUMP JUMPDEST PUSH1 0x4 DUP2 ADD DUP1 SWAP2 GT PUSH2 0x523 JUMPI DUP6 GT PUSH2 0xF12 JUMPI PUSH1 0x1 DUP6 SHL OR SWAP4 PUSH1 0x11 DUP2 ADD DUP1 SWAP2 GT PUSH2 0x523 JUMPI SWAP4 PUSH2 0xEE1 JUMP JUMPDEST SWAP4 POP SWAP1 SWAP2 SWAP4 PUSH2 0xE4E JUMP JUMPDEST POP POP SWAP2 POP POP PUSH1 0x0 SWAP1 JUMP JUMPDEST POP PUSH1 0xC DUP2 PUSH1 0x4 SHR LT ISZERO PUSH2 0xEDA JUMP JUMPDEST SWAP4 SWAP2 SWAP1 PUSH1 0xC DUP2 PUSH1 0x4 SHR LT ISZERO PUSH2 0xF1C JUMPI DUP1 SWAP4 JUMPDEST PUSH2 0xF4F DUP3 PUSH2 0xE09 JUMP JUMPDEST DUP6 GT PUSH2 0xF6C JUMPI PUSH1 0x1 DUP6 SHL OR SWAP4 PUSH1 0x10 DUP2 ADD DUP1 SWAP2 GT PUSH2 0x523 JUMPI SWAP4 PUSH2 0xF46 JUMP JUMPDEST SWAP4 POP SWAP1 SWAP2 SWAP4 PUSH2 0xE45 JUMP JUMPDEST SWAP4 SWAP2 SWAP1 PUSH1 0xC PUSH1 0xF DUP3 AND LT ISZERO PUSH2 0xFBB JUMPI DUP1 SWAP4 JUMPDEST PUSH1 0x4 DUP3 ADD DUP1 DUP4 GT PUSH2 0x523 JUMPI DUP6 GT PUSH2 0xFB1 JUMPI PUSH1 0x1 DUP6 SHL OR SWAP4 PUSH1 0x0 NOT DUP2 EQ PUSH2 0x523 JUMPI PUSH1 0x1 ADD SWAP4 PUSH2 0xF88 JUMP JUMPDEST SWAP4 POP SWAP1 SWAP2 SWAP4 PUSH2 0xE3C JUMP JUMPDEST POP POP SWAP2 POP SWAP1 JUMP JUMPDEST POP POP POP PUSH1 0x0 SWAP1 JUMP JUMPDEST ISZERO PUSH2 0xFD1 JUMPI JUMP JUMPDEST PUSH1 0x40 MLOAD PUSH3 0x461BCD PUSH1 0xE5 SHL DUP2 MSTORE PUSH1 0x20 PUSH1 0x4 DUP3 ADD MSTORE PUSH1 0x18 PUSH1 0x24 DUP3 ADD MSTORE PUSH32 0x596F7520617265206E6F7420696E20746869732067616D650000000000000000 PUSH1 0x44 DUP3 ADD MSTORE PUSH1 0x64 SWAP1 REVERT JUMPDEST ISZERO PUSH2 0x101D JUMPI JUMP JUMPDEST PUSH1 0x40 MLOAD PUSH3 0x461BCD PUSH1 0xE5 SHL DUP2 MSTORE PUSH1 0x20 PUSH1 0x4 DUP3 ADD MSTORE PUSH1 0xC PUSH1 0x24 DUP3 ADD MSTORE PUSH12 0x23B0B6B29034B99037BB32B9 PUSH1 0xA1 SHL PUSH1 0x44 DUP3 ADD MSTORE PUSH1 0x64 SWAP1 REVERT JUMPDEST PUSH1 0x40 MLOAD SWAP1 PUSH1 0xE0 DUP3 ADD DUP3 DUP2 LT PUSH8 0xFFFFFFFFFFFFFFFF DUP3 GT OR PUSH2 0x904 JUMPI PUSH1 0x40 MSTORE JUMP JUMPDEST SWAP1 PUSH1 0x6 PUSH2 0x107C PUSH2 0x1051 JUMP JUMPDEST DUP4 SLOAD PUSH1 0x1 PUSH1 0x1 PUSH1 0xA0 SHL SUB SWAP1 DUP2 AND DUP3 MSTORE PUSH1 0x1 DUP6 ADD SLOAD AND PUSH1 0x20 DUP3 ADD MSTORE PUSH1 0x2 DUP5 ADD SLOAD PUSH1 0x40 DUP3 ADD MSTORE PUSH1 0x3 DUP5 ADD SLOAD PUSH1 0x60 DUP3 ADD MSTORE PUSH1 0x4 DUP5 ADD SLOAD PUSH1 0x80 DUP3 ADD MSTORE PUSH1 0x5 DUP5 ADD SLOAD PUSH1 0xA0 DUP3 ADD MSTORE SWAP3 ADD SLOAD PUSH1 0xC0 DUP4 ADD MSTORE JUMP JUMPDEST ISZERO PUSH2 0x10CF JUMPI JUMP JUMPDEST PUSH1 0x40 MLOAD PUSH3 0x461BCD PUSH1 0xE5 SHL DUP2 MSTORE PUSH1 0x20 PUSH1 0x4 DUP3 ADD MSTORE PUSH1 0x22 PUSH1 0x24 DUP3 ADD MSTORE PUSH32 0x596F75206861766520616C726561647920636C61696D65642074686973206761 PUSH1 0x44 DUP3 ADD MSTORE PUSH2 0x6D65 PUSH1 0xF0 SHL PUSH1 0x64 DUP3 ADD MSTORE PUSH1 0x84 SWAP1 REVERT JUMPDEST PUSH2 0x960 PUSH2 0x1177 SWAP2 CALLER PUSH1 0x0 MSTORE PUSH1 0x1 PUSH1 0x20 MSTORE PUSH1 0x40 PUSH1 0x0 KECCAK256 DUP2 PUSH1 0x0 MSTORE PUSH1 0x20 MSTORE PUSH2 0x114D PUSH1 0xFF PUSH1 0x40 PUSH1 0x0 KECCAK256 SLOAD AND ISZERO PUSH2 0x10C8 JUMP JUMPDEST CALLER PUSH1 0x0 MSTORE PUSH1 0x1 PUSH1 0x20 MSTORE PUSH1 0x40 PUSH1 0x0 KECCAK256 DUP2 PUSH1 0x0 MSTORE PUSH1 0x20 MSTORE PUSH1 0x40 PUSH1 0x0 KECCAK256 PUSH1 0x1 PUSH1 0xFF NOT DUP3 SLOAD AND OR SWAP1 SSTORE PUSH2 0xD52 JUMP JUMPDEST PUSH1 0xC0 DUP2 ADD MLOAD PUSH1 0x40 DUP3 ADD MLOAD PUSH1 0x60 DUP4 ADD MLOAD PUSH5 0x2540BE400 DUP4 MOD SWAP3 PUSH9 0x56BC75E2D63100000 SWAP1 DIV SWAP2 OR PUSH1 0x0 NOT EQ PUSH2 0x1346 JUMPI PUSH1 0xA0 DUP4 ADD SWAP2 DUP3 MLOAD ISZERO DUP1 PUSH2 0x133C JUMPI JUMPDEST DUP1 PUSH2 0x1329 JUMPI JUMPDEST ISZERO PUSH2 0x12E9 JUMPI POP POP PUSH1 0x2 DUP2 MSTORE JUMPDEST DUP1 MLOAD ISZERO PUSH2 0x12B4 JUMPI MLOAD PUSH1 0x1 DUP2 EQ DUP1 PUSH2 0x12A1 JUMPI JUMPDEST ISZERO PUSH2 0x1215 JUMPI POP PUSH1 0x80 ADD MLOAD DUP1 PUSH1 0x1 SHL SWAP1 DUP1 DUP3 DIV PUSH1 0x2 EQ SWAP1 ISZERO OR ISZERO PUSH2 0x523 JUMPI PUSH1 0x0 DUP1 DUP1 DUP1 SWAP4 DUP2 DUP2 ISZERO PUSH2 0x120C JUMPI JUMPDEST CALLER SWAP1 CALL ISZERO PUSH2 0x9D4 JUMPI JUMP JUMPDEST POP PUSH2 0x8FC PUSH2 0x1202 JUMP JUMPDEST PUSH1 0x2 EQ DUP1 PUSH2 0x128B JUMPI JUMPDEST PUSH2 0x125D JUMPI PUSH1 0x40 MLOAD PUSH3 0x461BCD PUSH1 0xE5 SHL DUP2 MSTORE PUSH1 0x20 PUSH1 0x4 DUP3 ADD MSTORE PUSH1 0x13 PUSH1 0x24 DUP3 ADD MSTORE PUSH19 0x10D85B9B9BDD0818DB185A5B481C995DD85C99 PUSH1 0x6A SHL PUSH1 0x44 DUP3 ADD MSTORE PUSH1 0x64 SWAP1 REVERT JUMPDEST PUSH1 0x80 ADD MLOAD DUP1 PUSH1 0x1 SHL SWAP1 DUP1 DUP3 DIV PUSH1 0x2 EQ SWAP1 ISZERO OR ISZERO PUSH2 0x523 JUMPI PUSH1 0x0 DUP1 DUP1 DUP1 SWAP4 DUP2 DUP2 ISZERO PUSH2 0x120C JUMPI CALLER SWAP1 CALL ISZERO PUSH2 0x9D4 JUMPI JUMP JUMPDEST POP PUSH1 0x20 DUP2 ADD MLOAD PUSH1 0x1 PUSH1 0x1 PUSH1 0xA0 SHL SUB AND CALLER EQ PUSH2 0x121E JUMP JUMPDEST POP DUP2 MLOAD PUSH1 0x1 PUSH1 0x1 PUSH1 0xA0 SHL SUB AND CALLER EQ PUSH2 0x11D7 JUMP JUMPDEST PUSH1 0x40 MLOAD PUSH3 0x461BCD PUSH1 0xE5 SHL DUP2 MSTORE PUSH1 0x20 PUSH1 0x4 DUP3 ADD MSTORE PUSH1 0xD PUSH1 0x24 DUP3 ADD MSTORE PUSH13 0x139BC81DDA5B9B995C881E595D PUSH1 0x9A SHL PUSH1 0x44 DUP3 ADD MSTORE PUSH1 0x64 SWAP1 REVERT JUMPDEST DUP3 MLOAD ISZERO SWAP2 DUP3 PUSH2 0x131E JUMPI JUMPDEST POP DUP2 PUSH2 0x1309 JUMPI JUMPDEST POP ISZERO PUSH2 0x11C5 JUMPI PUSH1 0x1 DUP2 MSTORE PUSH2 0x11C5 JUMP JUMPDEST SWAP1 POP PUSH1 0x3C DUP2 ADD DUP1 SWAP2 GT PUSH2 0x523 JUMPI TIMESTAMP GT CODESIZE PUSH2 0x12FA JUMP JUMPDEST PUSH1 0x2 EQ SWAP2 POP CODESIZE PUSH2 0x12F3 JUMP JUMPDEST POP PUSH1 0x3C DUP2 ADD DUP1 DUP3 GT PUSH2 0x523 JUMPI TIMESTAMP GT PUSH2 0x11B9 JUMP JUMPDEST POP PUSH1 0x1 DUP3 EQ PUSH2 0x11B3 JUMP JUMPDEST PUSH1 0x40 MLOAD PUSH3 0x461BCD PUSH1 0xE5 SHL DUP2 MSTORE PUSH1 0x20 PUSH1 0x4 DUP3 ADD MSTORE PUSH1 0xC PUSH1 0x24 DUP3 ADD MSTORE PUSH12 0x47616D652069732064726177 PUSH1 0xA0 SHL PUSH1 0x44 DUP3 ADD MSTORE PUSH1 0x64 SWAP1 REVERT JUMPDEST ISZERO PUSH2 0x1381 JUMPI JUMP JUMPDEST PUSH1 0x40 MLOAD PUSH3 0x461BCD PUSH1 0xE5 SHL DUP2 MSTORE PUSH1 0x20 PUSH1 0x4 DUP3 ADD MSTORE PUSH1 0xA PUSH1 0x24 DUP3 ADD MSTORE PUSH10 0x2BB937B733903A3AB937 PUSH1 0xB1 SHL PUSH1 0x44 DUP3 ADD MSTORE PUSH1 0x64 SWAP1 REVERT JUMPDEST SWAP1 PUSH2 0x13BC PUSH2 0x1051 JUMP JUMPDEST PUSH1 0x0 DUP2 MSTORE PUSH1 0x0 PUSH1 0x20 DUP3 ADD MSTORE PUSH1 0x0 PUSH1 0x40 DUP3 ADD MSTORE PUSH1 0x0 PUSH1 0x60 DUP3 ADD MSTORE PUSH1 0x0 PUSH1 0x80 DUP3 ADD MSTORE PUSH1 0x0 PUSH1 0xA0 DUP3 ADD MSTORE PUSH1 0x0 PUSH1 0xC0 DUP3 ADD MSTORE POP PUSH1 0x0 SLOAD PUSH1 0x0 NOT DUP2 ADD SWAP1 DUP2 GT PUSH2 0x523 JUMPI JUMPDEST PUSH2 0x1404 DUP2 PUSH2 0xD52 JUMP JUMPDEST POP SLOAD PUSH1 0x1 PUSH1 0x1 PUSH1 0xA0 SHL SUB DUP5 DUP2 AND SWAP2 AND DUP2 EQ SWAP1 DUP2 ISZERO PUSH2 0x1488 JUMPI JUMPDEST POP PUSH2 0x1477 JUMPI DUP1 ISZERO PUSH2 0x1437 JUMPI DUP1 ISZERO PUSH2 0x523 JUMPI PUSH1 0x0 NOT ADD PUSH2 0x13FB JUMP JUMPDEST POP SWAP1 POP PUSH2 0x1442 PUSH2 0x1051 JUMP JUMPDEST SWAP1 PUSH1 0x0 DUP3 MSTORE PUSH1 0x0 PUSH1 0x20 DUP4 ADD MSTORE PUSH1 0x0 PUSH1 0x40 DUP4 ADD MSTORE PUSH1 0x0 PUSH1 0x60 DUP4 ADD MSTORE PUSH1 0x0 PUSH1 0x80 DUP4 ADD MSTORE PUSH1 0x0 PUSH1 0xA0 DUP4 ADD MSTORE PUSH1 0x0 PUSH1 0xC0 DUP4 ADD MSTORE PUSH1 0x0 SWAP2 SWAP1 JUMP JUMPDEST SWAP2 POP PUSH2 0x1485 PUSH2 0x960 DUP4 PUSH2 0xD52 JUMP JUMPDEST SWAP1 JUMP JUMPDEST SWAP1 POP PUSH2 0x1493 DUP3 PUSH2 0xD52 JUMP JUMPDEST POP PUSH1 0x1 ADD SLOAD PUSH1 0x1 PUSH1 0x1 PUSH1 0xA0 SHL SUB AND EQ CODESIZE PUSH2 0x141D JUMP JUMPDEST CALLER PUSH1 0x0 MSTORE PUSH1 0x1 PUSH1 0x20 MSTORE PUSH1 0x40 PUSH1 0x0 KECCAK256 DUP2 PUSH1 0x0 MSTORE PUSH1 0x20 MSTORE PUSH2 0x14CF PUSH1 0xFF PUSH1 0x40 PUSH1 0x0 KECCAK256 SLOAD AND ISZERO PUSH2 0x10C8 JUMP JUMPDEST CALLER PUSH1 0x0 MSTORE PUSH1 0x1 PUSH1 0x20 MSTORE PUSH1 0x40 PUSH1 0x0 KECCAK256 DUP2 PUSH1 0x0 MSTORE PUSH1 0x20 MSTORE PUSH1 0x40 PUSH1 0x0 KECCAK256 PUSH1 0x1 PUSH1 0xFF NOT DUP3 SLOAD AND OR SWAP1 SSTORE PUSH2 0x1500 PUSH2 0x960 DUP3 PUSH2 0xD52 JUMP JUMPDEST SWAP1 PUSH1 0xC0 DUP3 ADD PUSH9 0x56BC75E2D63100000 PUSH5 0x2540BE400 DUP3 MLOAD MOD SWAP2 MLOAD DIV ISZERO SWAP1 DUP2 ISZERO PUSH2 0x163F JUMPI JUMPDEST POP PUSH2 0x15F4 JUMPI PUSH1 0xA0 DUP3 ADD MLOAD PUSH2 0x1610 JUMPI PUSH1 0x40 DUP3 ADD MLOAD PUSH1 0x60 DUP4 ADD MLOAD OR PUSH1 0x0 NOT EQ PUSH2 0x15F4 JUMPI PUSH1 0x1 DUP1 PUSH1 0xA0 SHL SUB DUP3 MLOAD AND PUSH1 0x0 MSTORE PUSH1 0x2 PUSH1 0x20 MSTORE PUSH1 0x40 PUSH1 0x0 KECCAK256 DUP2 PUSH1 0x0 MSTORE PUSH1 0x20 MSTORE PUSH1 0xFF PUSH1 0x40 PUSH1 0x0 KECCAK256 SLOAD AND SWAP1 DUP2 PUSH2 0x15C2 JUMPI JUMPDEST POP PUSH2 0x15A7 JUMPI PUSH1 0x40 MLOAD PUSH3 0x461BCD PUSH1 0xE5 SHL DUP2 MSTORE PUSH1 0x20 PUSH1 0x4 DUP3 ADD MSTORE PUSH1 0x7 PUSH1 0x24 DUP3 ADD MSTORE PUSH7 0x4E6F2044726177 PUSH1 0xC8 SHL PUSH1 0x44 DUP3 ADD MSTORE PUSH1 0x64 SWAP1 REVERT JUMPDEST PUSH1 0x0 DUP1 DUP1 PUSH1 0x80 DUP2 SWAP5 ADD MLOAD DUP2 DUP2 ISZERO PUSH2 0x120C JUMPI CALLER SWAP1 CALL ISZERO PUSH2 0x9D4 JUMPI JUMP JUMPDEST SWAP1 POP PUSH1 0x1 DUP1 PUSH1 0xA0 SHL SUB PUSH1 0x20 DUP4 ADD MLOAD AND PUSH1 0x0 MSTORE PUSH1 0x2 PUSH1 0x20 MSTORE PUSH1 0x40 PUSH1 0x0 KECCAK256 SWAP1 PUSH1 0x0 MSTORE PUSH1 0x20 MSTORE PUSH1 0xFF PUSH1 0x40 PUSH1 0x0 KECCAK256 SLOAD AND CODESIZE PUSH2 0x1573 JUMP JUMPDEST POP PUSH1 0x0 DUP1 DUP1 PUSH1 0x80 DUP2 SWAP5 ADD MLOAD DUP2 DUP2 ISZERO PUSH2 0x120C JUMPI CALLER SWAP1 CALL ISZERO PUSH2 0x9D4 JUMPI JUMP JUMPDEST PUSH1 0x40 MLOAD PUSH3 0x461BCD PUSH1 0xE5 SHL DUP2 MSTORE PUSH1 0x20 PUSH1 0x4 DUP3 ADD MSTORE PUSH1 0x7 PUSH1 0x24 DUP3 ADD MSTORE PUSH7 0x4E6F2044726177 PUSH1 0xC8 SHL PUSH1 0x44 DUP3 ADD MSTORE PUSH1 0x64 SWAP1 REVERT JUMPDEST SWAP1 POP PUSH1 0x3C DUP2 ADD DUP1 SWAP2 GT PUSH2 0x523 JUMPI TIMESTAMP LT CODESIZE PUSH2 0x1524 JUMP INVALID LOG2 PUSH5 0x6970667358 0x22 SLT KECCAK256 SWAP6 0x2A PUSH6 0xD546AADA1B4F SAR JUMPI PUSH16 0xA0225593B2DD1D0F2DCCBEBE92B94891 0xFB ADD 0xF7 0xB6 PUSH5 0x736F6C6343 STOP ADDMOD SHR STOP CALLER "
        },
        "methodIdentifiers": {
          "DRAW_MARK()": "78c7cee0",
          "MAX_TIME()": "26949984",
          "O()": "a0ea32de",
          "SIZE()": "bdffd282",
          "X()": "c1599bd9",
          "allGames()": "465542f0",
          "cancelGame(uint256)": "69958ab9",
          "checkWin(uint256,uint256,uint256)": "110a8b99",
          "claimDraw(uint256)": "e6299a5a",
          "claimWinner(uint256)": "c3887ad7",
          "claimed(address,uint256)": "4dd6c8de",
          "createGame()": "7255d729",
          "games(uint256)": "117a5b90",
          "joinGame(uint256)": "efaa55a0",
          "makeMove(uint256,uint256,uint256,uint256)": "c9b144a8",
          "myGame(address)": "d6afb262",
          "playerRequestDraw(address,uint256)": "a2d893c5",
          "quitGame(uint256)": "16f99211",
          "requestDraw(uint256)": "d49e2f51"
        }
      }
    }
  }
}