{
  "contracts/TicTacToe.sol": {
    "TicTacToe": {
      "abi": [
        {
          "inputs": [],
          "name": "DRAW_MARK",
          "outputs": [
            {
              "internalType": "uint256",
              "name": "",
              "type": "uint256"
            }
          ],
          "stateMutability": "view",
          "type": "function"
        },
        {
          "inputs": [],
          "name": "MAX_TIME",
          "outputs": [
            {
              "internalType": "uint256",
              "name": "",
              "type": "uint256"
            }
          ],
          "stateMutability": "view",
          "type": "function"
        },
        {
          "inputs": [],
          "name": "O",
          "outputs": [
            {
              "internalType": "uint8",
              "name": "",
              "type": "uint8"
            }
          ],
          "stateMutability": "view",
          "type": "function"
        },
        {
          "inputs": [],
          "name": "SIZE",
          "outputs": [
            {
              "internalType": "uint256",
              "name": "",
              "type": "uint256"
            }
          ],
          "stateMutability": "view",
          "type": "function"
        },
        {
          "inputs": [],
          "name": "X",
          "outputs": [
            {
              "internalType": "uint8",
              "name": "",
              "type": "uint8"
            }
          ],
          "stateMutability": "view",
          "type": "function"
        },
        {
          "inputs": [],
          "name": "allGames",
          "outputs": [
            {
              "components": [
                {
                  "internalType": "address",
                  "name": "playerX",
                  "type": "address"
                },
                {
                  "internalType": "address",
                  "name": "playerO",
                  "type": "address"
                },
                {
                  "internalType": "uint256",
                  "name": "X",
                  "type": "uint256"
                },
                {
                  "internalType": "uint256",
                  "name": "O",
                  "type": "uint256"
                },
                {
                  "internalType": "uint256",
                  "name": "betAmount",
                  "type": "uint256"
                },
                {
                  "internalType": "uint8",
                  "name": "winner",
                  "type": "uint8"
                },
                {
                  "internalType": "uint8",
                  "name": "moveOf",
                  "type": "uint8"
                },
                {
                  "internalType": "uint8",
                  "name": "movePos",
                  "type": "uint8"
                },
                {
                  "internalType": "uint64",
                  "name": "movedAt",
                  "type": "uint64"
                }
              ],
              "internalType": "struct TicTacToe.Game[]",
              "name": "",
              "type": "tuple[]"
            }
          ],
          "stateMutability": "view",
          "type": "function"
        },
        {
          "inputs": [
            {
              "internalType": "uint256",
              "name": "board",
              "type": "uint256"
            },
            {
              "internalType": "uint8",
              "name": "winLine",
              "type": "uint8"
            },
            {
              "internalType": "uint8",
              "name": "start",
              "type": "uint8"
            }
          ],
          "name": "checkWin",
          "outputs": [
            {
              "internalType": "bool",
              "name": "",
              "type": "bool"
            }
          ],
          "stateMutability": "pure",
          "type": "function"
        },
        {
          "inputs": [
            {
              "internalType": "uint256",
              "name": "gameId",
              "type": "uint256"
            }
          ],
          "name": "claimReward",
          "outputs": [],
          "stateMutability": "nonpayable",
          "type": "function"
        },
        {
          "inputs": [
            {
              "internalType": "address",
              "name": "",
              "type": "address"
            },
            {
              "internalType": "uint256",
              "name": "",
              "type": "uint256"
            }
          ],
          "name": "claimed",
          "outputs": [
            {
              "internalType": "bool",
              "name": "",
              "type": "bool"
            }
          ],
          "stateMutability": "view",
          "type": "function"
        },
        {
          "inputs": [],
          "name": "createGame",
          "outputs": [],
          "stateMutability": "payable",
          "type": "function"
        },
        {
          "inputs": [
            {
              "internalType": "uint256",
              "name": "",
              "type": "uint256"
            }
          ],
          "name": "games",
          "outputs": [
            {
              "internalType": "address",
              "name": "playerX",
              "type": "address"
            },
            {
              "internalType": "address",
              "name": "playerO",
              "type": "address"
            },
            {
              "internalType": "uint256",
              "name": "X",
              "type": "uint256"
            },
            {
              "internalType": "uint256",
              "name": "O",
              "type": "uint256"
            },
            {
              "internalType": "uint256",
              "name": "betAmount",
              "type": "uint256"
            },
            {
              "internalType": "uint8",
              "name": "winner",
              "type": "uint8"
            },
            {
              "internalType": "uint8",
              "name": "moveOf",
              "type": "uint8"
            },
            {
              "internalType": "uint8",
              "name": "movePos",
              "type": "uint8"
            },
            {
              "internalType": "uint64",
              "name": "movedAt",
              "type": "uint64"
            }
          ],
          "stateMutability": "view",
          "type": "function"
        },
        {
          "inputs": [
            {
              "internalType": "uint256",
              "name": "gameId",
              "type": "uint256"
            }
          ],
          "name": "joinGame",
          "outputs": [],
          "stateMutability": "payable",
          "type": "function"
        },
        {
          "inputs": [
            {
              "internalType": "uint256",
              "name": "gameId",
              "type": "uint256"
            },
            {
              "internalType": "uint8",
              "name": "pos",
              "type": "uint8"
            },
            {
              "internalType": "uint8",
              "name": "winLine",
              "type": "uint8"
            },
            {
              "internalType": "uint8",
              "name": "winPos",
              "type": "uint8"
            }
          ],
          "name": "makeMove",
          "outputs": [],
          "stateMutability": "nonpayable",
          "type": "function"
        },
        {
          "inputs": [
            {
              "internalType": "address",
              "name": "add",
              "type": "address"
            }
          ],
          "name": "myGame",
          "outputs": [
            {
              "internalType": "uint256",
              "name": "index",
              "type": "uint256"
            },
            {
              "components": [
                {
                  "internalType": "address",
                  "name": "playerX",
                  "type": "address"
                },
                {
                  "internalType": "address",
                  "name": "playerO",
                  "type": "address"
                },
                {
                  "internalType": "uint256",
                  "name": "X",
                  "type": "uint256"
                },
                {
                  "internalType": "uint256",
                  "name": "O",
                  "type": "uint256"
                },
                {
                  "internalType": "uint256",
                  "name": "betAmount",
                  "type": "uint256"
                },
                {
                  "internalType": "uint8",
                  "name": "winner",
                  "type": "uint8"
                },
                {
                  "internalType": "uint8",
                  "name": "moveOf",
                  "type": "uint8"
                },
                {
                  "internalType": "uint8",
                  "name": "movePos",
                  "type": "uint8"
                },
                {
                  "internalType": "uint64",
                  "name": "movedAt",
                  "type": "uint64"
                }
              ],
              "internalType": "struct TicTacToe.Game",
              "name": "game",
              "type": "tuple"
            }
          ],
          "stateMutability": "view",
          "type": "function"
        }
      ],
      "evm": {
        "bytecode": {
          "linkReferences": {},
          "object": "608080604052346015576112b8908161001b8239f35b600080fdfe6080604052600436101561001257600080fd5b60003560e01c806305c6c5ce14610a63578063117a5b90146109b9578063269499841461099d578063465542f0146108ab5780634a14a6cc146105425780634dd6c8de146104f55780637255d7291461038d57806378c7cee014610370578063a0ea32de14610354578063ae169a50146102ee578063bdffd282146102d2578063c1599bd9146102b6578063d6afb2621461027a5763efaa55a0146100b657600080fd5b6020366003190112610275576004356100ce81610abc565b50546001600160a01b03161561023a576100e781610abc565b50600101546001600160a01b03166102065761010281610abc565b50546001600160a01b031633146101c157600461011e82610abc565b500154340361017c5761015081600161013961017a94610abc565b500180546001600160a01b03191633179055610abc565b5060050180546affffffffffffffff00000019164260181b6affffffffffffffff00000016179055565b005b60405162461bcd60e51b815260206004820152601960248201527f42657420616d6f756e74206973206e6f7420636f7272656374000000000000006044820152606490fd5b60405162461bcd60e51b815260206004820152601c60248201527f596f752063616e2774206a6f696e20796f7572206f776e2067616d65000000006044820152606490fd5b60405162461bcd60e51b815260206004820152600c60248201526b11d85b59481a5cc8199d5b1b60a21b6044820152606490fd5b60405162461bcd60e51b815260206004820152601360248201527211d85b5948191bd95cc81b9bdd08195e1a5cdd606a1b6044820152606490fd5b600080fd5b34610275576020366003190112610275576101406102b46102a161029c610b85565b61116f565b6040929192519283526020830190610b0c565bf35b3461027557600036600319011261027557602060405160018152f35b3461027557600036600319011261027557602060405160108152f35b346102755760203660031901126102755761017a60043561030e81610abc565b50546001600160a01b031633148015610330575b61032b90610e1c565b610ea1565b5061032b61033d82610abc565b50600101546001600160a01b031633149050610322565b3461027557600036600319011261027557602060405160028152f35b346102755760003660031901126102755760206040516000198152f35b6000366003190112610275576103a1610d7f565b3381526020810160008152604082019060008252606083019060008252608084019134835260a08501936000855260c086016000815260e08701906000825261010088019460008652600054680100000000000000008110156104df5780600161040e9201600055610abc565b9990996104c9575189546001600160a01b03199081166001600160a01b03928316178b55915160018b01805490931691161790559151600288015591516003870155925160048601559251600590940180549251935162ffffff1990931660ff959095169490941760089390931b61ff00169290921760109190911b62ff00001617825561017a919067ffffffffffffffff905182546affffffffffffffff0000001916911660181b6affffffffffffffff00000016179055565b634e487b7160e01b600052600060045260246000fd5b634e487b7160e01b600052604160045260246000fd5b34610275576040366003190112610275576001600160a01b03610516610b85565b1660005260016020526040600020602435600052602052602060ff604060002054166040519015158152f35b346102755760803660031901126102755760043561055e610a9c565b610566610aac565b6064359060ff821682036102755761057d84610abc565b50546001600160a01b031633148015610887575b61059a90610e1c565b6105a384610abc565b50936105ae81610abc565b50546001600160a01b031615159081610867575b501561082e576005840193845460ff81166107fa5760181c67ffffffffffffffff1680159081156107cf575b501561079d5760ff841690610100821015610763576002810180549560016003840197885416941b80941661072857875462ff0000191660109190911b62ff00001617875586546affffffffffffffff00000019164260181b6affffffffffffffff00000016178755865460081c60ff166001036106c757506001015461067f906001600160a01b03163314610e68565b61020061ff001986541617855583541780935560ff8116151592836106b5575b5050506106a857005b805460ff19166002179055005b6106bf9350610ba9565b82808061069f565b90549094506106e0906001600160a01b03163314610e68565b61010061ff001986541617855583541780935560ff811615159283610716575b50505061070957005b805460ff19166001179055005b6107209350610ba9565b828080610700565b60405162461bcd60e51b815260206004820152601360248201527224b73b30b634b2b2103837b9b4ba34b7b7101960691b6044820152606490fd5b60405162461bcd60e51b8152602060048201526012602482015271496e76616c696420706f736974696f6e203160701b6044820152606490fd5b60405162461bcd60e51b815260206004820152600a602482015269054696d652069732075760b41b6044820152606490fd5b9050603c81018091116107e4574210866105ee565b634e487b7160e01b600052601160045260246000fd5b60405162461bcd60e51b815260206004820152600c60248201526b23b0b6b29034b99037bb32b960a11b6044820152606490fd5b60405162461bcd60e51b815260206004820152601160248201527047616d65206973206e6f7420726561647960781b6044820152606490fd5b6108719150610abc565b50600101546001600160a01b03161515856105c2565b5061059a61089485610abc565b50600101546001600160a01b031633149050610591565b346102755760003660031901126102755760005467ffffffffffffffff81116104df5760405190601f19603f8260051b0116820182811067ffffffffffffffff8211176104df57604052808252602082019081600080527f290decd9548b62a8d60345a988386fc84ba6bc95484008f6362f93160ef3e5636000915b83831061097f5784866040519182916020830190602084525180915260408301919060005b81811061095a575050500390f35b919350916020610120826109716001948851610b0c565b01940191019184939261094c565b6006602060019261098f85610da0565b815201920192019190610927565b34610275576000366003190112610275576020604051603c8152f35b3461027557602036600319011261027557600435600054811015610275576109e361012091610abc565b5067ffffffffffffffff60018060a01b038254169160018060a01b036001820154169060028101546003820154906005600484015493015493604051968752602087015260408601526060850152608084015260ff811660a084015260ff8160081c1660c084015260ff8160101c1660e084015260181c16610100820152f35b34610275576060366003190112610275576020610a92610a81610a9c565b610a89610aac565b90600435610ba9565b6040519015158152f35b6024359060ff8216820361027557565b6044359060ff8216820361027557565b600054811015610af65760008080526006919091027f290decd9548b62a8d60345a988386fc84ba6bc95484008f6362f93160ef3e5630191565b634e487b7160e01b600052603260045260246000fd5b67ffffffffffffffff610100809260018060a01b03815116855260018060a01b03602082015116602086015260408101516040860152606081015160608601526080810151608086015260ff60a08201511660a086015260ff60c08201511660c086015260ff60e08201511660e0860152015116910152565b600435906001600160a01b038216820361027557565b90604082018092116107e457565b909160ff811690610100821015610d765760ff6000941660018114610d19575b60028114610cd2575b60038114610c60575b600414610beb575b505081161490565b6004600f82969493961610908115610c4d575b50610c445783925b610c0f85610b9b565b60031981019081116107e4578411610c38576001841b1792600f81018091116107e45792610c06565b92509092503880610be3565b50915050600090565b600c9150600f9060041c16101538610bfe565b94929190600c600f821610801590610cc1575b610cb65781945b610c8383610b9b565b600481018091116107e4578611610cab576001861b1794601181018091116107e45794610c7a565b945090919294610bdb565b505050915050600090565b50600c600f8260041c161015610c73565b94929190600c600f8260041c161015610cb65781945b610cf183610b9b565b8611610d0e576001861b1794601081018091116107e45794610ce8565b945090919294610bd2565b94929190600c600f82161015610d6e5760ff958295600484019088821198899216915b6107e457818811610d60576001881b179660001981146107e4576001019688610d3c565b965050909192939550610bc9565b505050915090565b50505050600090565b60405190610120820182811067ffffffffffffffff8211176104df57604052565b9067ffffffffffffffff6005610db4610d7f565b84546001600160a01b039081168252600186015416602082015260028501546040820152600385015460608201526004850154608082015293015460ff80821660a0860152600882901c811660c0860152601082901c1660e085015260181c16610100830152565b15610e2357565b60405162461bcd60e51b815260206004820152601860248201527f596f7520617265206e6f7420696e20746869732067616d6500000000000000006044820152606490fd5b15610e6f57565b60405162461bcd60e51b815260206004820152600a6024820152692bb937b733903a3ab93760b11b6044820152606490fd5b33600052600160205260406000208160005260205260ff6040600020541661111f57610ef4610efa913360005260016020526040600020816000526020526040600020600160ff19825416179055610abc565b50610da0565b6040810151606082015117600019146110eb5760a0810160ff81511615806110da575b806110b7575b1561106357600281525b60ff8151161561102e575160ff16600181148061101b575b15610f8f5750608001518060011b90808204600214901517156107e457600080808093818115610f86575b3390f115610f7a57565b6040513d6000823e3d90fd5b506108fc610f70565b60021480611005575b610fd75760405162461bcd60e51b815260206004820152601360248201527210d85b9b9bdd0818db185a5b481c995dd85c99606a1b6044820152606490fd5b608001518060011b90808204600214901517156107e457600080808093818115610f86573390f115610f7a57565b5060208101516001600160a01b03163314610f98565b5081516001600160a01b03163314610f45565b60405162461bcd60e51b815260206004820152600d60248201526c139bc81dda5b9b995c881e595d609a1b6044820152606490fd5b60ff81511615806110a6575b80611083575b15610f2d5760018152610f2d565b5067ffffffffffffffff61010083015116603c81018091116107e4574211611075565b50600260ff60c0840151161461106f565b5067ffffffffffffffff61010083015116603c81018091116107e4574211610f23565b50600160ff60c08401511614610f1d565b60405162461bcd60e51b815260206004820152600c60248201526b47616d65206973206472617760a01b6044820152606490fd5b60405162461bcd60e51b815260206004820152602260248201527f596f75206861766520616c726561647920636c61696d656420746869732067616044820152616d6560f01b6064820152608490fd5b90611178610d7f565b6000815260006020820152600060408201526000606082015260006080820152600060a0820152600060c0820152600060e082015260006101008201525060005460001981019081116107e4575b6111cf81610abc565b50546001600160a01b0384811691168114908115611262575b506112515780156112025780156107e457600019016111c6565b50905061120d610d7f565b906000825260006020830152600060408301526000606083015260006080830152600060a0830152600060c0830152600060e0830152600061010083015260009190565b915061125f610ef483610abc565b90565b905061126d82610abc565b50600101546001600160a01b031614386111e856fea26469706673582212207fdb1ab5e8f46e6ea186e44d6f25c7d3782be3943c53eb5fa8f2ed74b275d48664736f6c634300081c0033",
          "opcodes": "PUSH1 0x80 DUP1 PUSH1 0x40 MSTORE CALLVALUE PUSH1 0x15 JUMPI PUSH2 0x12B8 SWAP1 DUP2 PUSH2 0x1B DUP3 CODECOPY RETURN JUMPDEST PUSH1 0x0 DUP1 REVERT INVALID PUSH1 0x80 PUSH1 0x40 MSTORE PUSH1 0x4 CALLDATASIZE LT ISZERO PUSH2 0x12 JUMPI PUSH1 0x0 DUP1 REVERT JUMPDEST PUSH1 0x0 CALLDATALOAD PUSH1 0xE0 SHR DUP1 PUSH4 0x5C6C5CE EQ PUSH2 0xA63 JUMPI DUP1 PUSH4 0x117A5B90 EQ PUSH2 0x9B9 JUMPI DUP1 PUSH4 0x26949984 EQ PUSH2 0x99D JUMPI DUP1 PUSH4 0x465542F0 EQ PUSH2 0x8AB JUMPI DUP1 PUSH4 0x4A14A6CC EQ PUSH2 0x542 JUMPI DUP1 PUSH4 0x4DD6C8DE EQ PUSH2 0x4F5 JUMPI DUP1 PUSH4 0x7255D729 EQ PUSH2 0x38D JUMPI DUP1 PUSH4 0x78C7CEE0 EQ PUSH2 0x370 JUMPI DUP1 PUSH4 0xA0EA32DE EQ PUSH2 0x354 JUMPI DUP1 PUSH4 0xAE169A50 EQ PUSH2 0x2EE JUMPI DUP1 PUSH4 0xBDFFD282 EQ PUSH2 0x2D2 JUMPI DUP1 PUSH4 0xC1599BD9 EQ PUSH2 0x2B6 JUMPI DUP1 PUSH4 0xD6AFB262 EQ PUSH2 0x27A JUMPI PUSH4 0xEFAA55A0 EQ PUSH2 0xB6 JUMPI PUSH1 0x0 DUP1 REVERT JUMPDEST PUSH1 0x20 CALLDATASIZE PUSH1 0x3 NOT ADD SLT PUSH2 0x275 JUMPI PUSH1 0x4 CALLDATALOAD PUSH2 0xCE DUP2 PUSH2 0xABC JUMP JUMPDEST POP SLOAD PUSH1 0x1 PUSH1 0x1 PUSH1 0xA0 SHL SUB AND ISZERO PUSH2 0x23A JUMPI PUSH2 0xE7 DUP2 PUSH2 0xABC JUMP JUMPDEST POP PUSH1 0x1 ADD SLOAD PUSH1 0x1 PUSH1 0x1 PUSH1 0xA0 SHL SUB AND PUSH2 0x206 JUMPI PUSH2 0x102 DUP2 PUSH2 0xABC JUMP JUMPDEST POP SLOAD PUSH1 0x1 PUSH1 0x1 PUSH1 0xA0 SHL SUB AND CALLER EQ PUSH2 0x1C1 JUMPI PUSH1 0x4 PUSH2 0x11E DUP3 PUSH2 0xABC JUMP JUMPDEST POP ADD SLOAD CALLVALUE SUB PUSH2 0x17C JUMPI PUSH2 0x150 DUP2 PUSH1 0x1 PUSH2 0x139 PUSH2 0x17A SWAP5 PUSH2 0xABC JUMP JUMPDEST POP ADD DUP1 SLOAD PUSH1 0x1 PUSH1 0x1 PUSH1 0xA0 SHL SUB NOT AND CALLER OR SWAP1 SSTORE PUSH2 0xABC JUMP JUMPDEST POP PUSH1 0x5 ADD DUP1 SLOAD PUSH11 0xFFFFFFFFFFFFFFFF000000 NOT AND TIMESTAMP PUSH1 0x18 SHL PUSH11 0xFFFFFFFFFFFFFFFF000000 AND OR SWAP1 SSTORE JUMP JUMPDEST STOP JUMPDEST PUSH1 0x40 MLOAD PUSH3 0x461BCD PUSH1 0xE5 SHL DUP2 MSTORE PUSH1 0x20 PUSH1 0x4 DUP3 ADD MSTORE PUSH1 0x19 PUSH1 0x24 DUP3 ADD MSTORE PUSH32 0x42657420616D6F756E74206973206E6F7420636F727265637400000000000000 PUSH1 0x44 DUP3 ADD MSTORE PUSH1 0x64 SWAP1 REVERT JUMPDEST PUSH1 0x40 MLOAD PUSH3 0x461BCD PUSH1 0xE5 SHL DUP2 MSTORE PUSH1 0x20 PUSH1 0x4 DUP3 ADD MSTORE PUSH1 0x1C PUSH1 0x24 DUP3 ADD MSTORE PUSH32 0x596F752063616E2774206A6F696E20796F7572206F776E2067616D6500000000 PUSH1 0x44 DUP3 ADD MSTORE PUSH1 0x64 SWAP1 REVERT JUMPDEST PUSH1 0x40 MLOAD PUSH3 0x461BCD PUSH1 0xE5 SHL DUP2 MSTORE PUSH1 0x20 PUSH1 0x4 DUP3 ADD MSTORE PUSH1 0xC PUSH1 0x24 DUP3 ADD MSTORE PUSH12 0x11D85B59481A5CC8199D5B1B PUSH1 0xA2 SHL PUSH1 0x44 DUP3 ADD MSTORE PUSH1 0x64 SWAP1 REVERT JUMPDEST PUSH1 0x40 MLOAD PUSH3 0x461BCD PUSH1 0xE5 SHL DUP2 MSTORE PUSH1 0x20 PUSH1 0x4 DUP3 ADD MSTORE PUSH1 0x13 PUSH1 0x24 DUP3 ADD MSTORE PUSH19 0x11D85B5948191BD95CC81B9BDD08195E1A5CDD PUSH1 0x6A SHL PUSH1 0x44 DUP3 ADD MSTORE PUSH1 0x64 SWAP1 REVERT JUMPDEST PUSH1 0x0 DUP1 REVERT JUMPDEST CALLVALUE PUSH2 0x275 JUMPI PUSH1 0x20 CALLDATASIZE PUSH1 0x3 NOT ADD SLT PUSH2 0x275 JUMPI PUSH2 0x140 PUSH2 0x2B4 PUSH2 0x2A1 PUSH2 0x29C PUSH2 0xB85 JUMP JUMPDEST PUSH2 0x116F JUMP JUMPDEST PUSH1 0x40 SWAP3 SWAP2 SWAP3 MLOAD SWAP3 DUP4 MSTORE PUSH1 0x20 DUP4 ADD SWAP1 PUSH2 0xB0C JUMP JUMPDEST RETURN JUMPDEST CALLVALUE PUSH2 0x275 JUMPI PUSH1 0x0 CALLDATASIZE PUSH1 0x3 NOT ADD SLT PUSH2 0x275 JUMPI PUSH1 0x20 PUSH1 0x40 MLOAD PUSH1 0x1 DUP2 MSTORE RETURN JUMPDEST CALLVALUE PUSH2 0x275 JUMPI PUSH1 0x0 CALLDATASIZE PUSH1 0x3 NOT ADD SLT PUSH2 0x275 JUMPI PUSH1 0x20 PUSH1 0x40 MLOAD PUSH1 0x10 DUP2 MSTORE RETURN JUMPDEST CALLVALUE PUSH2 0x275 JUMPI PUSH1 0x20 CALLDATASIZE PUSH1 0x3 NOT ADD SLT PUSH2 0x275 JUMPI PUSH2 0x17A PUSH1 0x4 CALLDATALOAD PUSH2 0x30E DUP2 PUSH2 0xABC JUMP JUMPDEST POP SLOAD PUSH1 0x1 PUSH1 0x1 PUSH1 0xA0 SHL SUB AND CALLER EQ DUP1 ISZERO PUSH2 0x330 JUMPI JUMPDEST PUSH2 0x32B SWAP1 PUSH2 0xE1C JUMP JUMPDEST PUSH2 0xEA1 JUMP JUMPDEST POP PUSH2 0x32B PUSH2 0x33D DUP3 PUSH2 0xABC JUMP JUMPDEST POP PUSH1 0x1 ADD SLOAD PUSH1 0x1 PUSH1 0x1 PUSH1 0xA0 SHL SUB AND CALLER EQ SWAP1 POP PUSH2 0x322 JUMP JUMPDEST CALLVALUE PUSH2 0x275 JUMPI PUSH1 0x0 CALLDATASIZE PUSH1 0x3 NOT ADD SLT PUSH2 0x275 JUMPI PUSH1 0x20 PUSH1 0x40 MLOAD PUSH1 0x2 DUP2 MSTORE RETURN JUMPDEST CALLVALUE PUSH2 0x275 JUMPI PUSH1 0x0 CALLDATASIZE PUSH1 0x3 NOT ADD SLT PUSH2 0x275 JUMPI PUSH1 0x20 PUSH1 0x40 MLOAD PUSH1 0x0 NOT DUP2 MSTORE RETURN JUMPDEST PUSH1 0x0 CALLDATASIZE PUSH1 0x3 NOT ADD SLT PUSH2 0x275 JUMPI PUSH2 0x3A1 PUSH2 0xD7F JUMP JUMPDEST CALLER DUP2 MSTORE PUSH1 0x20 DUP2 ADD PUSH1 0x0 DUP2 MSTORE PUSH1 0x40 DUP3 ADD SWAP1 PUSH1 0x0 DUP3 MSTORE PUSH1 0x60 DUP4 ADD SWAP1 PUSH1 0x0 DUP3 MSTORE PUSH1 0x80 DUP5 ADD SWAP2 CALLVALUE DUP4 MSTORE PUSH1 0xA0 DUP6 ADD SWAP4 PUSH1 0x0 DUP6 MSTORE PUSH1 0xC0 DUP7 ADD PUSH1 0x0 DUP2 MSTORE PUSH1 0xE0 DUP8 ADD SWAP1 PUSH1 0x0 DUP3 MSTORE PUSH2 0x100 DUP9 ADD SWAP5 PUSH1 0x0 DUP7 MSTORE PUSH1 0x0 SLOAD PUSH9 0x10000000000000000 DUP2 LT ISZERO PUSH2 0x4DF JUMPI DUP1 PUSH1 0x1 PUSH2 0x40E SWAP3 ADD PUSH1 0x0 SSTORE PUSH2 0xABC JUMP JUMPDEST SWAP10 SWAP1 SWAP10 PUSH2 0x4C9 JUMPI MLOAD DUP10 SLOAD PUSH1 0x1 PUSH1 0x1 PUSH1 0xA0 SHL SUB NOT SWAP1 DUP2 AND PUSH1 0x1 PUSH1 0x1 PUSH1 0xA0 SHL SUB SWAP3 DUP4 AND OR DUP12 SSTORE SWAP2 MLOAD PUSH1 0x1 DUP12 ADD DUP1 SLOAD SWAP1 SWAP4 AND SWAP2 AND OR SWAP1 SSTORE SWAP2 MLOAD PUSH1 0x2 DUP9 ADD SSTORE SWAP2 MLOAD PUSH1 0x3 DUP8 ADD SSTORE SWAP3 MLOAD PUSH1 0x4 DUP7 ADD SSTORE SWAP3 MLOAD PUSH1 0x5 SWAP1 SWAP5 ADD DUP1 SLOAD SWAP3 MLOAD SWAP4 MLOAD PUSH3 0xFFFFFF NOT SWAP1 SWAP4 AND PUSH1 0xFF SWAP6 SWAP1 SWAP6 AND SWAP5 SWAP1 SWAP5 OR PUSH1 0x8 SWAP4 SWAP1 SWAP4 SHL PUSH2 0xFF00 AND SWAP3 SWAP1 SWAP3 OR PUSH1 0x10 SWAP2 SWAP1 SWAP2 SHL PUSH3 0xFF0000 AND OR DUP3 SSTORE PUSH2 0x17A SWAP2 SWAP1 PUSH8 0xFFFFFFFFFFFFFFFF SWAP1 MLOAD DUP3 SLOAD PUSH11 0xFFFFFFFFFFFFFFFF000000 NOT AND SWAP2 AND PUSH1 0x18 SHL PUSH11 0xFFFFFFFFFFFFFFFF000000 AND OR SWAP1 SSTORE JUMP JUMPDEST PUSH4 0x4E487B71 PUSH1 0xE0 SHL PUSH1 0x0 MSTORE PUSH1 0x0 PUSH1 0x4 MSTORE PUSH1 0x24 PUSH1 0x0 REVERT JUMPDEST PUSH4 0x4E487B71 PUSH1 0xE0 SHL PUSH1 0x0 MSTORE PUSH1 0x41 PUSH1 0x4 MSTORE PUSH1 0x24 PUSH1 0x0 REVERT JUMPDEST CALLVALUE PUSH2 0x275 JUMPI PUSH1 0x40 CALLDATASIZE PUSH1 0x3 NOT ADD SLT PUSH2 0x275 JUMPI PUSH1 0x1 PUSH1 0x1 PUSH1 0xA0 SHL SUB PUSH2 0x516 PUSH2 0xB85 JUMP JUMPDEST AND PUSH1 0x0 MSTORE PUSH1 0x1 PUSH1 0x20 MSTORE PUSH1 0x40 PUSH1 0x0 KECCAK256 PUSH1 0x24 CALLDATALOAD PUSH1 0x0 MSTORE PUSH1 0x20 MSTORE PUSH1 0x20 PUSH1 0xFF PUSH1 0x40 PUSH1 0x0 KECCAK256 SLOAD AND PUSH1 0x40 MLOAD SWAP1 ISZERO ISZERO DUP2 MSTORE RETURN JUMPDEST CALLVALUE PUSH2 0x275 JUMPI PUSH1 0x80 CALLDATASIZE PUSH1 0x3 NOT ADD SLT PUSH2 0x275 JUMPI PUSH1 0x4 CALLDATALOAD PUSH2 0x55E PUSH2 0xA9C JUMP JUMPDEST PUSH2 0x566 PUSH2 0xAAC JUMP JUMPDEST PUSH1 0x64 CALLDATALOAD SWAP1 PUSH1 0xFF DUP3 AND DUP3 SUB PUSH2 0x275 JUMPI PUSH2 0x57D DUP5 PUSH2 0xABC JUMP JUMPDEST POP SLOAD PUSH1 0x1 PUSH1 0x1 PUSH1 0xA0 SHL SUB AND CALLER EQ DUP1 ISZERO PUSH2 0x887 JUMPI JUMPDEST PUSH2 0x59A SWAP1 PUSH2 0xE1C JUMP JUMPDEST PUSH2 0x5A3 DUP5 PUSH2 0xABC JUMP JUMPDEST POP SWAP4 PUSH2 0x5AE DUP2 PUSH2 0xABC JUMP JUMPDEST POP SLOAD PUSH1 0x1 PUSH1 0x1 PUSH1 0xA0 SHL SUB AND ISZERO ISZERO SWAP1 DUP2 PUSH2 0x867 JUMPI JUMPDEST POP ISZERO PUSH2 0x82E JUMPI PUSH1 0x5 DUP5 ADD SWAP4 DUP5 SLOAD PUSH1 0xFF DUP2 AND PUSH2 0x7FA JUMPI PUSH1 0x18 SHR PUSH8 0xFFFFFFFFFFFFFFFF AND DUP1 ISZERO SWAP1 DUP2 ISZERO PUSH2 0x7CF JUMPI JUMPDEST POP ISZERO PUSH2 0x79D JUMPI PUSH1 0xFF DUP5 AND SWAP1 PUSH2 0x100 DUP3 LT ISZERO PUSH2 0x763 JUMPI PUSH1 0x2 DUP2 ADD DUP1 SLOAD SWAP6 PUSH1 0x1 PUSH1 0x3 DUP5 ADD SWAP8 DUP9 SLOAD AND SWAP5 SHL DUP1 SWAP5 AND PUSH2 0x728 JUMPI DUP8 SLOAD PUSH3 0xFF0000 NOT AND PUSH1 0x10 SWAP2 SWAP1 SWAP2 SHL PUSH3 0xFF0000 AND OR DUP8 SSTORE DUP7 SLOAD PUSH11 0xFFFFFFFFFFFFFFFF000000 NOT AND TIMESTAMP PUSH1 0x18 SHL PUSH11 0xFFFFFFFFFFFFFFFF000000 AND OR DUP8 SSTORE DUP7 SLOAD PUSH1 0x8 SHR PUSH1 0xFF AND PUSH1 0x1 SUB PUSH2 0x6C7 JUMPI POP PUSH1 0x1 ADD SLOAD PUSH2 0x67F SWAP1 PUSH1 0x1 PUSH1 0x1 PUSH1 0xA0 SHL SUB AND CALLER EQ PUSH2 0xE68 JUMP JUMPDEST PUSH2 0x200 PUSH2 0xFF00 NOT DUP7 SLOAD AND OR DUP6 SSTORE DUP4 SLOAD OR DUP1 SWAP4 SSTORE PUSH1 0xFF DUP2 AND ISZERO ISZERO SWAP3 DUP4 PUSH2 0x6B5 JUMPI JUMPDEST POP POP POP PUSH2 0x6A8 JUMPI STOP JUMPDEST DUP1 SLOAD PUSH1 0xFF NOT AND PUSH1 0x2 OR SWAP1 SSTORE STOP JUMPDEST PUSH2 0x6BF SWAP4 POP PUSH2 0xBA9 JUMP JUMPDEST DUP3 DUP1 DUP1 PUSH2 0x69F JUMP JUMPDEST SWAP1 SLOAD SWAP1 SWAP5 POP PUSH2 0x6E0 SWAP1 PUSH1 0x1 PUSH1 0x1 PUSH1 0xA0 SHL SUB AND CALLER EQ PUSH2 0xE68 JUMP JUMPDEST PUSH2 0x100 PUSH2 0xFF00 NOT DUP7 SLOAD AND OR DUP6 SSTORE DUP4 SLOAD OR DUP1 SWAP4 SSTORE PUSH1 0xFF DUP2 AND ISZERO ISZERO SWAP3 DUP4 PUSH2 0x716 JUMPI JUMPDEST POP POP POP PUSH2 0x709 JUMPI STOP JUMPDEST DUP1 SLOAD PUSH1 0xFF NOT AND PUSH1 0x1 OR SWAP1 SSTORE STOP JUMPDEST PUSH2 0x720 SWAP4 POP PUSH2 0xBA9 JUMP JUMPDEST DUP3 DUP1 DUP1 PUSH2 0x700 JUMP JUMPDEST PUSH1 0x40 MLOAD PUSH3 0x461BCD PUSH1 0xE5 SHL DUP2 MSTORE PUSH1 0x20 PUSH1 0x4 DUP3 ADD MSTORE PUSH1 0x13 PUSH1 0x24 DUP3 ADD MSTORE PUSH19 0x24B73B30B634B2B2103837B9B4BA34B7B71019 PUSH1 0x69 SHL PUSH1 0x44 DUP3 ADD MSTORE PUSH1 0x64 SWAP1 REVERT JUMPDEST PUSH1 0x40 MLOAD PUSH3 0x461BCD PUSH1 0xE5 SHL DUP2 MSTORE PUSH1 0x20 PUSH1 0x4 DUP3 ADD MSTORE PUSH1 0x12 PUSH1 0x24 DUP3 ADD MSTORE PUSH18 0x496E76616C696420706F736974696F6E2031 PUSH1 0x70 SHL PUSH1 0x44 DUP3 ADD MSTORE PUSH1 0x64 SWAP1 REVERT JUMPDEST PUSH1 0x40 MLOAD PUSH3 0x461BCD PUSH1 0xE5 SHL DUP2 MSTORE PUSH1 0x20 PUSH1 0x4 DUP3 ADD MSTORE PUSH1 0xA PUSH1 0x24 DUP3 ADD MSTORE PUSH10 0x54696D6520697320757 PUSH1 0xB4 SHL PUSH1 0x44 DUP3 ADD MSTORE PUSH1 0x64 SWAP1 REVERT JUMPDEST SWAP1 POP PUSH1 0x3C DUP2 ADD DUP1 SWAP2 GT PUSH2 0x7E4 JUMPI TIMESTAMP LT DUP7 PUSH2 0x5EE JUMP JUMPDEST PUSH4 0x4E487B71 PUSH1 0xE0 SHL PUSH1 0x0 MSTORE PUSH1 0x11 PUSH1 0x4 MSTORE PUSH1 0x24 PUSH1 0x0 REVERT JUMPDEST PUSH1 0x40 MLOAD PUSH3 0x461BCD PUSH1 0xE5 SHL DUP2 MSTORE PUSH1 0x20 PUSH1 0x4 DUP3 ADD MSTORE PUSH1 0xC PUSH1 0x24 DUP3 ADD MSTORE PUSH12 0x23B0B6B29034B99037BB32B9 PUSH1 0xA1 SHL PUSH1 0x44 DUP3 ADD MSTORE PUSH1 0x64 SWAP1 REVERT JUMPDEST PUSH1 0x40 MLOAD PUSH3 0x461BCD PUSH1 0xE5 SHL DUP2 MSTORE PUSH1 0x20 PUSH1 0x4 DUP3 ADD MSTORE PUSH1 0x11 PUSH1 0x24 DUP3 ADD MSTORE PUSH17 0x47616D65206973206E6F74207265616479 PUSH1 0x78 SHL PUSH1 0x44 DUP3 ADD MSTORE PUSH1 0x64 SWAP1 REVERT JUMPDEST PUSH2 0x871 SWAP2 POP PUSH2 0xABC JUMP JUMPDEST POP PUSH1 0x1 ADD SLOAD PUSH1 0x1 PUSH1 0x1 PUSH1 0xA0 SHL SUB AND ISZERO ISZERO DUP6 PUSH2 0x5C2 JUMP JUMPDEST POP PUSH2 0x59A PUSH2 0x894 DUP6 PUSH2 0xABC JUMP JUMPDEST POP PUSH1 0x1 ADD SLOAD PUSH1 0x1 PUSH1 0x1 PUSH1 0xA0 SHL SUB AND CALLER EQ SWAP1 POP PUSH2 0x591 JUMP JUMPDEST CALLVALUE PUSH2 0x275 JUMPI PUSH1 0x0 CALLDATASIZE PUSH1 0x3 NOT ADD SLT PUSH2 0x275 JUMPI PUSH1 0x0 SLOAD PUSH8 0xFFFFFFFFFFFFFFFF DUP2 GT PUSH2 0x4DF JUMPI PUSH1 0x40 MLOAD SWAP1 PUSH1 0x1F NOT PUSH1 0x3F DUP3 PUSH1 0x5 SHL ADD AND DUP3 ADD DUP3 DUP2 LT PUSH8 0xFFFFFFFFFFFFFFFF DUP3 GT OR PUSH2 0x4DF JUMPI PUSH1 0x40 MSTORE DUP1 DUP3 MSTORE PUSH1 0x20 DUP3 ADD SWAP1 DUP2 PUSH1 0x0 DUP1 MSTORE PUSH32 0x290DECD9548B62A8D60345A988386FC84BA6BC95484008F6362F93160EF3E563 PUSH1 0x0 SWAP2 JUMPDEST DUP4 DUP4 LT PUSH2 0x97F JUMPI DUP5 DUP7 PUSH1 0x40 MLOAD SWAP2 DUP3 SWAP2 PUSH1 0x20 DUP4 ADD SWAP1 PUSH1 0x20 DUP5 MSTORE MLOAD DUP1 SWAP2 MSTORE PUSH1 0x40 DUP4 ADD SWAP2 SWAP1 PUSH1 0x0 JUMPDEST DUP2 DUP2 LT PUSH2 0x95A JUMPI POP POP POP SUB SWAP1 RETURN JUMPDEST SWAP2 SWAP4 POP SWAP2 PUSH1 0x20 PUSH2 0x120 DUP3 PUSH2 0x971 PUSH1 0x1 SWAP5 DUP9 MLOAD PUSH2 0xB0C JUMP JUMPDEST ADD SWAP5 ADD SWAP2 ADD SWAP2 DUP5 SWAP4 SWAP3 PUSH2 0x94C JUMP JUMPDEST PUSH1 0x6 PUSH1 0x20 PUSH1 0x1 SWAP3 PUSH2 0x98F DUP6 PUSH2 0xDA0 JUMP JUMPDEST DUP2 MSTORE ADD SWAP3 ADD SWAP3 ADD SWAP2 SWAP1 PUSH2 0x927 JUMP JUMPDEST CALLVALUE PUSH2 0x275 JUMPI PUSH1 0x0 CALLDATASIZE PUSH1 0x3 NOT ADD SLT PUSH2 0x275 JUMPI PUSH1 0x20 PUSH1 0x40 MLOAD PUSH1 0x3C DUP2 MSTORE RETURN JUMPDEST CALLVALUE PUSH2 0x275 JUMPI PUSH1 0x20 CALLDATASIZE PUSH1 0x3 NOT ADD SLT PUSH2 0x275 JUMPI PUSH1 0x4 CALLDATALOAD PUSH1 0x0 SLOAD DUP2 LT ISZERO PUSH2 0x275 JUMPI PUSH2 0x9E3 PUSH2 0x120 SWAP2 PUSH2 0xABC JUMP JUMPDEST POP PUSH8 0xFFFFFFFFFFFFFFFF PUSH1 0x1 DUP1 PUSH1 0xA0 SHL SUB DUP3 SLOAD AND SWAP2 PUSH1 0x1 DUP1 PUSH1 0xA0 SHL SUB PUSH1 0x1 DUP3 ADD SLOAD AND SWAP1 PUSH1 0x2 DUP2 ADD SLOAD PUSH1 0x3 DUP3 ADD SLOAD SWAP1 PUSH1 0x5 PUSH1 0x4 DUP5 ADD SLOAD SWAP4 ADD SLOAD SWAP4 PUSH1 0x40 MLOAD SWAP7 DUP8 MSTORE PUSH1 0x20 DUP8 ADD MSTORE PUSH1 0x40 DUP7 ADD MSTORE PUSH1 0x60 DUP6 ADD MSTORE PUSH1 0x80 DUP5 ADD MSTORE PUSH1 0xFF DUP2 AND PUSH1 0xA0 DUP5 ADD MSTORE PUSH1 0xFF DUP2 PUSH1 0x8 SHR AND PUSH1 0xC0 DUP5 ADD MSTORE PUSH1 0xFF DUP2 PUSH1 0x10 SHR AND PUSH1 0xE0 DUP5 ADD MSTORE PUSH1 0x18 SHR AND PUSH2 0x100 DUP3 ADD MSTORE RETURN JUMPDEST CALLVALUE PUSH2 0x275 JUMPI PUSH1 0x60 CALLDATASIZE PUSH1 0x3 NOT ADD SLT PUSH2 0x275 JUMPI PUSH1 0x20 PUSH2 0xA92 PUSH2 0xA81 PUSH2 0xA9C JUMP JUMPDEST PUSH2 0xA89 PUSH2 0xAAC JUMP JUMPDEST SWAP1 PUSH1 0x4 CALLDATALOAD PUSH2 0xBA9 JUMP JUMPDEST PUSH1 0x40 MLOAD SWAP1 ISZERO ISZERO DUP2 MSTORE RETURN JUMPDEST PUSH1 0x24 CALLDATALOAD SWAP1 PUSH1 0xFF DUP3 AND DUP3 SUB PUSH2 0x275 JUMPI JUMP JUMPDEST PUSH1 0x44 CALLDATALOAD SWAP1 PUSH1 0xFF DUP3 AND DUP3 SUB PUSH2 0x275 JUMPI JUMP JUMPDEST PUSH1 0x0 SLOAD DUP2 LT ISZERO PUSH2 0xAF6 JUMPI PUSH1 0x0 DUP1 DUP1 MSTORE PUSH1 0x6 SWAP2 SWAP1 SWAP2 MUL PUSH32 0x290DECD9548B62A8D60345A988386FC84BA6BC95484008F6362F93160EF3E563 ADD SWAP2 JUMP JUMPDEST PUSH4 0x4E487B71 PUSH1 0xE0 SHL PUSH1 0x0 MSTORE PUSH1 0x32 PUSH1 0x4 MSTORE PUSH1 0x24 PUSH1 0x0 REVERT JUMPDEST PUSH8 0xFFFFFFFFFFFFFFFF PUSH2 0x100 DUP1 SWAP3 PUSH1 0x1 DUP1 PUSH1 0xA0 SHL SUB DUP2 MLOAD AND DUP6 MSTORE PUSH1 0x1 DUP1 PUSH1 0xA0 SHL SUB PUSH1 0x20 DUP3 ADD MLOAD AND PUSH1 0x20 DUP7 ADD MSTORE PUSH1 0x40 DUP2 ADD MLOAD PUSH1 0x40 DUP7 ADD MSTORE PUSH1 0x60 DUP2 ADD MLOAD PUSH1 0x60 DUP7 ADD MSTORE PUSH1 0x80 DUP2 ADD MLOAD PUSH1 0x80 DUP7 ADD MSTORE PUSH1 0xFF PUSH1 0xA0 DUP3 ADD MLOAD AND PUSH1 0xA0 DUP7 ADD MSTORE PUSH1 0xFF PUSH1 0xC0 DUP3 ADD MLOAD AND PUSH1 0xC0 DUP7 ADD MSTORE PUSH1 0xFF PUSH1 0xE0 DUP3 ADD MLOAD AND PUSH1 0xE0 DUP7 ADD MSTORE ADD MLOAD AND SWAP2 ADD MSTORE JUMP JUMPDEST PUSH1 0x4 CALLDATALOAD SWAP1 PUSH1 0x1 PUSH1 0x1 PUSH1 0xA0 SHL SUB DUP3 AND DUP3 SUB PUSH2 0x275 JUMPI JUMP JUMPDEST SWAP1 PUSH1 0x40 DUP3 ADD DUP1 SWAP3 GT PUSH2 0x7E4 JUMPI JUMP JUMPDEST SWAP1 SWAP2 PUSH1 0xFF DUP2 AND SWAP1 PUSH2 0x100 DUP3 LT ISZERO PUSH2 0xD76 JUMPI PUSH1 0xFF PUSH1 0x0 SWAP5 AND PUSH1 0x1 DUP2 EQ PUSH2 0xD19 JUMPI JUMPDEST PUSH1 0x2 DUP2 EQ PUSH2 0xCD2 JUMPI JUMPDEST PUSH1 0x3 DUP2 EQ PUSH2 0xC60 JUMPI JUMPDEST PUSH1 0x4 EQ PUSH2 0xBEB JUMPI JUMPDEST POP POP DUP2 AND EQ SWAP1 JUMP JUMPDEST PUSH1 0x4 PUSH1 0xF DUP3 SWAP7 SWAP5 SWAP4 SWAP7 AND LT SWAP1 DUP2 ISZERO PUSH2 0xC4D JUMPI JUMPDEST POP PUSH2 0xC44 JUMPI DUP4 SWAP3 JUMPDEST PUSH2 0xC0F DUP6 PUSH2 0xB9B JUMP JUMPDEST PUSH1 0x3 NOT DUP2 ADD SWAP1 DUP2 GT PUSH2 0x7E4 JUMPI DUP5 GT PUSH2 0xC38 JUMPI PUSH1 0x1 DUP5 SHL OR SWAP3 PUSH1 0xF DUP2 ADD DUP1 SWAP2 GT PUSH2 0x7E4 JUMPI SWAP3 PUSH2 0xC06 JUMP JUMPDEST SWAP3 POP SWAP1 SWAP3 POP CODESIZE DUP1 PUSH2 0xBE3 JUMP JUMPDEST POP SWAP2 POP POP PUSH1 0x0 SWAP1 JUMP JUMPDEST PUSH1 0xC SWAP2 POP PUSH1 0xF SWAP1 PUSH1 0x4 SHR AND LT ISZERO CODESIZE PUSH2 0xBFE JUMP JUMPDEST SWAP5 SWAP3 SWAP2 SWAP1 PUSH1 0xC PUSH1 0xF DUP3 AND LT DUP1 ISZERO SWAP1 PUSH2 0xCC1 JUMPI JUMPDEST PUSH2 0xCB6 JUMPI DUP2 SWAP5 JUMPDEST PUSH2 0xC83 DUP4 PUSH2 0xB9B JUMP JUMPDEST PUSH1 0x4 DUP2 ADD DUP1 SWAP2 GT PUSH2 0x7E4 JUMPI DUP7 GT PUSH2 0xCAB JUMPI PUSH1 0x1 DUP7 SHL OR SWAP5 PUSH1 0x11 DUP2 ADD DUP1 SWAP2 GT PUSH2 0x7E4 JUMPI SWAP5 PUSH2 0xC7A JUMP JUMPDEST SWAP5 POP SWAP1 SWAP2 SWAP3 SWAP5 PUSH2 0xBDB JUMP JUMPDEST POP POP POP SWAP2 POP POP PUSH1 0x0 SWAP1 JUMP JUMPDEST POP PUSH1 0xC PUSH1 0xF DUP3 PUSH1 0x4 SHR AND LT ISZERO PUSH2 0xC73 JUMP JUMPDEST SWAP5 SWAP3 SWAP2 SWAP1 PUSH1 0xC PUSH1 0xF DUP3 PUSH1 0x4 SHR AND LT ISZERO PUSH2 0xCB6 JUMPI DUP2 SWAP5 JUMPDEST PUSH2 0xCF1 DUP4 PUSH2 0xB9B JUMP JUMPDEST DUP7 GT PUSH2 0xD0E JUMPI PUSH1 0x1 DUP7 SHL OR SWAP5 PUSH1 0x10 DUP2 ADD DUP1 SWAP2 GT PUSH2 0x7E4 JUMPI SWAP5 PUSH2 0xCE8 JUMP JUMPDEST SWAP5 POP SWAP1 SWAP2 SWAP3 SWAP5 PUSH2 0xBD2 JUMP JUMPDEST SWAP5 SWAP3 SWAP2 SWAP1 PUSH1 0xC PUSH1 0xF DUP3 AND LT ISZERO PUSH2 0xD6E JUMPI PUSH1 0xFF SWAP6 DUP3 SWAP6 PUSH1 0x4 DUP5 ADD SWAP1 DUP9 DUP3 GT SWAP9 DUP10 SWAP3 AND SWAP2 JUMPDEST PUSH2 0x7E4 JUMPI DUP2 DUP9 GT PUSH2 0xD60 JUMPI PUSH1 0x1 DUP9 SHL OR SWAP7 PUSH1 0x0 NOT DUP2 EQ PUSH2 0x7E4 JUMPI PUSH1 0x1 ADD SWAP7 DUP9 PUSH2 0xD3C JUMP JUMPDEST SWAP7 POP POP SWAP1 SWAP2 SWAP3 SWAP4 SWAP6 POP PUSH2 0xBC9 JUMP JUMPDEST POP POP POP SWAP2 POP SWAP1 JUMP JUMPDEST POP POP POP POP PUSH1 0x0 SWAP1 JUMP JUMPDEST PUSH1 0x40 MLOAD SWAP1 PUSH2 0x120 DUP3 ADD DUP3 DUP2 LT PUSH8 0xFFFFFFFFFFFFFFFF DUP3 GT OR PUSH2 0x4DF JUMPI PUSH1 0x40 MSTORE JUMP JUMPDEST SWAP1 PUSH8 0xFFFFFFFFFFFFFFFF PUSH1 0x5 PUSH2 0xDB4 PUSH2 0xD7F JUMP JUMPDEST DUP5 SLOAD PUSH1 0x1 PUSH1 0x1 PUSH1 0xA0 SHL SUB SWAP1 DUP2 AND DUP3 MSTORE PUSH1 0x1 DUP7 ADD SLOAD AND PUSH1 0x20 DUP3 ADD MSTORE PUSH1 0x2 DUP6 ADD SLOAD PUSH1 0x40 DUP3 ADD MSTORE PUSH1 0x3 DUP6 ADD SLOAD PUSH1 0x60 DUP3 ADD MSTORE PUSH1 0x4 DUP6 ADD SLOAD PUSH1 0x80 DUP3 ADD MSTORE SWAP4 ADD SLOAD PUSH1 0xFF DUP1 DUP3 AND PUSH1 0xA0 DUP7 ADD MSTORE PUSH1 0x8 DUP3 SWAP1 SHR DUP2 AND PUSH1 0xC0 DUP7 ADD MSTORE PUSH1 0x10 DUP3 SWAP1 SHR AND PUSH1 0xE0 DUP6 ADD MSTORE PUSH1 0x18 SHR AND PUSH2 0x100 DUP4 ADD MSTORE JUMP JUMPDEST ISZERO PUSH2 0xE23 JUMPI JUMP JUMPDEST PUSH1 0x40 MLOAD PUSH3 0x461BCD PUSH1 0xE5 SHL DUP2 MSTORE PUSH1 0x20 PUSH1 0x4 DUP3 ADD MSTORE PUSH1 0x18 PUSH1 0x24 DUP3 ADD MSTORE PUSH32 0x596F7520617265206E6F7420696E20746869732067616D650000000000000000 PUSH1 0x44 DUP3 ADD MSTORE PUSH1 0x64 SWAP1 REVERT JUMPDEST ISZERO PUSH2 0xE6F JUMPI JUMP JUMPDEST PUSH1 0x40 MLOAD PUSH3 0x461BCD PUSH1 0xE5 SHL DUP2 MSTORE PUSH1 0x20 PUSH1 0x4 DUP3 ADD MSTORE PUSH1 0xA PUSH1 0x24 DUP3 ADD MSTORE PUSH10 0x2BB937B733903A3AB937 PUSH1 0xB1 SHL PUSH1 0x44 DUP3 ADD MSTORE PUSH1 0x64 SWAP1 REVERT JUMPDEST CALLER PUSH1 0x0 MSTORE PUSH1 0x1 PUSH1 0x20 MSTORE PUSH1 0x40 PUSH1 0x0 KECCAK256 DUP2 PUSH1 0x0 MSTORE PUSH1 0x20 MSTORE PUSH1 0xFF PUSH1 0x40 PUSH1 0x0 KECCAK256 SLOAD AND PUSH2 0x111F JUMPI PUSH2 0xEF4 PUSH2 0xEFA SWAP2 CALLER PUSH1 0x0 MSTORE PUSH1 0x1 PUSH1 0x20 MSTORE PUSH1 0x40 PUSH1 0x0 KECCAK256 DUP2 PUSH1 0x0 MSTORE PUSH1 0x20 MSTORE PUSH1 0x40 PUSH1 0x0 KECCAK256 PUSH1 0x1 PUSH1 0xFF NOT DUP3 SLOAD AND OR SWAP1 SSTORE PUSH2 0xABC JUMP JUMPDEST POP PUSH2 0xDA0 JUMP JUMPDEST PUSH1 0x40 DUP2 ADD MLOAD PUSH1 0x60 DUP3 ADD MLOAD OR PUSH1 0x0 NOT EQ PUSH2 0x10EB JUMPI PUSH1 0xA0 DUP2 ADD PUSH1 0xFF DUP2 MLOAD AND ISZERO DUP1 PUSH2 0x10DA JUMPI JUMPDEST DUP1 PUSH2 0x10B7 JUMPI JUMPDEST ISZERO PUSH2 0x1063 JUMPI PUSH1 0x2 DUP2 MSTORE JUMPDEST PUSH1 0xFF DUP2 MLOAD AND ISZERO PUSH2 0x102E JUMPI MLOAD PUSH1 0xFF AND PUSH1 0x1 DUP2 EQ DUP1 PUSH2 0x101B JUMPI JUMPDEST ISZERO PUSH2 0xF8F JUMPI POP PUSH1 0x80 ADD MLOAD DUP1 PUSH1 0x1 SHL SWAP1 DUP1 DUP3 DIV PUSH1 0x2 EQ SWAP1 ISZERO OR ISZERO PUSH2 0x7E4 JUMPI PUSH1 0x0 DUP1 DUP1 DUP1 SWAP4 DUP2 DUP2 ISZERO PUSH2 0xF86 JUMPI JUMPDEST CALLER SWAP1 CALL ISZERO PUSH2 0xF7A JUMPI JUMP JUMPDEST PUSH1 0x40 MLOAD RETURNDATASIZE PUSH1 0x0 DUP3 RETURNDATACOPY RETURNDATASIZE SWAP1 REVERT JUMPDEST POP PUSH2 0x8FC PUSH2 0xF70 JUMP JUMPDEST PUSH1 0x2 EQ DUP1 PUSH2 0x1005 JUMPI JUMPDEST PUSH2 0xFD7 JUMPI PUSH1 0x40 MLOAD PUSH3 0x461BCD PUSH1 0xE5 SHL DUP2 MSTORE PUSH1 0x20 PUSH1 0x4 DUP3 ADD MSTORE PUSH1 0x13 PUSH1 0x24 DUP3 ADD MSTORE PUSH19 0x10D85B9B9BDD0818DB185A5B481C995DD85C99 PUSH1 0x6A SHL PUSH1 0x44 DUP3 ADD MSTORE PUSH1 0x64 SWAP1 REVERT JUMPDEST PUSH1 0x80 ADD MLOAD DUP1 PUSH1 0x1 SHL SWAP1 DUP1 DUP3 DIV PUSH1 0x2 EQ SWAP1 ISZERO OR ISZERO PUSH2 0x7E4 JUMPI PUSH1 0x0 DUP1 DUP1 DUP1 SWAP4 DUP2 DUP2 ISZERO PUSH2 0xF86 JUMPI CALLER SWAP1 CALL ISZERO PUSH2 0xF7A JUMPI JUMP JUMPDEST POP PUSH1 0x20 DUP2 ADD MLOAD PUSH1 0x1 PUSH1 0x1 PUSH1 0xA0 SHL SUB AND CALLER EQ PUSH2 0xF98 JUMP JUMPDEST POP DUP2 MLOAD PUSH1 0x1 PUSH1 0x1 PUSH1 0xA0 SHL SUB AND CALLER EQ PUSH2 0xF45 JUMP JUMPDEST PUSH1 0x40 MLOAD PUSH3 0x461BCD PUSH1 0xE5 SHL DUP2 MSTORE PUSH1 0x20 PUSH1 0x4 DUP3 ADD MSTORE PUSH1 0xD PUSH1 0x24 DUP3 ADD MSTORE PUSH13 0x139BC81DDA5B9B995C881E595D PUSH1 0x9A SHL PUSH1 0x44 DUP3 ADD MSTORE PUSH1 0x64 SWAP1 REVERT JUMPDEST PUSH1 0xFF DUP2 MLOAD AND ISZERO DUP1 PUSH2 0x10A6 JUMPI JUMPDEST DUP1 PUSH2 0x1083 JUMPI JUMPDEST ISZERO PUSH2 0xF2D JUMPI PUSH1 0x1 DUP2 MSTORE PUSH2 0xF2D JUMP JUMPDEST POP PUSH8 0xFFFFFFFFFFFFFFFF PUSH2 0x100 DUP4 ADD MLOAD AND PUSH1 0x3C DUP2 ADD DUP1 SWAP2 GT PUSH2 0x7E4 JUMPI TIMESTAMP GT PUSH2 0x1075 JUMP JUMPDEST POP PUSH1 0x2 PUSH1 0xFF PUSH1 0xC0 DUP5 ADD MLOAD AND EQ PUSH2 0x106F JUMP JUMPDEST POP PUSH8 0xFFFFFFFFFFFFFFFF PUSH2 0x100 DUP4 ADD MLOAD AND PUSH1 0x3C DUP2 ADD DUP1 SWAP2 GT PUSH2 0x7E4 JUMPI TIMESTAMP GT PUSH2 0xF23 JUMP JUMPDEST POP PUSH1 0x1 PUSH1 0xFF PUSH1 0xC0 DUP5 ADD MLOAD AND EQ PUSH2 0xF1D JUMP JUMPDEST PUSH1 0x40 MLOAD PUSH3 0x461BCD PUSH1 0xE5 SHL DUP2 MSTORE PUSH1 0x20 PUSH1 0x4 DUP3 ADD MSTORE PUSH1 0xC PUSH1 0x24 DUP3 ADD MSTORE PUSH12 0x47616D652069732064726177 PUSH1 0xA0 SHL PUSH1 0x44 DUP3 ADD MSTORE PUSH1 0x64 SWAP1 REVERT JUMPDEST PUSH1 0x40 MLOAD PUSH3 0x461BCD PUSH1 0xE5 SHL DUP2 MSTORE PUSH1 0x20 PUSH1 0x4 DUP3 ADD MSTORE PUSH1 0x22 PUSH1 0x24 DUP3 ADD MSTORE PUSH32 0x596F75206861766520616C726561647920636C61696D65642074686973206761 PUSH1 0x44 DUP3 ADD MSTORE PUSH2 0x6D65 PUSH1 0xF0 SHL PUSH1 0x64 DUP3 ADD MSTORE PUSH1 0x84 SWAP1 REVERT JUMPDEST SWAP1 PUSH2 0x1178 PUSH2 0xD7F JUMP JUMPDEST PUSH1 0x0 DUP2 MSTORE PUSH1 0x0 PUSH1 0x20 DUP3 ADD MSTORE PUSH1 0x0 PUSH1 0x40 DUP3 ADD MSTORE PUSH1 0x0 PUSH1 0x60 DUP3 ADD MSTORE PUSH1 0x0 PUSH1 0x80 DUP3 ADD MSTORE PUSH1 0x0 PUSH1 0xA0 DUP3 ADD MSTORE PUSH1 0x0 PUSH1 0xC0 DUP3 ADD MSTORE PUSH1 0x0 PUSH1 0xE0 DUP3 ADD MSTORE PUSH1 0x0 PUSH2 0x100 DUP3 ADD MSTORE POP PUSH1 0x0 SLOAD PUSH1 0x0 NOT DUP2 ADD SWAP1 DUP2 GT PUSH2 0x7E4 JUMPI JUMPDEST PUSH2 0x11CF DUP2 PUSH2 0xABC JUMP JUMPDEST POP SLOAD PUSH1 0x1 PUSH1 0x1 PUSH1 0xA0 SHL SUB DUP5 DUP2 AND SWAP2 AND DUP2 EQ SWAP1 DUP2 ISZERO PUSH2 0x1262 JUMPI JUMPDEST POP PUSH2 0x1251 JUMPI DUP1 ISZERO PUSH2 0x1202 JUMPI DUP1 ISZERO PUSH2 0x7E4 JUMPI PUSH1 0x0 NOT ADD PUSH2 0x11C6 JUMP JUMPDEST POP SWAP1 POP PUSH2 0x120D PUSH2 0xD7F JUMP JUMPDEST SWAP1 PUSH1 0x0 DUP3 MSTORE PUSH1 0x0 PUSH1 0x20 DUP4 ADD MSTORE PUSH1 0x0 PUSH1 0x40 DUP4 ADD MSTORE PUSH1 0x0 PUSH1 0x60 DUP4 ADD MSTORE PUSH1 0x0 PUSH1 0x80 DUP4 ADD MSTORE PUSH1 0x0 PUSH1 0xA0 DUP4 ADD MSTORE PUSH1 0x0 PUSH1 0xC0 DUP4 ADD MSTORE PUSH1 0x0 PUSH1 0xE0 DUP4 ADD MSTORE PUSH1 0x0 PUSH2 0x100 DUP4 ADD MSTORE PUSH1 0x0 SWAP2 SWAP1 JUMP JUMPDEST SWAP2 POP PUSH2 0x125F PUSH2 0xEF4 DUP4 PUSH2 0xABC JUMP JUMPDEST SWAP1 JUMP JUMPDEST SWAP1 POP PUSH2 0x126D DUP3 PUSH2 0xABC JUMP JUMPDEST POP PUSH1 0x1 ADD SLOAD PUSH1 0x1 PUSH1 0x1 PUSH1 0xA0 SHL SUB AND EQ CODESIZE PUSH2 0x11E8 JUMP INVALID LOG2 PUSH5 0x6970667358 0x22 SLT KECCAK256 PUSH32 0xDB1AB5E8F46E6EA186E44D6F25C7D3782BE3943C53EB5FA8F2ED74B275D48664 PUSH20 0x6F6C634300081C00330000000000000000000000 "
        },
        "methodIdentifiers": {
          "DRAW_MARK()": "78c7cee0",
          "MAX_TIME()": "26949984",
          "O()": "a0ea32de",
          "SIZE()": "bdffd282",
          "X()": "c1599bd9",
          "allGames()": "465542f0",
          "checkWin(uint256,uint8,uint8)": "05c6c5ce",
          "claimReward(uint256)": "ae169a50",
          "claimed(address,uint256)": "4dd6c8de",
          "createGame()": "7255d729",
          "games(uint256)": "117a5b90",
          "joinGame(uint256)": "efaa55a0",
          "makeMove(uint256,uint8,uint8,uint8)": "4a14a6cc",
          "myGame(address)": "d6afb262"
        }
      }
    }
  }
}